{
  "_format": "hh-sol-artifact-1",
  "contractName": "ChessWager",
  "sourceName": "contracts/ChessWager.sol",
  "abi": [
    {
      "inputs": [],
      "stateMutability": "nonpayable",
      "type": "constructor"
    },
    {
      "anonymous": false,
      "inputs": [
        {
          "indexed": false,
          "internalType": "string",
          "name": "message",
          "type": "string"
        },
        {
          "indexed": false,
          "internalType": "string",
          "name": "betId",
          "type": "string"
        },
        {
          "indexed": false,
          "internalType": "string",
          "name": "gameId",
          "type": "string"
        }
      ],
      "name": "BetPlacedStatus",
      "type": "event"
    },
    {
      "anonymous": false,
      "inputs": [
        {
          "indexed": true,
          "internalType": "address",
          "name": "previousOwner",
          "type": "address"
        },
        {
          "indexed": true,
          "internalType": "address",
          "name": "newOwner",
          "type": "address"
        }
      ],
      "name": "OwnershipTransferred",
      "type": "event"
    },
    {
      "anonymous": false,
      "inputs": [
        {
          "indexed": false,
          "internalType": "address",
          "name": "account",
          "type": "address"
        }
      ],
      "name": "Paused",
      "type": "event"
    },
    {
      "anonymous": false,
      "inputs": [
        {
          "indexed": false,
          "internalType": "string",
          "name": "betId",
          "type": "string"
        },
        {
          "indexed": false,
          "internalType": "string",
          "name": "gameId",
          "type": "string"
        },
        {
          "indexed": false,
          "internalType": "bool",
          "name": "didUser1Pay",
          "type": "bool"
        },
        {
          "indexed": false,
          "internalType": "bool",
          "name": "didUser2Pay",
          "type": "bool"
        },
        {
          "indexed": false,
          "internalType": "string",
          "name": "winningSide",
          "type": "string"
        }
      ],
      "name": "PayoutStatus",
      "type": "event"
    },
    {
      "anonymous": false,
      "inputs": [
        {
          "indexed": false,
          "internalType": "address",
          "name": "account",
          "type": "address"
        }
      ],
      "name": "Unpaused",
      "type": "event"
    },
    {
      "inputs": [
        {
          "internalType": "address",
          "name": "_user",
          "type": "address"
        }
      ],
      "name": "banUserByWalletAddress",
      "outputs": [],
      "stateMutability": "nonpayable",
      "type": "function"
    },
    {
      "inputs": [],
      "name": "owner",
      "outputs": [
        {
          "internalType": "address",
          "name": "",
          "type": "address"
        }
      ],
      "stateMutability": "view",
      "type": "function"
    },
    {
      "inputs": [],
      "name": "pause",
      "outputs": [],
      "stateMutability": "nonpayable",
      "type": "function"
    },
    {
      "inputs": [],
      "name": "paused",
      "outputs": [
        {
          "internalType": "bool",
          "name": "",
          "type": "bool"
        }
      ],
      "stateMutability": "view",
      "type": "function"
    },
    {
      "inputs": [
        {
          "internalType": "string",
          "name": "_gameId",
          "type": "string"
        },
        {
          "internalType": "string",
          "name": "winningSide",
          "type": "string"
        }
      ],
      "name": "payWinners",
      "outputs": [],
      "stateMutability": "payable",
      "type": "function"
    },
    {
      "inputs": [
        {
          "components": [
            {
              "internalType": "uint256",
              "name": "amount",
              "type": "uint256"
            },
            {
              "internalType": "string",
              "name": "betSide",
              "type": "string"
            },
            {
              "internalType": "string",
              "name": "user1Id",
              "type": "string"
            },
            {
              "internalType": "address payable",
              "name": "user1Metamask",
              "type": "address"
            },
            {
              "internalType": "string",
              "name": "user2Id",
              "type": "string"
            },
            {
              "internalType": "address payable",
              "name": "user2Metamask",
              "type": "address"
            },
            {
              "internalType": "uint256",
              "name": "multiplier",
              "type": "uint256"
            },
            {
              "internalType": "string",
              "name": "gameId",
              "type": "string"
            },
            {
              "internalType": "uint256",
              "name": "timestamp",
              "type": "uint256"
            }
          ],
          "internalType": "struct ChessWager.Bet",
          "name": "_bet",
          "type": "tuple"
        },
        {
          "internalType": "string",
          "name": "_betId",
          "type": "string"
        }
      ],
      "name": "placeBet",
      "outputs": [],
      "stateMutability": "payable",
      "type": "function"
    },
    {
      "inputs": [],
      "name": "renounceOwnership",
      "outputs": [],
      "stateMutability": "nonpayable",
      "type": "function"
    },
    {
      "inputs": [],
      "name": "totalWagered",
      "outputs": [
        {
          "internalType": "uint256",
          "name": "",
          "type": "uint256"
        }
      ],
      "stateMutability": "view",
      "type": "function"
    },
    {
      "inputs": [
        {
          "internalType": "address",
          "name": "newOwner",
          "type": "address"
        }
      ],
      "name": "transferOwnership",
      "outputs": [],
      "stateMutability": "nonpayable",
      "type": "function"
    },
    {
      "inputs": [],
      "name": "unpause",
      "outputs": [],
      "stateMutability": "nonpayable",
      "type": "function"
    },
    {
      "inputs": [],
      "name": "viewChessWagerBalance",
      "outputs": [
        {
          "internalType": "uint256",
          "name": "",
          "type": "uint256"
        }
      ],
      "stateMutability": "view",
      "type": "function"
    },
    {
      "inputs": [],
      "name": "withdrawChessWagerBalance",
      "outputs": [],
      "stateMutability": "payable",
      "type": "function"
    }
  ],
  "bytecode": "0x60806040523480156200001157600080fd5b5062000032620000266200009b60201b60201c565b620000a360201b60201c565b60008060146101000a81548160ff02191690831515021790555033600a60006101000a81548173ffffffffffffffffffffffffffffffffffffffff021916908373ffffffffffffffffffffffffffffffffffffffff160217905550600060098190555062000167565b600033905090565b60008060009054906101000a900473ffffffffffffffffffffffffffffffffffffffff169050816000806101000a81548173ffffffffffffffffffffffffffffffffffffffff021916908373ffffffffffffffffffffffffffffffffffffffff1602179055508173ffffffffffffffffffffffffffffffffffffffff168173ffffffffffffffffffffffffffffffffffffffff167f8be0079c531659141344cd1fd0a4f28419497f9722a3daafe3b4186f6b6457e060405160405180910390a35050565b613efb80620001776000396000f3fe6080604052600436106100a75760003560e01c80638456cb59116100645780638456cb59146101565780638686a2dd1461016d5780638a14f12c146101965780638da5cb5b146101c1578063c2b630ca146101ec578063f2fde38b14610208576100a7565b8063137294b0146100ac578063216a6641146100d757806335f11837146100e15780633f4ba83a146100fd5780635c975abb14610114578063715018a61461013f575b600080fd5b3480156100b857600080fd5b506100c1610231565b6040516100ce9190612212565b60405180910390f35b6100df610243565b005b6100fb60048036038101906100f691906122c1565b6102c0565b005b34801561010957600080fd5b506101126112d7565b005b34801561012057600080fd5b506101296112e9565b6040516101369190612358565b60405180910390f35b34801561014b57600080fd5b506101546112ff565b005b34801561016257600080fd5b5061016b611313565b005b34801561017957600080fd5b50610194600480360381019061018f91906123d1565b611325565b005b3480156101a257600080fd5b506101ab611388565b6040516101b89190612212565b60405180910390f35b3480156101cd57600080fd5b506101d661138e565b6040516101e3919061240d565b60405180910390f35b61020660048036038101906102019190612428565b6113b7565b005b34801561021457600080fd5b5061022f600480360381019061022a91906123d1565b611ed4565b005b600061023b611f57565b600954905090565b61024b611f57565b600a60009054906101000a900473ffffffffffffffffffffffffffffffffffffffff1673ffffffffffffffffffffffffffffffffffffffff166108fc6009549081150290604051600060405180830381858888f193505050501580156102b5573d6000803e3d6000fd5b506000600981905550565b6102c8611fd5565b600115156001848060e001906102de91906124b8565b6040516102ec92919061255a565b908152602001604051809103902060009054906101000a900460ff1615150361034a576040517f08c379a0000000000000000000000000000000000000000000000000000000008152600401610341906125d0565b60405180910390fd5b82606001602081019061035d919061262e565b73ffffffffffffffffffffffffffffffffffffffff163373ffffffffffffffffffffffffffffffffffffffff1614806103d357508260a00160208101906103a4919061262e565b73ffffffffffffffffffffffffffffffffffffffff163373ffffffffffffffffffffffffffffffffffffffff16145b610412576040517f08c379a0000000000000000000000000000000000000000000000000000000008152600401610409906126cd565b60405180910390fd5b600015156005838360405161042892919061255a565b908152602001604051809103902060009054906101000a900460ff16151514610486576040517f08c379a000000000000000000000000000000000000000000000000000000000815260040161047d90612739565b60405180910390fd5b604051602001610495906127a5565b604051602081830303815290604052805190602001208380602001906104bb91906124b8565b6040516020016104cc92919061255a565b60405160208183030381529060405280519060200120148061054757506040516020016104f890612806565b6040516020818303038152906040528051906020012083806020019061051e91906124b8565b60405160200161052f92919061255a565b60405160208183030381529060405280519060200120145b610586576040517f08c379a000000000000000000000000000000000000000000000000000000000815260040161057d9061288d565b60405180910390fd5b34600b600082825461059891906128dc565b925050819055506000600283836040516105b392919061255a565b90815260200160405180910390206006015403610a1f576000600483836040516105de92919061255a565b908152602001604051809103902060006101000a81548160ff0219169083151502179055506007600084606001602081019061061a919061262e565b73ffffffffffffffffffffffffffffffffffffffff1673ffffffffffffffffffffffffffffffffffffffff16815260200190815260200160002060009054906101000a900460ff161580156106cb5750600760008460a0016020810190610681919061262e565b73ffffffffffffffffffffffffffffffffffffffff1673ffffffffffffffffffffffffffffffffffffffff16815260200190815260200160002060009054906101000a900460ff16155b61070a576040517f08c379a00000000000000000000000000000000000000000000000000000000081526004016107019061295c565b60405180910390fd5b82606001602081019061071d919061262e565b73ffffffffffffffffffffffffffffffffffffffff163373ffffffffffffffffffffffffffffffffffffffff16036108485782600001353414610795576040517f08c379a000000000000000000000000000000000000000000000000000000000815260040161078c906129c8565b60405180910390fd5b6040518060400160405280600581526020017f7573657231000000000000000000000000000000000000000000000000000000815250600683836040516107dd92919061255a565b908152602001604051809103902090816107f79190612c2e565b507f2704af9c38c87047a2c2bc9ac70641e30b504a3c5fee2796f80dbd745fd724658282858060e0019061082b91906124b8565b60405161083b9493929190612d8a565b60405180910390a1610958565b3460648460c00135856000013561085f9190612dd8565b6108699190612e49565b146108a9576040517f08c379a00000000000000000000000000000000000000000000000000000000081526004016108a0906129c8565b60405180910390fd5b6040518060400160405280600581526020017f7573657232000000000000000000000000000000000000000000000000000000815250600683836040516108f192919061255a565b9081526020016040518091039020908161090b9190612c2e565b507f2704af9c38c87047a2c2bc9ac70641e30b504a3c5fee2796f80dbd745fd724658282858060e0019061093f91906124b8565b60405161094f9493929190612ec6565b60405180910390a15b346003838360405161096b92919061255a565b9081526020016040518091039020819055506008838060e0019061098f91906124b8565b60405161099d92919061255a565b90815260200160405180910390206000018282909180600181540180825580915050600190039060005260206000200160009091929091929091929091925091826109e9929190612f1f565b5082600283836040516109fd92919061255a565b90815260200160405180910390208181610a17919061328b565b9050506112d2565b826000013560028383604051610a3692919061255a565b90815260200160405180910390206000015414610a88576040517f08c379a0000000000000000000000000000000000000000000000000000000008152600401610a7f9061330b565b60405180910390fd5b828060200190610a9891906124b8565b604051602001610aa992919061255a565b6040516020818303038152906040528051906020012060028383604051610ad192919061255a565b9081526020016040518091039020600101604051602001610af291906133ae565b6040516020818303038152906040528051906020012014610b48576040517f08c379a0000000000000000000000000000000000000000000000000000000008152600401610b3f90613437565b60405180910390fd5b828060400190610b5891906124b8565b604051602001610b6992919061255a565b6040516020818303038152906040528051906020012060028383604051610b9192919061255a565b9081526020016040518091039020600201604051602001610bb291906133ae565b6040516020818303038152906040528051906020012014610c08576040517f08c379a0000000000000000000000000000000000000000000000000000000008152600401610bff906134c9565b60405180910390fd5b826060016020810190610c1b919061262e565b73ffffffffffffffffffffffffffffffffffffffff1660028383604051610c4392919061255a565b908152602001604051809103902060030160009054906101000a900473ffffffffffffffffffffffffffffffffffffffff1673ffffffffffffffffffffffffffffffffffffffff1614610ccb576040517f08c379a0000000000000000000000000000000000000000000000000000000008152600401610cc29061355b565b60405180910390fd5b828060800190610cdb91906124b8565b604051602001610cec92919061255a565b6040516020818303038152906040528051906020012060028383604051610d1492919061255a565b9081526020016040518091039020600401604051602001610d3591906133ae565b6040516020818303038152906040528051906020012014610d8b576040517f08c379a0000000000000000000000000000000000000000000000000000000008152600401610d82906135ed565b60405180910390fd5b8260a0016020810190610d9e919061262e565b73ffffffffffffffffffffffffffffffffffffffff1660028383604051610dc692919061255a565b908152602001604051809103902060050160009054906101000a900473ffffffffffffffffffffffffffffffffffffffff1673ffffffffffffffffffffffffffffffffffffffff1614610e4e576040517f08c379a0000000000000000000000000000000000000000000000000000000008152600401610e459061367f565b60405180910390fd5b8260c0013560028383604051610e6592919061255a565b90815260200160405180910390206006015414610eb7576040517f08c379a0000000000000000000000000000000000000000000000000000000008152600401610eae90613711565b60405180910390fd5b828060e00190610ec791906124b8565b604051602001610ed892919061255a565b6040516020818303038152906040528051906020012060028383604051610f0092919061255a565b9081526020016040518091039020600701604051602001610f2191906133ae565b6040516020818303038152906040528051906020012014610f77576040517f08c379a0000000000000000000000000000000000000000000000000000000008152600401610f6e906137a3565b60405180910390fd5b604051602001610f869061380f565b6040516020818303038152906040528051906020012060068383604051610fae92919061255a565b9081526020016040518091039020604051602001610fcc91906133ae565b604051602081830303815290604052805190602001200361113457826060016020810190610ffa919061262e565b73ffffffffffffffffffffffffffffffffffffffff163373ffffffffffffffffffffffffffffffffffffffff1614611067576040517f08c379a000000000000000000000000000000000000000000000000000000000815260040161105e90613896565b60405180910390fd5b826000013534146110ad576040517f08c379a00000000000000000000000000000000000000000000000000000000081526004016110a4906129c8565b60405180910390fd5b34600383836040516110c092919061255a565b908152602001604051809103902060008282546110dd91906128dc565b925050819055507f2704af9c38c87047a2c2bc9ac70641e30b504a3c5fee2796f80dbd745fd724658282858060e0019061111791906124b8565b6040516111279493929190612d8a565b60405180910390a1611298565b8260a0016020810190611147919061262e565b73ffffffffffffffffffffffffffffffffffffffff163373ffffffffffffffffffffffffffffffffffffffff16146111b4576040517f08c379a00000000000000000000000000000000000000000000000000000000081526004016111ab90613928565b60405180910390fd5b3460648460c0013585600001356111cb9190612dd8565b6111d59190612e49565b14611215576040517f08c379a000000000000000000000000000000000000000000000000000000000815260040161120c906129c8565b60405180910390fd5b346003838360405161122892919061255a565b9081526020016040518091039020600082825461124591906128dc565b925050819055507f2704af9c38c87047a2c2bc9ac70641e30b504a3c5fee2796f80dbd745fd724658282858060e0019061127f91906124b8565b60405161128f9493929190612ec6565b60405180910390a15b6001600483836040516112ac92919061255a565b908152602001604051809103902060006101000a81548160ff0219169083151502179055505b505050565b6112df611f57565b6112e761201f565b565b60008060149054906101000a900460ff16905090565b611307611f57565b6113116000612081565b565b61131b611f57565b611323612145565b565b61132d611f57565b6001600760008373ffffffffffffffffffffffffffffffffffffffff1673ffffffffffffffffffffffffffffffffffffffff16815260200190815260200160002060006101000a81548160ff02191690831515021790555050565b600b5481565b60008060009054906101000a900473ffffffffffffffffffffffffffffffffffffffff16905090565b6113bf611f57565b60011515600185856040516113d592919061255a565b908152602001604051809103902060009054906101000a900460ff16151503611433576040517f08c379a000000000000000000000000000000000000000000000000000000000815260040161142a90613994565b60405180910390fd5b600180858560405161144692919061255a565b908152602001604051809103902060006101000a81548160ff02191690831515021790555060005b6008858560405161148092919061255a565b908152602001604051809103902060000180549050811015611ecd5760006002600887876040516114b292919061255a565b908152602001604051809103902060000183815481106114d5576114d46139b4565b5b906000526020600020016040516114ec91906133ae565b9081526020016040518091039020604051806101200160405290816000820154815260200160018201805461152090612a51565b80601f016020809104026020016040519081016040528092919081815260200182805461154c90612a51565b80156115995780601f1061156e57610100808354040283529160200191611599565b820191906000526020600020905b81548152906001019060200180831161157c57829003601f168201915b505050505081526020016002820180546115b290612a51565b80601f01602080910402602001604051908101604052809291908181526020018280546115de90612a51565b801561162b5780601f106116005761010080835404028352916020019161162b565b820191906000526020600020905b81548152906001019060200180831161160e57829003601f168201915b505050505081526020016003820160009054906101000a900473ffffffffffffffffffffffffffffffffffffffff1673ffffffffffffffffffffffffffffffffffffffff1673ffffffffffffffffffffffffffffffffffffffff16815260200160048201805461169a90612a51565b80601f01602080910402602001604051908101604052809291908181526020018280546116c690612a51565b80156117135780601f106116e857610100808354040283529160200191611713565b820191906000526020600020905b8154815290600101906020018083116116f657829003601f168201915b505050505081526020016005820160009054906101000a900473ffffffffffffffffffffffffffffffffffffffff1673ffffffffffffffffffffffffffffffffffffffff1673ffffffffffffffffffffffffffffffffffffffff1681526020016006820154815260200160078201805461178c90612a51565b80601f01602080910402602001604051908101604052809291908181526020018280546117b890612a51565b80156118055780601f106117da57610100808354040283529160200191611805565b820191906000526020600020905b8154815290600101906020018083116117e857829003601f168201915b505050505081526020016008820154815250509050600060036008888860405161183092919061255a565b90815260200160405180910390206000018481548110611853576118526139b4565b5b9060005260206000200160405161186a91906133ae565b9081526020016040518091039020549050600160056008898960405161189192919061255a565b908152602001604051809103902060000185815481106118b4576118b36139b4565b5b906000526020600020016040516118cb91906133ae565b908152602001604051809103902060006101000a81548160ff0219169083151502179055506000151560046008898960405161190892919061255a565b9081526020016040518091039020600001858154811061192b5761192a6139b4565b5b9060005260206000200160405161194291906133ae565b908152602001604051809103902060009054906101000a900460ff16151503611bcd5760405160200161197490613a2f565b6040516020818303038152906040528051906020012060066008898960405161199e92919061255a565b908152602001604051809103902060000185815481106119c1576119c06139b4565b5b906000526020600020016040516119d891906133ae565b90815260200160405180910390206040516020016119f691906133ae565b6040516020818303038152906040528051906020012003611ae057816060015173ffffffffffffffffffffffffffffffffffffffff166108fc829081150290604051600060405180830381858888f19350505050158015611a5b573d6000803e3d6000fd5b507fd678dde1764648a4e84bba067ec49227087849fd6f35a0beb13376e7ce509ea260088888604051611a8f92919061255a565b90815260200160405180910390206000018481548110611ab257611ab16139b4565b5b90600052602060002001888860016000604051611ad3959493929190613b14565b60405180910390a1611bc6565b8160a0015173ffffffffffffffffffffffffffffffffffffffff166108fc60648460c0015184611b109190612dd8565b611b1a9190612e49565b9081150290604051600060405180830381858888f19350505050158015611b45573d6000803e3d6000fd5b507fd678dde1764648a4e84bba067ec49227087849fd6f35a0beb13376e7ce509ea260088888604051611b7992919061255a565b90815260200160405180910390206000018481548110611b9c57611b9b6139b4565b5b90600052602060002001888860006001604051611bbd959493929190613b14565b60405180910390a15b5050611ec0565b7fd678dde1764648a4e84bba067ec49227087849fd6f35a0beb13376e7ce509ea260088888604051611c0092919061255a565b90815260200160405180910390206000018481548110611c2357611c226139b4565b5b9060005260206000200188886001808a8a604051611c479796959493929190613b7c565b60405180910390a1604051602001611c5e90613c34565b604051602081830303815290604052805190602001208585604051602001611c8792919061255a565b6040516020818303038152906040528051906020012003611d7757600060648360c00151611cb59190612e49565b6001611cc191906128dc565b82611ccc9190612e49565b9050826060015173ffffffffffffffffffffffffffffffffffffffff166108fc829081150290604051600060405180830381858888f19350505050158015611d18573d6000803e3d6000fd5b508260a0015173ffffffffffffffffffffffffffffffffffffffff166108fc8284611d439190613c49565b9081150290604051600060405180830381858888f19350505050158015611d6e573d6000803e3d6000fd5b50505050611ec0565b600060646002600984611d8a9190612dd8565b611d949190612e49565b611d9e9190612e49565b90508060096000828254611db291906128dc565b925050819055508082611dc59190613c49565b91508585604051602001611dda92919061255a565b604051602081830303815290604052805190602001208360200151604051602001611e059190613cd8565b6040516020818303038152906040528051906020012003611e7057826060015173ffffffffffffffffffffffffffffffffffffffff166108fc839081150290604051600060405180830381858888f19350505050158015611e6a573d6000803e3d6000fd5b50611ebc565b8260a0015173ffffffffffffffffffffffffffffffffffffffff166108fc839081150290604051600060405180830381858888f19350505050158015611eba573d6000803e3d6000fd5b505b5050505b808060010191505061146e565b5050505050565b611edc611f57565b600073ffffffffffffffffffffffffffffffffffffffff168173ffffffffffffffffffffffffffffffffffffffff1603611f4b576040517f08c379a0000000000000000000000000000000000000000000000000000000008152600401611f4290613d61565b60405180910390fd5b611f5481612081565b50565b611f5f6121a8565b73ffffffffffffffffffffffffffffffffffffffff16611f7d61138e565b73ffffffffffffffffffffffffffffffffffffffff1614611fd3576040517f08c379a0000000000000000000000000000000000000000000000000000000008152600401611fca90613dcd565b60405180910390fd5b565b611fdd6112e9565b1561201d576040517f08c379a000000000000000000000000000000000000000000000000000000000815260040161201490613e39565b60405180910390fd5b565b6120276121b0565b60008060146101000a81548160ff0219169083151502179055507f5db9ee0a495bf2e6ff9c91a7834c1ba4fdd244a5e8aa4e537bd38aeae4b073aa61206a6121a8565b604051612077919061240d565b60405180910390a1565b60008060009054906101000a900473ffffffffffffffffffffffffffffffffffffffff169050816000806101000a81548173ffffffffffffffffffffffffffffffffffffffff021916908373ffffffffffffffffffffffffffffffffffffffff1602179055508173ffffffffffffffffffffffffffffffffffffffff168173ffffffffffffffffffffffffffffffffffffffff167f8be0079c531659141344cd1fd0a4f28419497f9722a3daafe3b4186f6b6457e060405160405180910390a35050565b61214d611fd5565b6001600060146101000a81548160ff0219169083151502179055507f62e78cea01bee320cd4e420270b5ea74000d11b0c9f74754ebdbfc544b05a2586121916121a8565b60405161219e919061240d565b60405180910390a1565b600033905090565b6121b86112e9565b6121f7576040517f08c379a00000000000000000000000000000000000000000000000000000000081526004016121ee90613ea5565b60405180910390fd5b565b6000819050919050565b61220c816121f9565b82525050565b60006020820190506122276000830184612203565b92915050565b600080fd5b600080fd5b600080fd5b6000610120828403121561225357612252612237565b5b81905092915050565b600080fd5b600080fd5b600080fd5b60008083601f8401126122815761228061225c565b5b8235905067ffffffffffffffff81111561229e5761229d612261565b5b6020830191508360018202830111156122ba576122b9612266565b5b9250929050565b6000806000604084860312156122da576122d961222d565b5b600084013567ffffffffffffffff8111156122f8576122f7612232565b5b6123048682870161223c565b935050602084013567ffffffffffffffff81111561232557612324612232565b5b6123318682870161226b565b92509250509250925092565b60008115159050919050565b6123528161233d565b82525050565b600060208201905061236d6000830184612349565b92915050565b600073ffffffffffffffffffffffffffffffffffffffff82169050919050565b600061239e82612373565b9050919050565b6123ae81612393565b81146123b957600080fd5b50565b6000813590506123cb816123a5565b92915050565b6000602082840312156123e7576123e661222d565b5b60006123f5848285016123bc565b91505092915050565b61240781612393565b82525050565b600060208201905061242260008301846123fe565b92915050565b600080600080604085870312156124425761244161222d565b5b600085013567ffffffffffffffff8111156124605761245f612232565b5b61246c8782880161226b565b9450945050602085013567ffffffffffffffff81111561248f5761248e612232565b5b61249b8782880161226b565b925092505092959194509250565b600080fd5b600080fd5b600080fd5b600080833560016020038436030381126124d5576124d46124a9565b5b80840192508235915067ffffffffffffffff8211156124f7576124f66124ae565b5b602083019250600182023603831315612513576125126124b3565b5b509250929050565b600081905092915050565b82818337600083830152505050565b6000612541838561251b565b935061254e838584612526565b82840190509392505050565b6000612567828486612535565b91508190509392505050565b600082825260208201905092915050565b7f47616d6520697320616c7265616479206f766572000000000000000000000000600082015250565b60006125ba601483612573565b91506125c582612584565b602082019050919050565b600060208201905081810360008301526125e9816125ad565b9050919050565b60006125fb82612373565b9050919050565b61260b816125f0565b811461261657600080fd5b50565b60008135905061262881612602565b92915050565b6000602082840312156126445761264361222d565b5b600061265284828501612619565b91505092915050565b7f546865207573657227732077616c6c6574206164647265737320646f65736e2760008201527f7420657175616c20746865206164647265737320696e20746865206265740000602082015250565b60006126b7603e83612573565b91506126c28261265b565b604082019050919050565b600060208201905081810360008301526126e6816126aa565b9050919050565b7f42657420697320616c726561647920636f6d706c657465000000000000000000600082015250565b6000612723601783612573565b915061272e826126ed565b602082019050919050565b6000602082019050818103600083015261275281612716565b9050919050565b7f7768697465000000000000000000000000000000000000000000000000000000600082015250565b600061278f60058361251b565b915061279a82612759565b600582019050919050565b60006127b082612782565b9150819050919050565b7f626c61636b000000000000000000000000000000000000000000000000000000600082015250565b60006127f060058361251b565b91506127fb826127ba565b600582019050919050565b6000612811826127e3565b9150819050919050565b7f4265742073696465206d757374206f6e6c792062652027776869746527206f7260008201527f2027626c61636b27000000000000000000000000000000000000000000000000602082015250565b6000612877602883612573565b91506128828261281b565b604082019050919050565b600060208201905081810360008301526128a68161286a565b9050919050565b7f4e487b7100000000000000000000000000000000000000000000000000000000600052601160045260246000fd5b60006128e7826121f9565b91506128f2836121f9565b925082820190508082111561290a576129096128ad565b5b92915050565b7f4174206c65617374206f6e6520757365722069732062616e6e65640000000000600082015250565b6000612946601b83612573565b915061295182612910565b602082019050919050565b6000602082019050818103600083015261297581612939565b9050919050565b7f57726f6e6720616d6f756e742073656e74000000000000000000000000000000600082015250565b60006129b2601183612573565b91506129bd8261297c565b602082019050919050565b600060208201905081810360008301526129e1816129a5565b9050919050565b600081519050919050565b7f4e487b7100000000000000000000000000000000000000000000000000000000600052604160045260246000fd5b7f4e487b7100000000000000000000000000000000000000000000000000000000600052602260045260246000fd5b60006002820490506001821680612a6957607f821691505b602082108103612a7c57612a7b612a22565b5b50919050565b60008190508160005260206000209050919050565b60006020601f8301049050919050565b600082821b905092915050565b600060088302612ae47fffffffffffffffffffffffffffffffffffffffffffffffffffffffffffffffff82612aa7565b612aee8683612aa7565b95508019841693508086168417925050509392505050565b6000819050919050565b6000612b2b612b26612b21846121f9565b612b06565b6121f9565b9050919050565b6000819050919050565b612b4583612b10565b612b59612b5182612b32565b848454612ab4565b825550505050565b600090565b612b6e612b61565b612b79818484612b3c565b505050565b5b81811015612b9d57612b92600082612b66565b600181019050612b7f565b5050565b601f821115612be257612bb381612a82565b612bbc84612a97565b81016020851015612bcb578190505b612bdf612bd785612a97565b830182612b7e565b50505b505050565b600082821c905092915050565b6000612c0560001984600802612be7565b1980831691505092915050565b6000612c1e8383612bf4565b9150826002028217905092915050565b612c37826129e8565b67ffffffffffffffff811115612c5057612c4f6129f3565b5b612c5a8254612a51565b612c65828285612ba1565b600060209050601f831160018114612c985760008415612c86578287015190505b612c908582612c12565b865550612cf8565b601f198416612ca686612a82565b60005b82811015612cce57848901518255600182019150602085019450602081019050612ca9565b86831015612ceb5784890151612ce7601f891682612bf4565b8355505b6001600288020188555050505b505050505050565b7f7573657231206861732070616964000000000000000000000000000000000000600082015250565b6000612d36600e83612573565b9150612d4182612d00565b602082019050919050565b6000601f19601f8301169050919050565b6000612d698385612573565b9350612d76838584612526565b612d7f83612d4c565b840190509392505050565b60006060820190508181036000830152612da381612d29565b90508181036020830152612db8818688612d5d565b90508181036040830152612dcd818486612d5d565b905095945050505050565b6000612de3826121f9565b9150612dee836121f9565b9250828202612dfc816121f9565b91508282048414831517612e1357612e126128ad565b5b5092915050565b7f4e487b7100000000000000000000000000000000000000000000000000000000600052601260045260246000fd5b6000612e54826121f9565b9150612e5f836121f9565b925082612e6f57612e6e612e1a565b5b828204905092915050565b7f7573657232206861732070616964000000000000000000000000000000000000600082015250565b6000612eb0600e83612573565b9150612ebb82612e7a565b602082019050919050565b60006060820190508181036000830152612edf81612ea3565b90508181036020830152612ef4818688612d5d565b90508181036040830152612f09818486612d5d565b905095945050505050565b600082905092915050565b612f298383612f14565b67ffffffffffffffff811115612f4257612f416129f3565b5b612f4c8254612a51565b612f57828285612ba1565b6000601f831160018114612f865760008415612f74578287013590505b612f7e8582612c12565b865550612fe6565b601f198416612f9486612a82565b60005b82811015612fbc57848901358255600182019150602085019450602081019050612f97565b86831015612fd95784890135612fd5601f891682612bf4565b8355505b6001600288020188555050505b50505050505050565b612ff8816121f9565b811461300357600080fd5b50565b6000813561301381612fef565b80915050919050565b60008160001b9050919050565b60007fffffffffffffffffffffffffffffffffffffffffffffffffffffffffffffffff6130558461301c565b9350801983169250808416831791505092915050565b61307482612b10565b61308761308082612b32565b8354613029565b8255505050565b613099838383612f1f565b505050565b600081356130ab81612602565b80915050919050565b600073ffffffffffffffffffffffffffffffffffffffff6130d48461301c565b9350801983169250808416831791505092915050565b60006131056131006130fb84612373565b612b06565b612373565b9050919050565b6000613117826130ea565b9050919050565b60006131298261310c565b9050919050565b6000819050919050565b6131438261311e565b61315661314f82613130565b83546130b4565b8255505050565b60008101600083018061316f81613006565b905061317b818461306b565b505050600181016020830161319081856124b8565b61319b81838661308e565b5050505060028101604083016131b181856124b8565b6131bc81838661308e565b505050506003810160608301806131d28161309e565b90506131de818461313a565b50505060048101608083016131f381856124b8565b6131fe81838661308e565b505050506005810160a08301806132148161309e565b9050613220818461313a565b5050506006810160c083018061323581613006565b9050613241818461306b565b5050506007810160e0830161325681856124b8565b61326181838661308e565b505050506008810161010083018061327881613006565b9050613284818461306b565b5050505050565b613295828261315d565b5050565b7f5573657220312062657420616d6f756e7420646f65736e2774206d617463682060008201527f7573657220322062657420616d6f756e74000000000000000000000000000000602082015250565b60006132f5603183612573565b915061330082613299565b604082019050919050565b60006020820190508181036000830152613324816132e8565b9050919050565b6000815461333881612a51565b613342818661251b565b9450600182166000811461335d5760018114613372576133a5565b60ff19831686528115158202860193506133a5565b61337b85612a82565b60005b8381101561339d5781548189015260018201915060208101905061337e565b838801955050505b50505092915050565b60006133ba828461332b565b915081905092915050565b7f55736572203120626574207369646520646f65736e2774206d6174636820757360008201527f6572203220626574207369646500000000000000000000000000000000000000602082015250565b6000613421602d83612573565b915061342c826133c5565b604082019050919050565b6000602082019050818103600083015261345081613414565b9050919050565b7f557365722031206265742e7573657231496420646f65736e2774206d6174636860008201527f20757365722032206265742e7573657231496400000000000000000000000000602082015250565b60006134b3603383612573565b91506134be82613457565b604082019050919050565b600060208201905081810360008301526134e2816134a6565b9050919050565b7f557365722031206265742e75736572314d6574616d61736b20646f65736e277460008201527f206d6174636820757365722032206265742e75736572324d6574616d61736b00602082015250565b6000613545603f83612573565b9150613550826134e9565b604082019050919050565b6000602082019050818103600083015261357481613538565b9050919050565b7f557365722031206265742e7573657232496420646f65736e2774206d6174636860008201527f20757365722032206265742e7573657232496400000000000000000000000000602082015250565b60006135d7603383612573565b91506135e28261357b565b604082019050919050565b60006020820190508181036000830152613606816135ca565b9050919050565b7f557365722031206265742e75736572324d6574616d61736b20646f65736e277460008201527f206d6174636820757365722032206265742e75736572324d6574616d61736b00602082015250565b6000613669603f83612573565b91506136748261360d565b604082019050919050565b600060208201905081810360008301526136988161365c565b9050919050565b7f557365722031206265742e7573657231496420646f65736e2774206d6174636860008201527f20757365722032206265742e7573657231496420616d6f756e74000000000000602082015250565b60006136fb603a83612573565b91506137068261369f565b604082019050919050565b6000602082019050818103600083015261372a816136ee565b9050919050565b7f557365722031206265742e67616d65496420646f65736e2774206d617463682060008201527f757365722032206265742e67616d654964000000000000000000000000000000602082015250565b600061378d603183612573565b915061379882613731565b604082019050919050565b600060208201905081810360008301526137bc81613780565b9050919050565b7f7573657232000000000000000000000000000000000000000000000000000000600082015250565b60006137f960058361251b565b9150613804826137c3565b600582019050919050565b600061381a826137ec565b9150819050919050565b7f5573657220312077616c6c6574206164647265737320646f65736e2774206d6160008201527f7463682073656e64657220616464726573730000000000000000000000000000602082015250565b6000613880603283612573565b915061388b82613824565b604082019050919050565b600060208201905081810360008301526138af81613873565b9050919050565b7f5573657220322077616c6c6574206164647265737320646f65736e2774206d6160008201527f7463682073656e64657220616464726573730000000000000000000000000000602082015250565b6000613912603283612573565b915061391d826138b6565b604082019050919050565b6000602082019050818103600083015261394181613905565b9050919050565b7f67616d6520697320616c72656164792070616964000000000000000000000000600082015250565b600061397e601483612573565b915061398982613948565b602082019050919050565b600060208201905081810360008301526139ad81613971565b9050919050565b7f4e487b7100000000000000000000000000000000000000000000000000000000600052603260045260246000fd5b7f7573657231000000000000000000000000000000000000000000000000000000600082015250565b6000613a1960058361251b565b9150613a24826139e3565b600582019050919050565b6000613a3a82613a0c565b9150819050919050565b60008154613a5181612a51565b613a5b8186612573565b94506001821660008114613a765760018114613a8c57613abf565b60ff198316865281151560200286019350613abf565b613a9585612a82565b60005b83811015613ab757815481890152600182019150602081019050613a98565b808801955050505b50505092915050565b7f6e6f6e6500000000000000000000000000000000000000000000000000000000600082015250565b6000613afe600483612573565b9150613b0982613ac8565b602082019050919050565b600060a0820190508181036000830152613b2e8188613a44565b90508181036020830152613b43818688612d5d565b9050613b526040830185612349565b613b5f6060830184612349565b8181036080830152613b7081613af1565b90509695505050505050565b600060a0820190508181036000830152613b96818a613a44565b90508181036020830152613bab81888a612d5d565b9050613bba6040830187612349565b613bc76060830186612349565b8181036080830152613bda818486612d5d565b905098975050505050505050565b7f6472617700000000000000000000000000000000000000000000000000000000600082015250565b6000613c1e60048361251b565b9150613c2982613be8565b600482019050919050565b6000613c3f82613c11565b9150819050919050565b6000613c54826121f9565b9150613c5f836121f9565b9250828203905081811115613c7757613c766128ad565b5b92915050565b60005b83811015613c9b578082015181840152602081019050613c80565b60008484015250505050565b6000613cb2826129e8565b613cbc818561251b565b9350613ccc818560208601613c7d565b80840191505092915050565b6000613ce48284613ca7565b915081905092915050565b7f4f776e61626c653a206e6577206f776e657220697320746865207a65726f206160008201527f6464726573730000000000000000000000000000000000000000000000000000602082015250565b6000613d4b602683612573565b9150613d5682613cef565b604082019050919050565b60006020820190508181036000830152613d7a81613d3e565b9050919050565b7f4f776e61626c653a2063616c6c6572206973206e6f7420746865206f776e6572600082015250565b6000613db7602083612573565b9150613dc282613d81565b602082019050919050565b60006020820190508181036000830152613de681613daa565b9050919050565b7f5061757361626c653a2070617573656400000000000000000000000000000000600082015250565b6000613e23601083612573565b9150613e2e82613ded565b602082019050919050565b60006020820190508181036000830152613e5281613e16565b9050919050565b7f5061757361626c653a206e6f7420706175736564000000000000000000000000600082015250565b6000613e8f601483612573565b9150613e9a82613e59565b602082019050919050565b60006020820190508181036000830152613ebe81613e82565b905091905056fea2646970667358221220dfd47a156404217efbc4421f744af5ca99ab1235d590b4f3e182b658ae8085fc64736f6c63430008180033",
  "linkReferences": {},
  "deployedLinkReferences": {}
}