{
  "_format": "hh-sol-artifact-1",
  "contractName": "ChessWager",
  "sourceName": "contracts/ChessWager.sol",
  "abi": [
    {
      "inputs": [],
      "stateMutability": "nonpayable",
      "type": "constructor"
    },
    {
      "anonymous": false,
      "inputs": [
        {
          "indexed": false,
          "internalType": "string",
          "name": "message",
          "type": "string"
        },
        {
          "indexed": false,
          "internalType": "string",
          "name": "betId",
          "type": "string"
        },
        {
          "indexed": false,
          "internalType": "string",
          "name": "gameId",
          "type": "string"
        }
      ],
      "name": "BetPlacedStatus",
      "type": "event"
    },
    {
      "anonymous": false,
      "inputs": [
        {
          "indexed": true,
          "internalType": "address",
          "name": "previousOwner",
          "type": "address"
        },
        {
          "indexed": true,
          "internalType": "address",
          "name": "newOwner",
          "type": "address"
        }
      ],
      "name": "OwnershipTransferred",
      "type": "event"
    },
    {
      "anonymous": false,
      "inputs": [
        {
          "indexed": false,
          "internalType": "address",
          "name": "account",
          "type": "address"
        }
      ],
      "name": "Paused",
      "type": "event"
    },
    {
      "anonymous": false,
      "inputs": [
        {
          "indexed": false,
          "internalType": "string",
          "name": "betId",
          "type": "string"
        },
        {
          "indexed": false,
          "internalType": "string",
          "name": "gameId",
          "type": "string"
        },
        {
          "indexed": false,
          "internalType": "bool",
          "name": "didUser1Pay",
          "type": "bool"
        },
        {
          "indexed": false,
          "internalType": "bool",
          "name": "didUser2Pay",
          "type": "bool"
        },
        {
          "indexed": false,
          "internalType": "string",
          "name": "winningSide",
          "type": "string"
        }
      ],
      "name": "PayoutStatus",
      "type": "event"
    },
    {
      "anonymous": false,
      "inputs": [
        {
          "indexed": false,
          "internalType": "address",
          "name": "account",
          "type": "address"
        }
      ],
      "name": "Unpaused",
      "type": "event"
    },
    {
      "inputs": [],
      "name": "owner",
      "outputs": [
        {
          "internalType": "address",
          "name": "",
          "type": "address"
        }
      ],
      "stateMutability": "view",
      "type": "function"
    },
    {
      "inputs": [],
      "name": "pause",
      "outputs": [],
      "stateMutability": "nonpayable",
      "type": "function"
    },
    {
      "inputs": [],
      "name": "paused",
      "outputs": [
        {
          "internalType": "bool",
          "name": "",
          "type": "bool"
        }
      ],
      "stateMutability": "view",
      "type": "function"
    },
    {
      "inputs": [
        {
          "internalType": "string",
          "name": "_gameId",
          "type": "string"
        },
        {
          "internalType": "string",
          "name": "winningSide",
          "type": "string"
        }
      ],
      "name": "payWinners",
      "outputs": [],
      "stateMutability": "payable",
      "type": "function"
    },
    {
      "inputs": [
        {
          "components": [
            {
              "internalType": "uint256",
              "name": "amount",
              "type": "uint256"
            },
            {
              "internalType": "string",
              "name": "betSide",
              "type": "string"
            },
            {
              "internalType": "string",
              "name": "user1Id",
              "type": "string"
            },
            {
              "internalType": "address payable",
              "name": "user1Metamask",
              "type": "address"
            },
            {
              "internalType": "string",
              "name": "user2Id",
              "type": "string"
            },
            {
              "internalType": "address payable",
              "name": "user2Metamask",
              "type": "address"
            },
            {
              "internalType": "uint256",
              "name": "multiplier",
              "type": "uint256"
            },
            {
              "internalType": "string",
              "name": "gameId",
              "type": "string"
            },
            {
              "internalType": "uint256",
              "name": "timestamp",
              "type": "uint256"
            }
          ],
          "internalType": "struct ChessWager.Bet",
          "name": "_bet",
          "type": "tuple"
        },
        {
          "internalType": "string",
          "name": "_betId",
          "type": "string"
        }
      ],
      "name": "placeBet",
      "outputs": [],
      "stateMutability": "payable",
      "type": "function"
    },
    {
      "inputs": [],
      "name": "renounceOwnership",
      "outputs": [],
      "stateMutability": "nonpayable",
      "type": "function"
    },
    {
      "inputs": [],
      "name": "totalWagered",
      "outputs": [
        {
          "internalType": "uint256",
          "name": "",
          "type": "uint256"
        }
      ],
      "stateMutability": "view",
      "type": "function"
    },
    {
      "inputs": [
        {
          "internalType": "address",
          "name": "newOwner",
          "type": "address"
        }
      ],
      "name": "transferOwnership",
      "outputs": [],
      "stateMutability": "nonpayable",
      "type": "function"
    },
    {
      "inputs": [],
      "name": "unpause",
      "outputs": [],
      "stateMutability": "nonpayable",
      "type": "function"
    },
    {
      "inputs": [],
      "name": "viewChessWagerBalance",
      "outputs": [
        {
          "internalType": "uint256",
          "name": "",
          "type": "uint256"
        }
      ],
      "stateMutability": "view",
      "type": "function"
    },
    {
      "inputs": [],
      "name": "withdrawChessWagerBalance",
      "outputs": [],
      "stateMutability": "payable",
      "type": "function"
    }
  ],
  "bytecode": "0x60806040523480156200001157600080fd5b5062000032620000266200009b60201b60201c565b620000a360201b60201c565b60008060146101000a81548160ff02191690831515021790555033600960006101000a81548173ffffffffffffffffffffffffffffffffffffffff021916908373ffffffffffffffffffffffffffffffffffffffff160217905550600060088190555062000167565b600033905090565b60008060009054906101000a900473ffffffffffffffffffffffffffffffffffffffff169050816000806101000a81548173ffffffffffffffffffffffffffffffffffffffff021916908373ffffffffffffffffffffffffffffffffffffffff1602179055508173ffffffffffffffffffffffffffffffffffffffff168173ffffffffffffffffffffffffffffffffffffffff167f8be0079c531659141344cd1fd0a4f28419497f9722a3daafe3b4186f6b6457e060405160405180910390a35050565b613cf180620001776000396000f3fe60806040526004361061009c5760003560e01c8063715018a611610064578063715018a6146101345780638456cb591461014b5780638a14f12c146101625780638da5cb5b1461018d578063c2b630ca146101b8578063f2fde38b146101d45761009c565b8063137294b0146100a1578063216a6641146100cc57806335f11837146100d65780633f4ba83a146100f25780635c975abb14610109575b600080fd5b3480156100ad57600080fd5b506100b66101fd565b6040516100c39190612074565b60405180910390f35b6100d461020f565b005b6100f060048036038101906100eb9190612123565b61028c565b005b3480156100fe57600080fd5b5061010761119c565b005b34801561011557600080fd5b5061011e6111ae565b60405161012b91906121ba565b60405180910390f35b34801561014057600080fd5b506101496111c4565b005b34801561015757600080fd5b506101606111d8565b005b34801561016e57600080fd5b506101776111ea565b6040516101849190612074565b60405180910390f35b34801561019957600080fd5b506101a26111f0565b6040516101af9190612216565b60405180910390f35b6101d260048036038101906101cd9190612231565b611219565b005b3480156101e057600080fd5b506101fb60048036038101906101f691906122de565b611d36565b005b6000610207611db9565b600854905090565b610217611db9565b600960009054906101000a900473ffffffffffffffffffffffffffffffffffffffff1673ffffffffffffffffffffffffffffffffffffffff166108fc6008549081150290604051600060405180830381858888f19350505050158015610281573d6000803e3d6000fd5b506000600881905550565b610294611e37565b600115156001848060e001906102aa919061231a565b6040516102b89291906123bc565b908152602001604051809103902060009054906101000a900460ff16151503610316576040517f08c379a000000000000000000000000000000000000000000000000000000000815260040161030d90612432565b60405180910390fd5b8260600160208101906103299190612490565b73ffffffffffffffffffffffffffffffffffffffff163373ffffffffffffffffffffffffffffffffffffffff16148061039f57508260a00160208101906103709190612490565b73ffffffffffffffffffffffffffffffffffffffff163373ffffffffffffffffffffffffffffffffffffffff16145b6103de576040517f08c379a00000000000000000000000000000000000000000000000000000000081526004016103d59061252f565b60405180910390fd5b60001515600583836040516103f49291906123bc565b908152602001604051809103902060009054906101000a900460ff16151514610452576040517f08c379a00000000000000000000000000000000000000000000000000000000081526004016104499061259b565b60405180910390fd5b60405160200161046190612607565b60405160208183030381529060405280519060200120838060200190610487919061231a565b6040516020016104989291906123bc565b60405160208183030381529060405280519060200120148061051357506040516020016104c490612668565b604051602081830303815290604052805190602001208380602001906104ea919061231a565b6040516020016104fb9291906123bc565b60405160208183030381529060405280519060200120145b610552576040517f08c379a0000000000000000000000000000000000000000000000000000000008152600401610549906126ef565b60405180910390fd5b34600a6000828254610564919061273e565b9250508190555060006002838360405161057f9291906123bc565b908152602001604051809103902060060154036108e4576000600483836040516105aa9291906123bc565b908152602001604051809103902060006101000a81548160ff0219169083151502179055508260600160208101906105e29190612490565b73ffffffffffffffffffffffffffffffffffffffff163373ffffffffffffffffffffffffffffffffffffffff160361070d578260000135341461065a576040517f08c379a0000000000000000000000000000000000000000000000000000000008152600401610651906127be565b60405180910390fd5b6040518060400160405280600581526020017f7573657231000000000000000000000000000000000000000000000000000000815250600683836040516106a29291906123bc565b908152602001604051809103902090816106bc9190612a24565b507f2704af9c38c87047a2c2bc9ac70641e30b504a3c5fee2796f80dbd745fd724658282858060e001906106f0919061231a565b6040516107009493929190612b80565b60405180910390a161081d565b3460648460c0013585600001356107249190612bce565b61072e9190612c3f565b1461076e576040517f08c379a0000000000000000000000000000000000000000000000000000000008152600401610765906127be565b60405180910390fd5b6040518060400160405280600581526020017f7573657232000000000000000000000000000000000000000000000000000000815250600683836040516107b69291906123bc565b908152602001604051809103902090816107d09190612a24565b507f2704af9c38c87047a2c2bc9ac70641e30b504a3c5fee2796f80dbd745fd724658282858060e00190610804919061231a565b6040516108149493929190612cbc565b60405180910390a15b34600383836040516108309291906123bc565b9081526020016040518091039020819055506007838060e00190610854919061231a565b6040516108629291906123bc565b90815260200160405180910390206000018282909180600181540180825580915050600190039060005260206000200160009091929091929091929091925091826108ae929190612d15565b5082600283836040516108c29291906123bc565b908152602001604051809103902081816108dc9190613081565b905050611197565b8260000135600283836040516108fb9291906123bc565b9081526020016040518091039020600001541461094d576040517f08c379a000000000000000000000000000000000000000000000000000000000815260040161094490613101565b60405180910390fd5b82806020019061095d919061231a565b60405160200161096e9291906123bc565b60405160208183030381529060405280519060200120600283836040516109969291906123bc565b90815260200160405180910390206001016040516020016109b791906131a4565b6040516020818303038152906040528051906020012014610a0d576040517f08c379a0000000000000000000000000000000000000000000000000000000008152600401610a049061322d565b60405180910390fd5b828060400190610a1d919061231a565b604051602001610a2e9291906123bc565b6040516020818303038152906040528051906020012060028383604051610a569291906123bc565b9081526020016040518091039020600201604051602001610a7791906131a4565b6040516020818303038152906040528051906020012014610acd576040517f08c379a0000000000000000000000000000000000000000000000000000000008152600401610ac4906132bf565b60405180910390fd5b826060016020810190610ae09190612490565b73ffffffffffffffffffffffffffffffffffffffff1660028383604051610b089291906123bc565b908152602001604051809103902060030160009054906101000a900473ffffffffffffffffffffffffffffffffffffffff1673ffffffffffffffffffffffffffffffffffffffff1614610b90576040517f08c379a0000000000000000000000000000000000000000000000000000000008152600401610b8790613351565b60405180910390fd5b828060800190610ba0919061231a565b604051602001610bb19291906123bc565b6040516020818303038152906040528051906020012060028383604051610bd99291906123bc565b9081526020016040518091039020600401604051602001610bfa91906131a4565b6040516020818303038152906040528051906020012014610c50576040517f08c379a0000000000000000000000000000000000000000000000000000000008152600401610c47906133e3565b60405180910390fd5b8260a0016020810190610c639190612490565b73ffffffffffffffffffffffffffffffffffffffff1660028383604051610c8b9291906123bc565b908152602001604051809103902060050160009054906101000a900473ffffffffffffffffffffffffffffffffffffffff1673ffffffffffffffffffffffffffffffffffffffff1614610d13576040517f08c379a0000000000000000000000000000000000000000000000000000000008152600401610d0a90613475565b60405180910390fd5b8260c0013560028383604051610d2a9291906123bc565b90815260200160405180910390206006015414610d7c576040517f08c379a0000000000000000000000000000000000000000000000000000000008152600401610d7390613507565b60405180910390fd5b828060e00190610d8c919061231a565b604051602001610d9d9291906123bc565b6040516020818303038152906040528051906020012060028383604051610dc59291906123bc565b9081526020016040518091039020600701604051602001610de691906131a4565b6040516020818303038152906040528051906020012014610e3c576040517f08c379a0000000000000000000000000000000000000000000000000000000008152600401610e3390613599565b60405180910390fd5b604051602001610e4b90613605565b6040516020818303038152906040528051906020012060068383604051610e739291906123bc565b9081526020016040518091039020604051602001610e9191906131a4565b6040516020818303038152906040528051906020012003610ff957826060016020810190610ebf9190612490565b73ffffffffffffffffffffffffffffffffffffffff163373ffffffffffffffffffffffffffffffffffffffff1614610f2c576040517f08c379a0000000000000000000000000000000000000000000000000000000008152600401610f239061368c565b60405180910390fd5b82600001353414610f72576040517f08c379a0000000000000000000000000000000000000000000000000000000008152600401610f69906127be565b60405180910390fd5b3460038383604051610f859291906123bc565b90815260200160405180910390206000828254610fa2919061273e565b925050819055507f2704af9c38c87047a2c2bc9ac70641e30b504a3c5fee2796f80dbd745fd724658282858060e00190610fdc919061231a565b604051610fec9493929190612b80565b60405180910390a161115d565b8260a001602081019061100c9190612490565b73ffffffffffffffffffffffffffffffffffffffff163373ffffffffffffffffffffffffffffffffffffffff1614611079576040517f08c379a00000000000000000000000000000000000000000000000000000000081526004016110709061371e565b60405180910390fd5b3460648460c0013585600001356110909190612bce565b61109a9190612c3f565b146110da576040517f08c379a00000000000000000000000000000000000000000000000000000000081526004016110d1906127be565b60405180910390fd5b34600383836040516110ed9291906123bc565b9081526020016040518091039020600082825461110a919061273e565b925050819055507f2704af9c38c87047a2c2bc9ac70641e30b504a3c5fee2796f80dbd745fd724658282858060e00190611144919061231a565b6040516111549493929190612cbc565b60405180910390a15b6001600483836040516111719291906123bc565b908152602001604051809103902060006101000a81548160ff0219169083151502179055505b505050565b6111a4611db9565b6111ac611e81565b565b60008060149054906101000a900460ff16905090565b6111cc611db9565b6111d66000611ee3565b565b6111e0611db9565b6111e8611fa7565b565b600a5481565b60008060009054906101000a900473ffffffffffffffffffffffffffffffffffffffff16905090565b611221611db9565b60011515600185856040516112379291906123bc565b908152602001604051809103902060009054906101000a900460ff16151503611295576040517f08c379a000000000000000000000000000000000000000000000000000000000815260040161128c9061378a565b60405180910390fd5b60018085856040516112a89291906123bc565b908152602001604051809103902060006101000a81548160ff02191690831515021790555060005b600785856040516112e29291906123bc565b908152602001604051809103902060000180549050811015611d2f5760006002600787876040516113149291906123bc565b90815260200160405180910390206000018381548110611337576113366137aa565b5b9060005260206000200160405161134e91906131a4565b9081526020016040518091039020604051806101200160405290816000820154815260200160018201805461138290612847565b80601f01602080910402602001604051908101604052809291908181526020018280546113ae90612847565b80156113fb5780601f106113d0576101008083540402835291602001916113fb565b820191906000526020600020905b8154815290600101906020018083116113de57829003601f168201915b5050505050815260200160028201805461141490612847565b80601f016020809104026020016040519081016040528092919081815260200182805461144090612847565b801561148d5780601f106114625761010080835404028352916020019161148d565b820191906000526020600020905b81548152906001019060200180831161147057829003601f168201915b505050505081526020016003820160009054906101000a900473ffffffffffffffffffffffffffffffffffffffff1673ffffffffffffffffffffffffffffffffffffffff1673ffffffffffffffffffffffffffffffffffffffff1681526020016004820180546114fc90612847565b80601f016020809104026020016040519081016040528092919081815260200182805461152890612847565b80156115755780601f1061154a57610100808354040283529160200191611575565b820191906000526020600020905b81548152906001019060200180831161155857829003601f168201915b505050505081526020016005820160009054906101000a900473ffffffffffffffffffffffffffffffffffffffff1673ffffffffffffffffffffffffffffffffffffffff1673ffffffffffffffffffffffffffffffffffffffff168152602001600682015481526020016007820180546115ee90612847565b80601f016020809104026020016040519081016040528092919081815260200182805461161a90612847565b80156116675780601f1061163c57610100808354040283529160200191611667565b820191906000526020600020905b81548152906001019060200180831161164a57829003601f168201915b50505050508152602001600882015481525050905060006003600788886040516116929291906123bc565b908152602001604051809103902060000184815481106116b5576116b46137aa565b5b906000526020600020016040516116cc91906131a4565b908152602001604051809103902054905060016005600789896040516116f39291906123bc565b90815260200160405180910390206000018581548110611716576117156137aa565b5b9060005260206000200160405161172d91906131a4565b908152602001604051809103902060006101000a81548160ff0219169083151502179055506000151560046007898960405161176a9291906123bc565b9081526020016040518091039020600001858154811061178d5761178c6137aa565b5b906000526020600020016040516117a491906131a4565b908152602001604051809103902060009054906101000a900460ff16151503611a2f576040516020016117d690613825565b604051602081830303815290604052805190602001206006600789896040516118009291906123bc565b90815260200160405180910390206000018581548110611823576118226137aa565b5b9060005260206000200160405161183a91906131a4565b908152602001604051809103902060405160200161185891906131a4565b604051602081830303815290604052805190602001200361194257816060015173ffffffffffffffffffffffffffffffffffffffff166108fc829081150290604051600060405180830381858888f193505050501580156118bd573d6000803e3d6000fd5b507fd678dde1764648a4e84bba067ec49227087849fd6f35a0beb13376e7ce509ea2600788886040516118f19291906123bc565b90815260200160405180910390206000018481548110611914576119136137aa565b5b9060005260206000200188886001600060405161193595949392919061390a565b60405180910390a1611a28565b8160a0015173ffffffffffffffffffffffffffffffffffffffff166108fc60648460c00151846119729190612bce565b61197c9190612c3f565b9081150290604051600060405180830381858888f193505050501580156119a7573d6000803e3d6000fd5b507fd678dde1764648a4e84bba067ec49227087849fd6f35a0beb13376e7ce509ea2600788886040516119db9291906123bc565b908152602001604051809103902060000184815481106119fe576119fd6137aa565b5b90600052602060002001888860006001604051611a1f95949392919061390a565b60405180910390a15b5050611d22565b7fd678dde1764648a4e84bba067ec49227087849fd6f35a0beb13376e7ce509ea260078888604051611a629291906123bc565b90815260200160405180910390206000018481548110611a8557611a846137aa565b5b9060005260206000200188886001808a8a604051611aa99796959493929190613972565b60405180910390a1604051602001611ac090613a2a565b604051602081830303815290604052805190602001208585604051602001611ae99291906123bc565b6040516020818303038152906040528051906020012003611bd957600060648360c00151611b179190612c3f565b6001611b23919061273e565b82611b2e9190612c3f565b9050826060015173ffffffffffffffffffffffffffffffffffffffff166108fc829081150290604051600060405180830381858888f19350505050158015611b7a573d6000803e3d6000fd5b508260a0015173ffffffffffffffffffffffffffffffffffffffff166108fc8284611ba59190613a3f565b9081150290604051600060405180830381858888f19350505050158015611bd0573d6000803e3d6000fd5b50505050611d22565b600060646002600984611bec9190612bce565b611bf69190612c3f565b611c009190612c3f565b90508060086000828254611c14919061273e565b925050819055508082611c279190613a3f565b91508585604051602001611c3c9291906123bc565b604051602081830303815290604052805190602001208360200151604051602001611c679190613ace565b6040516020818303038152906040528051906020012003611cd257826060015173ffffffffffffffffffffffffffffffffffffffff166108fc839081150290604051600060405180830381858888f19350505050158015611ccc573d6000803e3d6000fd5b50611d1e565b8260a0015173ffffffffffffffffffffffffffffffffffffffff166108fc839081150290604051600060405180830381858888f19350505050158015611d1c573d6000803e3d6000fd5b505b5050505b80806001019150506112d0565b5050505050565b611d3e611db9565b600073ffffffffffffffffffffffffffffffffffffffff168173ffffffffffffffffffffffffffffffffffffffff1603611dad576040517f08c379a0000000000000000000000000000000000000000000000000000000008152600401611da490613b57565b60405180910390fd5b611db681611ee3565b50565b611dc161200a565b73ffffffffffffffffffffffffffffffffffffffff16611ddf6111f0565b73ffffffffffffffffffffffffffffffffffffffff1614611e35576040517f08c379a0000000000000000000000000000000000000000000000000000000008152600401611e2c90613bc3565b60405180910390fd5b565b611e3f6111ae565b15611e7f576040517f08c379a0000000000000000000000000000000000000000000000000000000008152600401611e7690613c2f565b60405180910390fd5b565b611e89612012565b60008060146101000a81548160ff0219169083151502179055507f5db9ee0a495bf2e6ff9c91a7834c1ba4fdd244a5e8aa4e537bd38aeae4b073aa611ecc61200a565b604051611ed99190612216565b60405180910390a1565b60008060009054906101000a900473ffffffffffffffffffffffffffffffffffffffff169050816000806101000a81548173ffffffffffffffffffffffffffffffffffffffff021916908373ffffffffffffffffffffffffffffffffffffffff1602179055508173ffffffffffffffffffffffffffffffffffffffff168173ffffffffffffffffffffffffffffffffffffffff167f8be0079c531659141344cd1fd0a4f28419497f9722a3daafe3b4186f6b6457e060405160405180910390a35050565b611faf611e37565b6001600060146101000a81548160ff0219169083151502179055507f62e78cea01bee320cd4e420270b5ea74000d11b0c9f74754ebdbfc544b05a258611ff361200a565b6040516120009190612216565b60405180910390a1565b600033905090565b61201a6111ae565b612059576040517f08c379a000000000000000000000000000000000000000000000000000000000815260040161205090613c9b565b60405180910390fd5b565b6000819050919050565b61206e8161205b565b82525050565b60006020820190506120896000830184612065565b92915050565b600080fd5b600080fd5b600080fd5b600061012082840312156120b5576120b4612099565b5b81905092915050565b600080fd5b600080fd5b600080fd5b60008083601f8401126120e3576120e26120be565b5b8235905067ffffffffffffffff811115612100576120ff6120c3565b5b60208301915083600182028301111561211c5761211b6120c8565b5b9250929050565b60008060006040848603121561213c5761213b61208f565b5b600084013567ffffffffffffffff81111561215a57612159612094565b5b6121668682870161209e565b935050602084013567ffffffffffffffff81111561218757612186612094565b5b612193868287016120cd565b92509250509250925092565b60008115159050919050565b6121b48161219f565b82525050565b60006020820190506121cf60008301846121ab565b92915050565b600073ffffffffffffffffffffffffffffffffffffffff82169050919050565b6000612200826121d5565b9050919050565b612210816121f5565b82525050565b600060208201905061222b6000830184612207565b92915050565b6000806000806040858703121561224b5761224a61208f565b5b600085013567ffffffffffffffff81111561226957612268612094565b5b612275878288016120cd565b9450945050602085013567ffffffffffffffff81111561229857612297612094565b5b6122a4878288016120cd565b925092505092959194509250565b6122bb816121f5565b81146122c657600080fd5b50565b6000813590506122d8816122b2565b92915050565b6000602082840312156122f4576122f361208f565b5b6000612302848285016122c9565b91505092915050565b600080fd5b600080fd5b600080fd5b600080833560016020038436030381126123375761233661230b565b5b80840192508235915067ffffffffffffffff82111561235957612358612310565b5b60208301925060018202360383131561237557612374612315565b5b509250929050565b600081905092915050565b82818337600083830152505050565b60006123a3838561237d565b93506123b0838584612388565b82840190509392505050565b60006123c9828486612397565b91508190509392505050565b600082825260208201905092915050565b7f47616d6520697320616c7265616479206f766572000000000000000000000000600082015250565b600061241c6014836123d5565b9150612427826123e6565b602082019050919050565b6000602082019050818103600083015261244b8161240f565b9050919050565b600061245d826121d5565b9050919050565b61246d81612452565b811461247857600080fd5b50565b60008135905061248a81612464565b92915050565b6000602082840312156124a6576124a561208f565b5b60006124b48482850161247b565b91505092915050565b7f546865207573657227732077616c6c6574206164647265737320646f65736e2760008201527f7420657175616c20746865206164647265737320696e20746865206265740000602082015250565b6000612519603e836123d5565b9150612524826124bd565b604082019050919050565b600060208201905081810360008301526125488161250c565b9050919050565b7f42657420697320616c726561647920636f6d706c657465000000000000000000600082015250565b60006125856017836123d5565b91506125908261254f565b602082019050919050565b600060208201905081810360008301526125b481612578565b9050919050565b7f7768697465000000000000000000000000000000000000000000000000000000600082015250565b60006125f160058361237d565b91506125fc826125bb565b600582019050919050565b6000612612826125e4565b9150819050919050565b7f626c61636b000000000000000000000000000000000000000000000000000000600082015250565b600061265260058361237d565b915061265d8261261c565b600582019050919050565b600061267382612645565b9150819050919050565b7f4265742073696465206d757374206f6e6c792062652027776869746527206f7260008201527f2027626c61636b27000000000000000000000000000000000000000000000000602082015250565b60006126d96028836123d5565b91506126e48261267d565b604082019050919050565b60006020820190508181036000830152612708816126cc565b9050919050565b7f4e487b7100000000000000000000000000000000000000000000000000000000600052601160045260246000fd5b60006127498261205b565b91506127548361205b565b925082820190508082111561276c5761276b61270f565b5b92915050565b7f57726f6e6720616d6f756e742073656e74000000000000000000000000000000600082015250565b60006127a86011836123d5565b91506127b382612772565b602082019050919050565b600060208201905081810360008301526127d78161279b565b9050919050565b600081519050919050565b7f4e487b7100000000000000000000000000000000000000000000000000000000600052604160045260246000fd5b7f4e487b7100000000000000000000000000000000000000000000000000000000600052602260045260246000fd5b6000600282049050600182168061285f57607f821691505b60208210810361287257612871612818565b5b50919050565b60008190508160005260206000209050919050565b60006020601f8301049050919050565b600082821b905092915050565b6000600883026128da7fffffffffffffffffffffffffffffffffffffffffffffffffffffffffffffffff8261289d565b6128e4868361289d565b95508019841693508086168417925050509392505050565b6000819050919050565b600061292161291c6129178461205b565b6128fc565b61205b565b9050919050565b6000819050919050565b61293b83612906565b61294f61294782612928565b8484546128aa565b825550505050565b600090565b612964612957565b61296f818484612932565b505050565b5b818110156129935761298860008261295c565b600181019050612975565b5050565b601f8211156129d8576129a981612878565b6129b28461288d565b810160208510156129c1578190505b6129d56129cd8561288d565b830182612974565b50505b505050565b600082821c905092915050565b60006129fb600019846008026129dd565b1980831691505092915050565b6000612a1483836129ea565b9150826002028217905092915050565b612a2d826127de565b67ffffffffffffffff811115612a4657612a456127e9565b5b612a508254612847565b612a5b828285612997565b600060209050601f831160018114612a8e5760008415612a7c578287015190505b612a868582612a08565b865550612aee565b601f198416612a9c86612878565b60005b82811015612ac457848901518255600182019150602085019450602081019050612a9f565b86831015612ae15784890151612add601f8916826129ea565b8355505b6001600288020188555050505b505050505050565b7f7573657231206861732070616964000000000000000000000000000000000000600082015250565b6000612b2c600e836123d5565b9150612b3782612af6565b602082019050919050565b6000601f19601f8301169050919050565b6000612b5f83856123d5565b9350612b6c838584612388565b612b7583612b42565b840190509392505050565b60006060820190508181036000830152612b9981612b1f565b90508181036020830152612bae818688612b53565b90508181036040830152612bc3818486612b53565b905095945050505050565b6000612bd98261205b565b9150612be48361205b565b9250828202612bf28161205b565b91508282048414831517612c0957612c0861270f565b5b5092915050565b7f4e487b7100000000000000000000000000000000000000000000000000000000600052601260045260246000fd5b6000612c4a8261205b565b9150612c558361205b565b925082612c6557612c64612c10565b5b828204905092915050565b7f7573657232206861732070616964000000000000000000000000000000000000600082015250565b6000612ca6600e836123d5565b9150612cb182612c70565b602082019050919050565b60006060820190508181036000830152612cd581612c99565b90508181036020830152612cea818688612b53565b90508181036040830152612cff818486612b53565b905095945050505050565b600082905092915050565b612d1f8383612d0a565b67ffffffffffffffff811115612d3857612d376127e9565b5b612d428254612847565b612d4d828285612997565b6000601f831160018114612d7c5760008415612d6a578287013590505b612d748582612a08565b865550612ddc565b601f198416612d8a86612878565b60005b82811015612db257848901358255600182019150602085019450602081019050612d8d565b86831015612dcf5784890135612dcb601f8916826129ea565b8355505b6001600288020188555050505b50505050505050565b612dee8161205b565b8114612df957600080fd5b50565b60008135612e0981612de5565b80915050919050565b60008160001b9050919050565b60007fffffffffffffffffffffffffffffffffffffffffffffffffffffffffffffffff612e4b84612e12565b9350801983169250808416831791505092915050565b612e6a82612906565b612e7d612e7682612928565b8354612e1f565b8255505050565b612e8f838383612d15565b505050565b60008135612ea181612464565b80915050919050565b600073ffffffffffffffffffffffffffffffffffffffff612eca84612e12565b9350801983169250808416831791505092915050565b6000612efb612ef6612ef1846121d5565b6128fc565b6121d5565b9050919050565b6000612f0d82612ee0565b9050919050565b6000612f1f82612f02565b9050919050565b6000819050919050565b612f3982612f14565b612f4c612f4582612f26565b8354612eaa565b8255505050565b600081016000830180612f6581612dfc565b9050612f718184612e61565b5050506001810160208301612f86818561231a565b612f91818386612e84565b505050506002810160408301612fa7818561231a565b612fb2818386612e84565b50505050600381016060830180612fc881612e94565b9050612fd48184612f30565b5050506004810160808301612fe9818561231a565b612ff4818386612e84565b505050506005810160a083018061300a81612e94565b90506130168184612f30565b5050506006810160c083018061302b81612dfc565b90506130378184612e61565b5050506007810160e0830161304c818561231a565b613057818386612e84565b505050506008810161010083018061306e81612dfc565b905061307a8184612e61565b5050505050565b61308b8282612f53565b5050565b7f5573657220312062657420616d6f756e7420646f65736e2774206d617463682060008201527f7573657220322062657420616d6f756e74000000000000000000000000000000602082015250565b60006130eb6031836123d5565b91506130f68261308f565b604082019050919050565b6000602082019050818103600083015261311a816130de565b9050919050565b6000815461312e81612847565b613138818661237d565b9450600182166000811461315357600181146131685761319b565b60ff198316865281151582028601935061319b565b61317185612878565b60005b8381101561319357815481890152600182019150602081019050613174565b838801955050505b50505092915050565b60006131b08284613121565b915081905092915050565b7f55736572203120626574207369646520646f65736e2774206d6174636820757360008201527f6572203220626574207369646500000000000000000000000000000000000000602082015250565b6000613217602d836123d5565b9150613222826131bb565b604082019050919050565b600060208201905081810360008301526132468161320a565b9050919050565b7f557365722031206265742e7573657231496420646f65736e2774206d6174636860008201527f20757365722032206265742e7573657231496400000000000000000000000000602082015250565b60006132a96033836123d5565b91506132b48261324d565b604082019050919050565b600060208201905081810360008301526132d88161329c565b9050919050565b7f557365722031206265742e75736572314d6574616d61736b20646f65736e277460008201527f206d6174636820757365722032206265742e75736572324d6574616d61736b00602082015250565b600061333b603f836123d5565b9150613346826132df565b604082019050919050565b6000602082019050818103600083015261336a8161332e565b9050919050565b7f557365722031206265742e7573657232496420646f65736e2774206d6174636860008201527f20757365722032206265742e7573657232496400000000000000000000000000602082015250565b60006133cd6033836123d5565b91506133d882613371565b604082019050919050565b600060208201905081810360008301526133fc816133c0565b9050919050565b7f557365722031206265742e75736572324d6574616d61736b20646f65736e277460008201527f206d6174636820757365722032206265742e75736572324d6574616d61736b00602082015250565b600061345f603f836123d5565b915061346a82613403565b604082019050919050565b6000602082019050818103600083015261348e81613452565b9050919050565b7f557365722031206265742e7573657231496420646f65736e2774206d6174636860008201527f20757365722032206265742e7573657231496420616d6f756e74000000000000602082015250565b60006134f1603a836123d5565b91506134fc82613495565b604082019050919050565b60006020820190508181036000830152613520816134e4565b9050919050565b7f557365722031206265742e67616d65496420646f65736e2774206d617463682060008201527f757365722032206265742e67616d654964000000000000000000000000000000602082015250565b60006135836031836123d5565b915061358e82613527565b604082019050919050565b600060208201905081810360008301526135b281613576565b9050919050565b7f7573657232000000000000000000000000000000000000000000000000000000600082015250565b60006135ef60058361237d565b91506135fa826135b9565b600582019050919050565b6000613610826135e2565b9150819050919050565b7f5573657220312077616c6c6574206164647265737320646f65736e2774206d6160008201527f7463682073656e64657220616464726573730000000000000000000000000000602082015250565b60006136766032836123d5565b91506136818261361a565b604082019050919050565b600060208201905081810360008301526136a581613669565b9050919050565b7f5573657220322077616c6c6574206164647265737320646f65736e2774206d6160008201527f7463682073656e64657220616464726573730000000000000000000000000000602082015250565b60006137086032836123d5565b9150613713826136ac565b604082019050919050565b60006020820190508181036000830152613737816136fb565b9050919050565b7f67616d6520697320616c72656164792070616964000000000000000000000000600082015250565b60006137746014836123d5565b915061377f8261373e565b602082019050919050565b600060208201905081810360008301526137a381613767565b9050919050565b7f4e487b7100000000000000000000000000000000000000000000000000000000600052603260045260246000fd5b7f7573657231000000000000000000000000000000000000000000000000000000600082015250565b600061380f60058361237d565b915061381a826137d9565b600582019050919050565b600061383082613802565b9150819050919050565b6000815461384781612847565b61385181866123d5565b9450600182166000811461386c5760018114613882576138b5565b60ff1983168652811515602002860193506138b5565b61388b85612878565b60005b838110156138ad5781548189015260018201915060208101905061388e565b808801955050505b50505092915050565b7f6e6f6e6500000000000000000000000000000000000000000000000000000000600082015250565b60006138f46004836123d5565b91506138ff826138be565b602082019050919050565b600060a0820190508181036000830152613924818861383a565b90508181036020830152613939818688612b53565b905061394860408301856121ab565b61395560608301846121ab565b8181036080830152613966816138e7565b90509695505050505050565b600060a082019050818103600083015261398c818a61383a565b905081810360208301526139a181888a612b53565b90506139b060408301876121ab565b6139bd60608301866121ab565b81810360808301526139d0818486612b53565b905098975050505050505050565b7f6472617700000000000000000000000000000000000000000000000000000000600082015250565b6000613a1460048361237d565b9150613a1f826139de565b600482019050919050565b6000613a3582613a07565b9150819050919050565b6000613a4a8261205b565b9150613a558361205b565b9250828203905081811115613a6d57613a6c61270f565b5b92915050565b60005b83811015613a91578082015181840152602081019050613a76565b60008484015250505050565b6000613aa8826127de565b613ab2818561237d565b9350613ac2818560208601613a73565b80840191505092915050565b6000613ada8284613a9d565b915081905092915050565b7f4f776e61626c653a206e6577206f776e657220697320746865207a65726f206160008201527f6464726573730000000000000000000000000000000000000000000000000000602082015250565b6000613b416026836123d5565b9150613b4c82613ae5565b604082019050919050565b60006020820190508181036000830152613b7081613b34565b9050919050565b7f4f776e61626c653a2063616c6c6572206973206e6f7420746865206f776e6572600082015250565b6000613bad6020836123d5565b9150613bb882613b77565b602082019050919050565b60006020820190508181036000830152613bdc81613ba0565b9050919050565b7f5061757361626c653a2070617573656400000000000000000000000000000000600082015250565b6000613c196010836123d5565b9150613c2482613be3565b602082019050919050565b60006020820190508181036000830152613c4881613c0c565b9050919050565b7f5061757361626c653a206e6f7420706175736564000000000000000000000000600082015250565b6000613c856014836123d5565b9150613c9082613c4f565b602082019050919050565b60006020820190508181036000830152613cb481613c78565b905091905056fea2646970667358221220d9f9b9029777039559e33fd741153bf721761a65cb58a87b0e06667f441738a664736f6c63430008180033",
  "linkReferences": {},
  "deployedLinkReferences": {}
}