{
  "_format": "hh-sol-artifact-1",
  "contractName": "ChessWager",
  "sourceName": "contracts/ChessWager.sol",
  "abi": [
    {
      "inputs": [],
      "stateMutability": "nonpayable",
      "type": "constructor"
    },
    {
      "anonymous": false,
      "inputs": [
        {
          "indexed": false,
          "internalType": "string",
          "name": "message",
          "type": "string"
        },
        {
          "indexed": false,
          "internalType": "string",
          "name": "betId",
          "type": "string"
        },
        {
          "indexed": false,
          "internalType": "string",
          "name": "gameId",
          "type": "string"
        }
      ],
      "name": "BetPlacedStatus",
      "type": "event"
    },
    {
      "anonymous": false,
      "inputs": [
        {
          "indexed": true,
          "internalType": "address",
          "name": "previousOwner",
          "type": "address"
        },
        {
          "indexed": true,
          "internalType": "address",
          "name": "newOwner",
          "type": "address"
        }
      ],
      "name": "OwnershipTransferred",
      "type": "event"
    },
    {
      "anonymous": false,
      "inputs": [
        {
          "indexed": false,
          "internalType": "address",
          "name": "account",
          "type": "address"
        }
      ],
      "name": "Paused",
      "type": "event"
    },
    {
      "anonymous": false,
      "inputs": [
        {
          "indexed": false,
          "internalType": "string",
          "name": "betId",
          "type": "string"
        },
        {
          "indexed": false,
          "internalType": "string",
          "name": "gameId",
          "type": "string"
        },
        {
          "indexed": false,
          "internalType": "bool",
          "name": "didUser1Pay",
          "type": "bool"
        },
        {
          "indexed": false,
          "internalType": "bool",
          "name": "didUser2Pay",
          "type": "bool"
        },
        {
          "indexed": false,
          "internalType": "string",
          "name": "winningSide",
          "type": "string"
        }
      ],
      "name": "PayoutStatus",
      "type": "event"
    },
    {
      "anonymous": false,
      "inputs": [
        {
          "indexed": false,
          "internalType": "address",
          "name": "account",
          "type": "address"
        }
      ],
      "name": "Unpaused",
      "type": "event"
    },
    {
      "inputs": [
        {
          "internalType": "address",
          "name": "_user",
          "type": "address"
        }
      ],
      "name": "banUserByWalletAddress",
      "outputs": [],
      "stateMutability": "nonpayable",
      "type": "function"
    },
    {
      "inputs": [],
      "name": "owner",
      "outputs": [
        {
          "internalType": "address",
          "name": "",
          "type": "address"
        }
      ],
      "stateMutability": "view",
      "type": "function"
    },
    {
      "inputs": [],
      "name": "pause",
      "outputs": [],
      "stateMutability": "nonpayable",
      "type": "function"
    },
    {
      "inputs": [],
      "name": "paused",
      "outputs": [
        {
          "internalType": "bool",
          "name": "",
          "type": "bool"
        }
      ],
      "stateMutability": "view",
      "type": "function"
    },
    {
      "inputs": [
        {
          "internalType": "string",
          "name": "_gameId",
          "type": "string"
        },
        {
          "internalType": "string",
          "name": "winningSide",
          "type": "string"
        }
      ],
      "name": "payWinners",
      "outputs": [],
      "stateMutability": "payable",
      "type": "function"
    },
    {
      "inputs": [
        {
          "components": [
            {
              "internalType": "uint256",
              "name": "amount",
              "type": "uint256"
            },
            {
              "internalType": "string",
              "name": "betSide",
              "type": "string"
            },
            {
              "internalType": "string",
              "name": "user1Id",
              "type": "string"
            },
            {
              "internalType": "address payable",
              "name": "user1Metamask",
              "type": "address"
            },
            {
              "internalType": "string",
              "name": "user2Id",
              "type": "string"
            },
            {
              "internalType": "address payable",
              "name": "user2Metamask",
              "type": "address"
            },
            {
              "internalType": "uint256",
              "name": "multiplier",
              "type": "uint256"
            },
            {
              "internalType": "string",
              "name": "gameId",
              "type": "string"
            },
            {
              "internalType": "uint256",
              "name": "timestamp",
              "type": "uint256"
            }
          ],
          "internalType": "struct ChessWager.Bet",
          "name": "_bet",
          "type": "tuple"
        },
        {
          "internalType": "string",
          "name": "_betId",
          "type": "string"
        }
      ],
      "name": "placeBet",
      "outputs": [],
      "stateMutability": "payable",
      "type": "function"
    },
    {
      "inputs": [],
      "name": "renounceOwnership",
      "outputs": [],
      "stateMutability": "nonpayable",
      "type": "function"
    },
    {
      "inputs": [],
      "name": "totalWagered",
      "outputs": [
        {
          "internalType": "uint256",
          "name": "",
          "type": "uint256"
        }
      ],
      "stateMutability": "view",
      "type": "function"
    },
    {
      "inputs": [
        {
          "internalType": "address",
          "name": "newOwner",
          "type": "address"
        }
      ],
      "name": "transferOwnership",
      "outputs": [],
      "stateMutability": "nonpayable",
      "type": "function"
    },
    {
      "inputs": [
        {
          "internalType": "address",
          "name": "_user",
          "type": "address"
        }
      ],
      "name": "unbanUserByWalletAddress",
      "outputs": [],
      "stateMutability": "nonpayable",
      "type": "function"
    },
    {
      "inputs": [],
      "name": "unpause",
      "outputs": [],
      "stateMutability": "nonpayable",
      "type": "function"
    },
    {
      "inputs": [],
      "name": "viewChessWagerBalance",
      "outputs": [
        {
          "internalType": "uint256",
          "name": "",
          "type": "uint256"
        }
      ],
      "stateMutability": "view",
      "type": "function"
    },
    {
      "inputs": [],
      "name": "withdrawChessWagerBalance",
      "outputs": [],
      "stateMutability": "payable",
      "type": "function"
    }
  ],
  "bytecode": "0x60806040523480156200001157600080fd5b5062000032620000266200009b60201b60201c565b620000a360201b60201c565b60008060146101000a81548160ff02191690831515021790555033600a60006101000a81548173ffffffffffffffffffffffffffffffffffffffff021916908373ffffffffffffffffffffffffffffffffffffffff160217905550600060098190555062000167565b600033905090565b60008060009054906101000a900473ffffffffffffffffffffffffffffffffffffffff169050816000806101000a81548173ffffffffffffffffffffffffffffffffffffffff021916908373ffffffffffffffffffffffffffffffffffffffff1602179055508173ffffffffffffffffffffffffffffffffffffffff168173ffffffffffffffffffffffffffffffffffffffff167f8be0079c531659141344cd1fd0a4f28419497f9722a3daafe3b4186f6b6457e060405160405180910390a35050565b61452f80620001776000396000f3fe6080604052600436106100c25760003560e01c8063715018a61161007f5780638a14f12c116100595780638a14f12c146101da5780638da5cb5b14610205578063c2b630ca14610230578063f2fde38b1461024c576100c2565b8063715018a6146101835780638456cb591461019a5780638686a2dd146101b1576100c2565b8063137294b0146100c7578063216a6641146100f257806335f11837146100fc5780633f4ba83a146101185780635c975abb1461012f5780635f23c52b1461015a575b600080fd5b3480156100d357600080fd5b506100dc610275565b6040516100e991906124da565b60405180910390f35b6100fa610287565b005b61011660048036038101906101119190612589565b610304565b005b34801561012457600080fd5b5061012d61157a565b005b34801561013b57600080fd5b5061014461158c565b6040516101519190612620565b60405180910390f35b34801561016657600080fd5b50610181600480360381019061017c9190612699565b6115a2565b005b34801561018f57600080fd5b50610198611605565b005b3480156101a657600080fd5b506101af611619565b005b3480156101bd57600080fd5b506101d860048036038101906101d39190612699565b61162b565b005b3480156101e657600080fd5b506101ef61168e565b6040516101fc91906124da565b60405180910390f35b34801561021157600080fd5b5061021a611694565b60405161022791906126d5565b60405180910390f35b61024a600480360381019061024591906126f0565b6116bd565b005b34801561025857600080fd5b50610273600480360381019061026e9190612699565b61219c565b005b600061027f61221f565b600954905090565b61028f61221f565b600a60009054906101000a900473ffffffffffffffffffffffffffffffffffffffff1673ffffffffffffffffffffffffffffffffffffffff166108fc6009549081150290604051600060405180830381858888f193505050501580156102f9573d6000803e3d6000fd5b506000600981905550565b61030c61229d565b6000341161034f576040517f08c379a0000000000000000000000000000000000000000000000000000000008152600401610346906127ce565b60405180910390fd5b600115156004838360405161036592919061282d565b908152602001604051809103902060009054906101000a900460ff161515036103c3576040517f08c379a00000000000000000000000000000000000000000000000000000000081526004016103ba906128b8565b60405180910390fd5b8280608001906103d391906128e7565b6040516020016103e492919061282d565b6040516020818303038152906040528051906020012083806040019061040a91906128e7565b60405160200161041b92919061282d565b6040516020818303038152906040528051906020012003610471576040517f08c379a0000000000000000000000000000000000000000000000000000000008152600401610468906129bc565b60405180910390fd5b6127108360c0013511156104ba576040517f08c379a00000000000000000000000000000000000000000000000000000000081526004016104b190612a4e565b60405180910390fd5b60008360c0013511610501576040517f08c379a00000000000000000000000000000000000000000000000000000000081526004016104f890612ae0565b60405180910390fd5b600115156001848060e0019061051791906128e7565b60405161052592919061282d565b908152602001604051809103902060009054906101000a900460ff16151503610583576040517f08c379a000000000000000000000000000000000000000000000000000000000815260040161057a90612b4c565b60405180910390fd5b8260600160208101906105969190612baa565b73ffffffffffffffffffffffffffffffffffffffff163373ffffffffffffffffffffffffffffffffffffffff16148061060c57508260a00160208101906105dd9190612baa565b73ffffffffffffffffffffffffffffffffffffffff163373ffffffffffffffffffffffffffffffffffffffff16145b61064b576040517f08c379a000000000000000000000000000000000000000000000000000000000815260040161064290612c49565b60405180910390fd5b600015156005838360405161066192919061282d565b908152602001604051809103902060009054906101000a900460ff161515146106bf576040517f08c379a00000000000000000000000000000000000000000000000000000000081526004016106b690612cb5565b60405180910390fd5b6040516020016106ce90612d21565b604051602081830303815290604052805190602001208380602001906106f491906128e7565b60405160200161070592919061282d565b604051602081830303815290604052805190602001201480610780575060405160200161073190612d82565b6040516020818303038152906040528051906020012083806020019061075791906128e7565b60405160200161076892919061282d565b60405160208183030381529060405280519060200120145b6107bf576040517f08c379a00000000000000000000000000000000000000000000000000000000081526004016107b690612e09565b60405180910390fd5b34600b60008282546107d19190612e58565b925050819055506000600283836040516107ec92919061282d565b90815260200160405180910390206006015403610c585760006004838360405161081792919061282d565b908152602001604051809103902060006101000a81548160ff021916908315150217905550600760008460600160208101906108539190612baa565b73ffffffffffffffffffffffffffffffffffffffff1673ffffffffffffffffffffffffffffffffffffffff16815260200190815260200160002060009054906101000a900460ff161580156109045750600760008460a00160208101906108ba9190612baa565b73ffffffffffffffffffffffffffffffffffffffff1673ffffffffffffffffffffffffffffffffffffffff16815260200190815260200160002060009054906101000a900460ff16155b610943576040517f08c379a000000000000000000000000000000000000000000000000000000000815260040161093a90612efe565b60405180910390fd5b8260600160208101906109569190612baa565b73ffffffffffffffffffffffffffffffffffffffff163373ffffffffffffffffffffffffffffffffffffffff1603610a8157826000013534146109ce576040517f08c379a00000000000000000000000000000000000000000000000000000000081526004016109c590612f6a565b60405180910390fd5b6040518060400160405280600581526020017f757365723100000000000000000000000000000000000000000000000000000081525060068383604051610a1692919061282d565b90815260200160405180910390209081610a3091906131d0565b507f2704af9c38c87047a2c2bc9ac70641e30b504a3c5fee2796f80dbd745fd724658282858060e00190610a6491906128e7565b604051610a74949392919061332c565b60405180910390a1610b91565b3460648460c001358560000135610a98919061337a565b610aa291906133eb565b14610ae2576040517f08c379a0000000000000000000000000000000000000000000000000000000008152600401610ad990612f6a565b60405180910390fd5b6040518060400160405280600581526020017f757365723200000000000000000000000000000000000000000000000000000081525060068383604051610b2a92919061282d565b90815260200160405180910390209081610b4491906131d0565b507f2704af9c38c87047a2c2bc9ac70641e30b504a3c5fee2796f80dbd745fd724658282858060e00190610b7891906128e7565b604051610b889493929190613468565b60405180910390a15b3460038383604051610ba492919061282d565b9081526020016040518091039020819055506008838060e00190610bc891906128e7565b604051610bd692919061282d565b9081526020016040518091039020600001828290918060018154018082558091505060019003906000526020600020016000909192909192909192909192509182610c229291906134c1565b508260028383604051610c3692919061282d565b90815260200160405180910390208181610c50919061382d565b905050611575565b826000013560028383604051610c6f92919061282d565b90815260200160405180910390206000015414610cc1576040517f08c379a0000000000000000000000000000000000000000000000000000000008152600401610cb8906138ad565b60405180910390fd5b828060200190610cd191906128e7565b604051602001610ce292919061282d565b6040516020818303038152906040528051906020012060028383604051610d0a92919061282d565b9081526020016040518091039020600101604051602001610d2b9190613950565b6040516020818303038152906040528051906020012014610d81576040517f08c379a0000000000000000000000000000000000000000000000000000000008152600401610d78906139d9565b60405180910390fd5b828060400190610d9191906128e7565b604051602001610da292919061282d565b6040516020818303038152906040528051906020012060028383604051610dca92919061282d565b9081526020016040518091039020600201604051602001610deb9190613950565b6040516020818303038152906040528051906020012014610e41576040517f08c379a0000000000000000000000000000000000000000000000000000000008152600401610e3890613a6b565b60405180910390fd5b826060016020810190610e549190612baa565b73ffffffffffffffffffffffffffffffffffffffff1660028383604051610e7c92919061282d565b908152602001604051809103902060030160009054906101000a900473ffffffffffffffffffffffffffffffffffffffff1673ffffffffffffffffffffffffffffffffffffffff1614610f04576040517f08c379a0000000000000000000000000000000000000000000000000000000008152600401610efb90613afd565b60405180910390fd5b828060800190610f1491906128e7565b604051602001610f2592919061282d565b6040516020818303038152906040528051906020012060028383604051610f4d92919061282d565b9081526020016040518091039020600401604051602001610f6e9190613950565b6040516020818303038152906040528051906020012014610fc4576040517f08c379a0000000000000000000000000000000000000000000000000000000008152600401610fbb90613b8f565b60405180910390fd5b8260a0016020810190610fd79190612baa565b73ffffffffffffffffffffffffffffffffffffffff1660028383604051610fff92919061282d565b908152602001604051809103902060050160009054906101000a900473ffffffffffffffffffffffffffffffffffffffff1673ffffffffffffffffffffffffffffffffffffffff1614611087576040517f08c379a000000000000000000000000000000000000000000000000000000000815260040161107e90613c21565b60405180910390fd5b8260c001356002838360405161109e92919061282d565b908152602001604051809103902060060154146110f0576040517f08c379a00000000000000000000000000000000000000000000000000000000081526004016110e790613cb3565b60405180910390fd5b828060e0019061110091906128e7565b60405160200161111192919061282d565b604051602081830303815290604052805190602001206002838360405161113992919061282d565b908152602001604051809103902060070160405160200161115a9190613950565b60405160208183030381529060405280519060200120146111b0576040517f08c379a00000000000000000000000000000000000000000000000000000000081526004016111a790613d45565b60405180910390fd5b826101000135600283836040516111c892919061282d565b9081526020016040518091039020600801541461121a576040517f08c379a000000000000000000000000000000000000000000000000000000000815260040161121190613dd7565b60405180910390fd5b60405160200161122990613e43565b604051602081830303815290604052805190602001206006838360405161125192919061282d565b908152602001604051809103902060405160200161126f9190613950565b60405160208183030381529060405280519060200120036113d75782606001602081019061129d9190612baa565b73ffffffffffffffffffffffffffffffffffffffff163373ffffffffffffffffffffffffffffffffffffffff161461130a576040517f08c379a000000000000000000000000000000000000000000000000000000000815260040161130190613eca565b60405180910390fd5b82600001353414611350576040517f08c379a000000000000000000000000000000000000000000000000000000000815260040161134790612f6a565b60405180910390fd5b346003838360405161136392919061282d565b908152602001604051809103902060008282546113809190612e58565b925050819055507f2704af9c38c87047a2c2bc9ac70641e30b504a3c5fee2796f80dbd745fd724658282858060e001906113ba91906128e7565b6040516113ca949392919061332c565b60405180910390a161153b565b8260a00160208101906113ea9190612baa565b73ffffffffffffffffffffffffffffffffffffffff163373ffffffffffffffffffffffffffffffffffffffff1614611457576040517f08c379a000000000000000000000000000000000000000000000000000000000815260040161144e90613f5c565b60405180910390fd5b3460648460c00135856000013561146e919061337a565b61147891906133eb565b146114b8576040517f08c379a00000000000000000000000000000000000000000000000000000000081526004016114af90612f6a565b60405180910390fd5b34600383836040516114cb92919061282d565b908152602001604051809103902060008282546114e89190612e58565b925050819055507f2704af9c38c87047a2c2bc9ac70641e30b504a3c5fee2796f80dbd745fd724658282858060e0019061152291906128e7565b6040516115329493929190613468565b60405180910390a15b60016004838360405161154f92919061282d565b908152602001604051809103902060006101000a81548160ff0219169083151502179055505b505050565b61158261221f565b61158a6122e7565b565b60008060149054906101000a900460ff16905090565b6115aa61221f565b6000600760008373ffffffffffffffffffffffffffffffffffffffff1673ffffffffffffffffffffffffffffffffffffffff16815260200190815260200160002060006101000a81548160ff02191690831515021790555050565b61160d61221f565b6116176000612349565b565b61162161221f565b61162961240d565b565b61163361221f565b6001600760008373ffffffffffffffffffffffffffffffffffffffff1673ffffffffffffffffffffffffffffffffffffffff16815260200190815260200160002060006101000a81548160ff02191690831515021790555050565b600b5481565b60008060009054906101000a900473ffffffffffffffffffffffffffffffffffffffff16905090565b6116c561221f565b60011515600185856040516116db92919061282d565b908152602001604051809103902060009054906101000a900460ff16151503611739576040517f08c379a000000000000000000000000000000000000000000000000000000000815260040161173090613fc8565b60405180910390fd5b600180858560405161174c92919061282d565b908152602001604051809103902060006101000a81548160ff02191690831515021790555060005b6008858560405161178692919061282d565b9081526020016040518091039020600001805490508110156121955760006002600887876040516117b892919061282d565b908152602001604051809103902060000183815481106117db576117da613fe8565b5b906000526020600020016040516117f29190613950565b9081526020016040518091039020604051806101200160405290816000820154815260200160018201805461182690612ff3565b80601f016020809104026020016040519081016040528092919081815260200182805461185290612ff3565b801561189f5780601f106118745761010080835404028352916020019161189f565b820191906000526020600020905b81548152906001019060200180831161188257829003601f168201915b505050505081526020016002820180546118b890612ff3565b80601f01602080910402602001604051908101604052809291908181526020018280546118e490612ff3565b80156119315780601f1061190657610100808354040283529160200191611931565b820191906000526020600020905b81548152906001019060200180831161191457829003601f168201915b505050505081526020016003820160009054906101000a900473ffffffffffffffffffffffffffffffffffffffff1673ffffffffffffffffffffffffffffffffffffffff1673ffffffffffffffffffffffffffffffffffffffff1681526020016004820180546119a090612ff3565b80601f01602080910402602001604051908101604052809291908181526020018280546119cc90612ff3565b8015611a195780601f106119ee57610100808354040283529160200191611a19565b820191906000526020600020905b8154815290600101906020018083116119fc57829003601f168201915b505050505081526020016005820160009054906101000a900473ffffffffffffffffffffffffffffffffffffffff1673ffffffffffffffffffffffffffffffffffffffff1673ffffffffffffffffffffffffffffffffffffffff16815260200160068201548152602001600782018054611a9290612ff3565b80601f0160208091040260200160405190810160405280929190818152602001828054611abe90612ff3565b8015611b0b5780601f10611ae057610100808354040283529160200191611b0b565b820191906000526020600020905b815481529060010190602001808311611aee57829003601f168201915b5050505050815260200160088201548152505090506000600360088888604051611b3692919061282d565b90815260200160405180910390206000018481548110611b5957611b58613fe8565b5b90600052602060002001604051611b709190613950565b90815260200160405180910390205490506001600560088989604051611b9792919061282d565b90815260200160405180910390206000018581548110611bba57611bb9613fe8565b5b90600052602060002001604051611bd19190613950565b908152602001604051809103902060006101000a81548160ff02191690831515021790555060001515600460088989604051611c0e92919061282d565b90815260200160405180910390206000018581548110611c3157611c30613fe8565b5b90600052602060002001604051611c489190613950565b908152602001604051809103902060009054906101000a900460ff16151503611eb857604051602001611c7a90614063565b60405160208183030381529060405280519060200120600660088989604051611ca492919061282d565b90815260200160405180910390206000018581548110611cc757611cc6613fe8565b5b90600052602060002001604051611cde9190613950565b9081526020016040518091039020604051602001611cfc9190613950565b6040516020818303038152906040528051906020012003611de657816060015173ffffffffffffffffffffffffffffffffffffffff166108fc829081150290604051600060405180830381858888f19350505050158015611d61573d6000803e3d6000fd5b507fd678dde1764648a4e84bba067ec49227087849fd6f35a0beb13376e7ce509ea260088888604051611d9592919061282d565b90815260200160405180910390206000018481548110611db857611db7613fe8565b5b90600052602060002001888860016000604051611dd9959493929190614148565b60405180910390a1611eb1565b8160a0015173ffffffffffffffffffffffffffffffffffffffff166108fc829081150290604051600060405180830381858888f19350505050158015611e30573d6000803e3d6000fd5b507fd678dde1764648a4e84bba067ec49227087849fd6f35a0beb13376e7ce509ea260088888604051611e6492919061282d565b90815260200160405180910390206000018481548110611e8757611e86613fe8565b5b90600052602060002001888860006001604051611ea8959493929190614148565b60405180910390a15b5050612188565b7fd678dde1764648a4e84bba067ec49227087849fd6f35a0beb13376e7ce509ea260088888604051611eeb92919061282d565b90815260200160405180910390206000018481548110611f0e57611f0d613fe8565b5b9060005260206000200188886001808a8a604051611f3297969594939291906141b0565b60405180910390a1604051602001611f4990614268565b604051602081830303815290604052805190602001208585604051602001611f7292919061282d565b604051602081830303815290604052805190602001200361203f57600082600001519050826060015173ffffffffffffffffffffffffffffffffffffffff166108fc829081150290604051600060405180830381858888f19350505050158015611fe0573d6000803e3d6000fd5b508260a0015173ffffffffffffffffffffffffffffffffffffffff166108fc828461200b919061427d565b9081150290604051600060405180830381858888f19350505050158015612036573d6000803e3d6000fd5b50505050612188565b600060646002600984612052919061337a565b61205c91906133eb565b61206691906133eb565b9050806009600082825461207a9190612e58565b92505081905550808261208d919061427d565b915085856040516020016120a292919061282d565b6040516020818303038152906040528051906020012083602001516040516020016120cd919061430c565b604051602081830303815290604052805190602001200361213857826060015173ffffffffffffffffffffffffffffffffffffffff166108fc839081150290604051600060405180830381858888f19350505050158015612132573d6000803e3d6000fd5b50612184565b8260a0015173ffffffffffffffffffffffffffffffffffffffff166108fc839081150290604051600060405180830381858888f19350505050158015612182573d6000803e3d6000fd5b505b5050505b8080600101915050611774565b5050505050565b6121a461221f565b600073ffffffffffffffffffffffffffffffffffffffff168173ffffffffffffffffffffffffffffffffffffffff1603612213576040517f08c379a000000000000000000000000000000000000000000000000000000000815260040161220a90614395565b60405180910390fd5b61221c81612349565b50565b612227612470565b73ffffffffffffffffffffffffffffffffffffffff16612245611694565b73ffffffffffffffffffffffffffffffffffffffff161461229b576040517f08c379a000000000000000000000000000000000000000000000000000000000815260040161229290614401565b60405180910390fd5b565b6122a561158c565b156122e5576040517f08c379a00000000000000000000000000000000000000000000000000000000081526004016122dc9061446d565b60405180910390fd5b565b6122ef612478565b60008060146101000a81548160ff0219169083151502179055507f5db9ee0a495bf2e6ff9c91a7834c1ba4fdd244a5e8aa4e537bd38aeae4b073aa612332612470565b60405161233f91906126d5565b60405180910390a1565b60008060009054906101000a900473ffffffffffffffffffffffffffffffffffffffff169050816000806101000a81548173ffffffffffffffffffffffffffffffffffffffff021916908373ffffffffffffffffffffffffffffffffffffffff1602179055508173ffffffffffffffffffffffffffffffffffffffff168173ffffffffffffffffffffffffffffffffffffffff167f8be0079c531659141344cd1fd0a4f28419497f9722a3daafe3b4186f6b6457e060405160405180910390a35050565b61241561229d565b6001600060146101000a81548160ff0219169083151502179055507f62e78cea01bee320cd4e420270b5ea74000d11b0c9f74754ebdbfc544b05a258612459612470565b60405161246691906126d5565b60405180910390a1565b600033905090565b61248061158c565b6124bf576040517f08c379a00000000000000000000000000000000000000000000000000000000081526004016124b6906144d9565b60405180910390fd5b565b6000819050919050565b6124d4816124c1565b82525050565b60006020820190506124ef60008301846124cb565b92915050565b600080fd5b600080fd5b600080fd5b6000610120828403121561251b5761251a6124ff565b5b81905092915050565b600080fd5b600080fd5b600080fd5b60008083601f84011261254957612548612524565b5b8235905067ffffffffffffffff81111561256657612565612529565b5b6020830191508360018202830111156125825761258161252e565b5b9250929050565b6000806000604084860312156125a2576125a16124f5565b5b600084013567ffffffffffffffff8111156125c0576125bf6124fa565b5b6125cc86828701612504565b935050602084013567ffffffffffffffff8111156125ed576125ec6124fa565b5b6125f986828701612533565b92509250509250925092565b60008115159050919050565b61261a81612605565b82525050565b60006020820190506126356000830184612611565b92915050565b600073ffffffffffffffffffffffffffffffffffffffff82169050919050565b60006126668261263b565b9050919050565b6126768161265b565b811461268157600080fd5b50565b6000813590506126938161266d565b92915050565b6000602082840312156126af576126ae6124f5565b5b60006126bd84828501612684565b91505092915050565b6126cf8161265b565b82525050565b60006020820190506126ea60008301846126c6565b92915050565b6000806000806040858703121561270a576127096124f5565b5b600085013567ffffffffffffffff811115612728576127276124fa565b5b61273487828801612533565b9450945050602085013567ffffffffffffffff811115612757576127566124fa565b5b61276387828801612533565b925092505092959194509250565b600082825260208201905092915050565b7f416d6f756e74206d757374206265206d6f7265207468616e2030000000000000600082015250565b60006127b8601a83612771565b91506127c382612782565b602082019050919050565b600060208201905081810360008301526127e7816127ab565b9050919050565b600081905092915050565b82818337600083830152505050565b600061281483856127ee565b93506128218385846127f9565b82840190509392505050565b600061283a828486612808565b91508190509392505050565b7f4f6e6c7920322075736572732063616e20706172746963696170746520696e2060008201527f6120626574000000000000000000000000000000000000000000000000000000602082015250565b60006128a2602583612771565b91506128ad82612846565b604082019050919050565b600060208201905081810360008301526128d181612895565b9050919050565b600080fd5b600080fd5b600080fd5b60008083356001602003843603038112612904576129036128d8565b5b80840192508235915067ffffffffffffffff821115612926576129256128dd565b5b602083019250600182023603831315612942576129416128e2565b5b509250929050565b7f55736572203120616e64205573657220322063616e277420626520746865207360008201527f616d652075736572000000000000000000000000000000000000000000000000602082015250565b60006129a6602883612771565b91506129b18261294a565b604082019050919050565b600060208201905081810360008301526129d581612999565b9050919050565b7f4d756c7469706c6965722063616e2774206265206d6f7265207468616e20313060008201527f3000000000000000000000000000000000000000000000000000000000000000602082015250565b6000612a38602183612771565b9150612a43826129dc565b604082019050919050565b60006020820190508181036000830152612a6781612a2b565b9050919050565b7f4d756c7469706c696572206d7573742062652067726561746572207468616e2060008201527f3000000000000000000000000000000000000000000000000000000000000000602082015250565b6000612aca602183612771565b9150612ad582612a6e565b604082019050919050565b60006020820190508181036000830152612af981612abd565b9050919050565b7f47616d6520697320616c7265616479206f766572000000000000000000000000600082015250565b6000612b36601483612771565b9150612b4182612b00565b602082019050919050565b60006020820190508181036000830152612b6581612b29565b9050919050565b6000612b778261263b565b9050919050565b612b8781612b6c565b8114612b9257600080fd5b50565b600081359050612ba481612b7e565b92915050565b600060208284031215612bc057612bbf6124f5565b5b6000612bce84828501612b95565b91505092915050565b7f546865207573657227732077616c6c6574206164647265737320646f65736e2760008201527f7420657175616c20746865206164647265737320696e20746865206265740000602082015250565b6000612c33603e83612771565b9150612c3e82612bd7565b604082019050919050565b60006020820190508181036000830152612c6281612c26565b9050919050565b7f42657420697320616c726561647920636f6d706c657465000000000000000000600082015250565b6000612c9f601783612771565b9150612caa82612c69565b602082019050919050565b60006020820190508181036000830152612cce81612c92565b9050919050565b7f7768697465000000000000000000000000000000000000000000000000000000600082015250565b6000612d0b6005836127ee565b9150612d1682612cd5565b600582019050919050565b6000612d2c82612cfe565b9150819050919050565b7f626c61636b000000000000000000000000000000000000000000000000000000600082015250565b6000612d6c6005836127ee565b9150612d7782612d36565b600582019050919050565b6000612d8d82612d5f565b9150819050919050565b7f4265742073696465206d757374206f6e6c792062652027776869746527206f7260008201527f2027626c61636b27000000000000000000000000000000000000000000000000602082015250565b6000612df3602883612771565b9150612dfe82612d97565b604082019050919050565b60006020820190508181036000830152612e2281612de6565b9050919050565b7f4e487b7100000000000000000000000000000000000000000000000000000000600052601160045260246000fd5b6000612e63826124c1565b9150612e6e836124c1565b9250828201905080821115612e8657612e85612e29565b5b92915050565b7f4174206c65617374206f6e65207573657220696e20746869732077616765722060008201527f69732062616e6e65640000000000000000000000000000000000000000000000602082015250565b6000612ee8602983612771565b9150612ef382612e8c565b604082019050919050565b60006020820190508181036000830152612f1781612edb565b9050919050565b7f57726f6e6720616d6f756e742073656e74000000000000000000000000000000600082015250565b6000612f54601183612771565b9150612f5f82612f1e565b602082019050919050565b60006020820190508181036000830152612f8381612f47565b9050919050565b600081519050919050565b7f4e487b7100000000000000000000000000000000000000000000000000000000600052604160045260246000fd5b7f4e487b7100000000000000000000000000000000000000000000000000000000600052602260045260246000fd5b6000600282049050600182168061300b57607f821691505b60208210810361301e5761301d612fc4565b5b50919050565b60008190508160005260206000209050919050565b60006020601f8301049050919050565b600082821b905092915050565b6000600883026130867fffffffffffffffffffffffffffffffffffffffffffffffffffffffffffffffff82613049565b6130908683613049565b95508019841693508086168417925050509392505050565b6000819050919050565b60006130cd6130c86130c3846124c1565b6130a8565b6124c1565b9050919050565b6000819050919050565b6130e7836130b2565b6130fb6130f3826130d4565b848454613056565b825550505050565b600090565b613110613103565b61311b8184846130de565b505050565b5b8181101561313f57613134600082613108565b600181019050613121565b5050565b601f8211156131845761315581613024565b61315e84613039565b8101602085101561316d578190505b61318161317985613039565b830182613120565b50505b505050565b600082821c905092915050565b60006131a760001984600802613189565b1980831691505092915050565b60006131c08383613196565b9150826002028217905092915050565b6131d982612f8a565b67ffffffffffffffff8111156131f2576131f1612f95565b5b6131fc8254612ff3565b613207828285613143565b600060209050601f83116001811461323a5760008415613228578287015190505b61323285826131b4565b86555061329a565b601f19841661324886613024565b60005b828110156132705784890151825560018201915060208501945060208101905061324b565b8683101561328d5784890151613289601f891682613196565b8355505b6001600288020188555050505b505050505050565b7f7573657231206861732070616964000000000000000000000000000000000000600082015250565b60006132d8600e83612771565b91506132e3826132a2565b602082019050919050565b6000601f19601f8301169050919050565b600061330b8385612771565b93506133188385846127f9565b613321836132ee565b840190509392505050565b60006060820190508181036000830152613345816132cb565b9050818103602083015261335a8186886132ff565b9050818103604083015261336f8184866132ff565b905095945050505050565b6000613385826124c1565b9150613390836124c1565b925082820261339e816124c1565b915082820484148315176133b5576133b4612e29565b5b5092915050565b7f4e487b7100000000000000000000000000000000000000000000000000000000600052601260045260246000fd5b60006133f6826124c1565b9150613401836124c1565b925082613411576134106133bc565b5b828204905092915050565b7f7573657232206861732070616964000000000000000000000000000000000000600082015250565b6000613452600e83612771565b915061345d8261341c565b602082019050919050565b6000606082019050818103600083015261348181613445565b905081810360208301526134968186886132ff565b905081810360408301526134ab8184866132ff565b905095945050505050565b600082905092915050565b6134cb83836134b6565b67ffffffffffffffff8111156134e4576134e3612f95565b5b6134ee8254612ff3565b6134f9828285613143565b6000601f8311600181146135285760008415613516578287013590505b61352085826131b4565b865550613588565b601f19841661353686613024565b60005b8281101561355e57848901358255600182019150602085019450602081019050613539565b8683101561357b5784890135613577601f891682613196565b8355505b6001600288020188555050505b50505050505050565b61359a816124c1565b81146135a557600080fd5b50565b600081356135b581613591565b80915050919050565b60008160001b9050919050565b60007fffffffffffffffffffffffffffffffffffffffffffffffffffffffffffffffff6135f7846135be565b9350801983169250808416831791505092915050565b613616826130b2565b613629613622826130d4565b83546135cb565b8255505050565b61363b8383836134c1565b505050565b6000813561364d81612b7e565b80915050919050565b600073ffffffffffffffffffffffffffffffffffffffff613676846135be565b9350801983169250808416831791505092915050565b60006136a76136a261369d8461263b565b6130a8565b61263b565b9050919050565b60006136b98261368c565b9050919050565b60006136cb826136ae565b9050919050565b6000819050919050565b6136e5826136c0565b6136f86136f1826136d2565b8354613656565b8255505050565b600081016000830180613711816135a8565b905061371d818461360d565b505050600181016020830161373281856128e7565b61373d818386613630565b50505050600281016040830161375381856128e7565b61375e818386613630565b5050505060038101606083018061377481613640565b905061378081846136dc565b505050600481016080830161379581856128e7565b6137a0818386613630565b505050506005810160a08301806137b681613640565b90506137c281846136dc565b5050506006810160c08301806137d7816135a8565b90506137e3818461360d565b5050506007810160e083016137f881856128e7565b613803818386613630565b505050506008810161010083018061381a816135a8565b9050613826818461360d565b5050505050565b61383782826136ff565b5050565b7f557365722031206265742e616d6f756e7420646f65736e2774206d617463682060008201527f757365722032206265742e616d6f756e74000000000000000000000000000000602082015250565b6000613897603183612771565b91506138a28261383b565b604082019050919050565b600060208201905081810360008301526138c68161388a565b9050919050565b600081546138da81612ff3565b6138e481866127ee565b945060018216600081146138ff576001811461391457613947565b60ff1983168652811515820286019350613947565b61391d85613024565b60005b8381101561393f57815481890152600182019150602081019050613920565b838801955050505b50505092915050565b600061395c82846138cd565b915081905092915050565b7f557365722031206265742e6265745369646520646f65736e2774206d6174636860008201527f20757365722032206265742e6265745369646500000000000000000000000000602082015250565b60006139c3603383612771565b91506139ce82613967565b604082019050919050565b600060208201905081810360008301526139f2816139b6565b9050919050565b7f557365722031206265742e7573657231496420646f65736e2774206d6174636860008201527f20757365722032206265742e7573657231496400000000000000000000000000602082015250565b6000613a55603383612771565b9150613a60826139f9565b604082019050919050565b60006020820190508181036000830152613a8481613a48565b9050919050565b7f557365722031206265742e75736572314d6574616d61736b20646f65736e277460008201527f206d6174636820757365722032206265742e75736572314d6574616d61736b00602082015250565b6000613ae7603f83612771565b9150613af282613a8b565b604082019050919050565b60006020820190508181036000830152613b1681613ada565b9050919050565b7f557365722031206265742e7573657232496420646f65736e2774206d6174636860008201527f20757365722032206265742e7573657232496400000000000000000000000000602082015250565b6000613b79603383612771565b9150613b8482613b1d565b604082019050919050565b60006020820190508181036000830152613ba881613b6c565b9050919050565b7f557365722031206265742e75736572324d6574616d61736b20646f65736e277460008201527f206d6174636820757365722032206265742e75736572324d6574616d61736b00602082015250565b6000613c0b603f83612771565b9150613c1682613baf565b604082019050919050565b60006020820190508181036000830152613c3a81613bfe565b9050919050565b7f557365722031206265742e6d756c7469706c69657220646f65736e2774206d6160008201527f74636820757365722032206265742e6d756c7469706c69657200000000000000602082015250565b6000613c9d603983612771565b9150613ca882613c41565b604082019050919050565b60006020820190508181036000830152613ccc81613c90565b9050919050565b7f557365722031206265742e67616d65496420646f65736e2774206d617463682060008201527f757365722032206265742e67616d654964000000000000000000000000000000602082015250565b6000613d2f603183612771565b9150613d3a82613cd3565b604082019050919050565b60006020820190508181036000830152613d5e81613d22565b9050919050565b7f557365722031206265742e74696d657374616d7020646f65736e2774206d617460008201527f636820757365722032206265742e74696d657374616d70000000000000000000602082015250565b6000613dc1603783612771565b9150613dcc82613d65565b604082019050919050565b60006020820190508181036000830152613df081613db4565b9050919050565b7f7573657232000000000000000000000000000000000000000000000000000000600082015250565b6000613e2d6005836127ee565b9150613e3882613df7565b600582019050919050565b6000613e4e82613e20565b9150819050919050565b7f5573657220312077616c6c6574206164647265737320646f65736e2774206d6160008201527f7463682073656e64657220616464726573730000000000000000000000000000602082015250565b6000613eb4603283612771565b9150613ebf82613e58565b604082019050919050565b60006020820190508181036000830152613ee381613ea7565b9050919050565b7f5573657220322077616c6c6574206164647265737320646f65736e2774206d6160008201527f7463682073656e64657220616464726573730000000000000000000000000000602082015250565b6000613f46603283612771565b9150613f5182613eea565b604082019050919050565b60006020820190508181036000830152613f7581613f39565b9050919050565b7f47616d6520697320616c72656164792070616964000000000000000000000000600082015250565b6000613fb2601483612771565b9150613fbd82613f7c565b602082019050919050565b60006020820190508181036000830152613fe181613fa5565b9050919050565b7f4e487b7100000000000000000000000000000000000000000000000000000000600052603260045260246000fd5b7f7573657231000000000000000000000000000000000000000000000000000000600082015250565b600061404d6005836127ee565b915061405882614017565b600582019050919050565b600061406e82614040565b9150819050919050565b6000815461408581612ff3565b61408f8186612771565b945060018216600081146140aa57600181146140c0576140f3565b60ff1983168652811515602002860193506140f3565b6140c985613024565b60005b838110156140eb578154818901526001820191506020810190506140cc565b808801955050505b50505092915050565b7f6e6f6e6500000000000000000000000000000000000000000000000000000000600082015250565b6000614132600483612771565b915061413d826140fc565b602082019050919050565b600060a08201905081810360008301526141628188614078565b905081810360208301526141778186886132ff565b90506141866040830185612611565b6141936060830184612611565b81810360808301526141a481614125565b90509695505050505050565b600060a08201905081810360008301526141ca818a614078565b905081810360208301526141df81888a6132ff565b90506141ee6040830187612611565b6141fb6060830186612611565b818103608083015261420e8184866132ff565b905098975050505050505050565b7f6472617700000000000000000000000000000000000000000000000000000000600082015250565b60006142526004836127ee565b915061425d8261421c565b600482019050919050565b600061427382614245565b9150819050919050565b6000614288826124c1565b9150614293836124c1565b92508282039050818111156142ab576142aa612e29565b5b92915050565b60005b838110156142cf5780820151818401526020810190506142b4565b60008484015250505050565b60006142e682612f8a565b6142f081856127ee565b93506143008185602086016142b1565b80840191505092915050565b600061431882846142db565b915081905092915050565b7f4f776e61626c653a206e6577206f776e657220697320746865207a65726f206160008201527f6464726573730000000000000000000000000000000000000000000000000000602082015250565b600061437f602683612771565b915061438a82614323565b604082019050919050565b600060208201905081810360008301526143ae81614372565b9050919050565b7f4f776e61626c653a2063616c6c6572206973206e6f7420746865206f776e6572600082015250565b60006143eb602083612771565b91506143f6826143b5565b602082019050919050565b6000602082019050818103600083015261441a816143de565b9050919050565b7f5061757361626c653a2070617573656400000000000000000000000000000000600082015250565b6000614457601083612771565b915061446282614421565b602082019050919050565b600060208201905081810360008301526144868161444a565b9050919050565b7f5061757361626c653a206e6f7420706175736564000000000000000000000000600082015250565b60006144c3601483612771565b91506144ce8261448d565b602082019050919050565b600060208201905081810360008301526144f2816144b6565b905091905056fea2646970667358221220bab780cd96f84a93e6dee034ae0c18cadac7cc70275c501e5ca540178c2ac8dd64736f6c63430008180033",
  "linkReferences": {},
  "deployedLinkReferences": {}
}