{
  "_format": "hh-sol-artifact-1",
  "contractName": "ChessWager",
  "sourceName": "contracts/ChessWager.sol",
  "abi": [
    {
      "inputs": [],
      "stateMutability": "nonpayable",
      "type": "constructor"
    },
    {
      "anonymous": false,
      "inputs": [
        {
          "indexed": false,
          "internalType": "string",
          "name": "message",
          "type": "string"
        },
        {
          "indexed": false,
          "internalType": "string",
          "name": "betId",
          "type": "string"
        },
        {
          "indexed": false,
          "internalType": "string",
          "name": "gameId",
          "type": "string"
        }
      ],
      "name": "BetPlacedStatus",
      "type": "event"
    },
    {
      "anonymous": false,
      "inputs": [
        {
          "indexed": true,
          "internalType": "address",
          "name": "previousOwner",
          "type": "address"
        },
        {
          "indexed": true,
          "internalType": "address",
          "name": "newOwner",
          "type": "address"
        }
      ],
      "name": "OwnershipTransferred",
      "type": "event"
    },
    {
      "anonymous": false,
      "inputs": [
        {
          "indexed": false,
          "internalType": "address",
          "name": "account",
          "type": "address"
        }
      ],
      "name": "Paused",
      "type": "event"
    },
    {
      "anonymous": false,
      "inputs": [
        {
          "indexed": false,
          "internalType": "string",
          "name": "betId",
          "type": "string"
        },
        {
          "indexed": false,
          "internalType": "string",
          "name": "gameId",
          "type": "string"
        },
        {
          "indexed": false,
          "internalType": "bool",
          "name": "didUser1Pay",
          "type": "bool"
        },
        {
          "indexed": false,
          "internalType": "bool",
          "name": "didUser2Pay",
          "type": "bool"
        },
        {
          "indexed": false,
          "internalType": "string",
          "name": "winningSide",
          "type": "string"
        }
      ],
      "name": "PayoutStatus",
      "type": "event"
    },
    {
      "anonymous": false,
      "inputs": [
        {
          "indexed": false,
          "internalType": "address",
          "name": "account",
          "type": "address"
        }
      ],
      "name": "Unpaused",
      "type": "event"
    },
    {
      "inputs": [
        {
          "internalType": "address[]",
          "name": "_users",
          "type": "address[]"
        }
      ],
      "name": "banMultipleUsersByWalletAddress",
      "outputs": [],
      "stateMutability": "nonpayable",
      "type": "function"
    },
    {
      "inputs": [
        {
          "internalType": "address",
          "name": "_user",
          "type": "address"
        }
      ],
      "name": "banUserByWalletAddress",
      "outputs": [],
      "stateMutability": "nonpayable",
      "type": "function"
    },
    {
      "inputs": [],
      "name": "owner",
      "outputs": [
        {
          "internalType": "address",
          "name": "",
          "type": "address"
        }
      ],
      "stateMutability": "view",
      "type": "function"
    },
    {
      "inputs": [],
      "name": "pause",
      "outputs": [],
      "stateMutability": "nonpayable",
      "type": "function"
    },
    {
      "inputs": [],
      "name": "paused",
      "outputs": [
        {
          "internalType": "bool",
          "name": "",
          "type": "bool"
        }
      ],
      "stateMutability": "view",
      "type": "function"
    },
    {
      "inputs": [
        {
          "internalType": "string",
          "name": "_gameId",
          "type": "string"
        },
        {
          "internalType": "string",
          "name": "winningSide",
          "type": "string"
        }
      ],
      "name": "payWinners",
      "outputs": [],
      "stateMutability": "payable",
      "type": "function"
    },
    {
      "inputs": [
        {
          "components": [
            {
              "internalType": "uint256",
              "name": "amount",
              "type": "uint256"
            },
            {
              "internalType": "string",
              "name": "betSide",
              "type": "string"
            },
            {
              "internalType": "string",
              "name": "user1Id",
              "type": "string"
            },
            {
              "internalType": "address payable",
              "name": "user1Metamask",
              "type": "address"
            },
            {
              "internalType": "string",
              "name": "user2Id",
              "type": "string"
            },
            {
              "internalType": "address payable",
              "name": "user2Metamask",
              "type": "address"
            },
            {
              "internalType": "uint256",
              "name": "multiplier",
              "type": "uint256"
            },
            {
              "internalType": "string",
              "name": "gameId",
              "type": "string"
            },
            {
              "internalType": "uint256",
              "name": "timestamp",
              "type": "uint256"
            }
          ],
          "internalType": "struct ChessWager.Bet",
          "name": "_bet",
          "type": "tuple"
        },
        {
          "internalType": "string",
          "name": "_betId",
          "type": "string"
        }
      ],
      "name": "placeBet",
      "outputs": [],
      "stateMutability": "payable",
      "type": "function"
    },
    {
      "inputs": [],
      "name": "renounceOwnership",
      "outputs": [],
      "stateMutability": "nonpayable",
      "type": "function"
    },
    {
      "inputs": [],
      "name": "totalWagered",
      "outputs": [
        {
          "internalType": "uint256",
          "name": "",
          "type": "uint256"
        }
      ],
      "stateMutability": "view",
      "type": "function"
    },
    {
      "inputs": [
        {
          "internalType": "address",
          "name": "newOwner",
          "type": "address"
        }
      ],
      "name": "transferOwnership",
      "outputs": [],
      "stateMutability": "nonpayable",
      "type": "function"
    },
    {
      "inputs": [
        {
          "internalType": "address",
          "name": "_user",
          "type": "address"
        }
      ],
      "name": "unbanUserByWalletAddress",
      "outputs": [],
      "stateMutability": "nonpayable",
      "type": "function"
    },
    {
      "inputs": [],
      "name": "unpause",
      "outputs": [],
      "stateMutability": "nonpayable",
      "type": "function"
    },
    {
      "inputs": [],
      "name": "viewChessWagerBalance",
      "outputs": [
        {
          "internalType": "uint256",
          "name": "",
          "type": "uint256"
        }
      ],
      "stateMutability": "view",
      "type": "function"
    },
    {
      "inputs": [],
      "name": "withdrawChessWagerBalance",
      "outputs": [],
      "stateMutability": "payable",
      "type": "function"
    }
  ],
  "bytecode": "0x60806040523480156200001157600080fd5b5062000032620000266200009b60201b60201c565b620000a360201b60201c565b60008060146101000a81548160ff02191690831515021790555033600a60006101000a81548173ffffffffffffffffffffffffffffffffffffffff021916908373ffffffffffffffffffffffffffffffffffffffff160217905550600060098190555062000167565b600033905090565b60008060009054906101000a900473ffffffffffffffffffffffffffffffffffffffff169050816000806101000a81548173ffffffffffffffffffffffffffffffffffffffff021916908373ffffffffffffffffffffffffffffffffffffffff1602179055508173ffffffffffffffffffffffffffffffffffffffff168173ffffffffffffffffffffffffffffffffffffffff167f8be0079c531659141344cd1fd0a4f28419497f9722a3daafe3b4186f6b6457e060405160405180910390a35050565b6146bd80620001776000396000f3fe6080604052600436106100dd5760003560e01c8063715018a61161007f5780638a14f12c116100595780638a14f12c1461021e5780638da5cb5b14610249578063c2b630ca14610274578063f2fde38b14610290576100dd565b8063715018a6146101c75780638456cb59146101de5780638686a2dd146101f5576100dd565b806339e023b8116100bb57806339e023b8146101335780633f4ba83a1461015c5780635c975abb146101735780635f23c52b1461019e576100dd565b8063137294b0146100e2578063216a66411461010d57806335f1183714610117575b600080fd5b3480156100ee57600080fd5b506100f76102b9565b60405161010491906125c5565b60405180910390f35b6101156102cb565b005b610131600480360381019061012c9190612674565b610348565b005b34801561013f57600080fd5b5061015a60048036038101906101559190612746565b6115be565b005b34801561016857600080fd5b50610171611665565b005b34801561017f57600080fd5b50610188611677565b60405161019591906127ae565b60405180910390f35b3480156101aa57600080fd5b506101c560048036038101906101c09190612827565b61168d565b005b3480156101d357600080fd5b506101dc6116f0565b005b3480156101ea57600080fd5b506101f3611704565b005b34801561020157600080fd5b5061021c60048036038101906102179190612827565b611716565b005b34801561022a57600080fd5b50610233611779565b60405161024091906125c5565b60405180910390f35b34801561025557600080fd5b5061025e61177f565b60405161026b9190612863565b60405180910390f35b61028e6004803603810190610289919061287e565b6117a8565b005b34801561029c57600080fd5b506102b760048036038101906102b29190612827565b612287565b005b60006102c361230a565b600954905090565b6102d361230a565b600a60009054906101000a900473ffffffffffffffffffffffffffffffffffffffff1673ffffffffffffffffffffffffffffffffffffffff166108fc6009549081150290604051600060405180830381858888f1935050505015801561033d573d6000803e3d6000fd5b506000600981905550565b610350612388565b60003411610393576040517f08c379a000000000000000000000000000000000000000000000000000000000815260040161038a9061295c565b60405180910390fd5b60011515600483836040516103a99291906129bb565b908152602001604051809103902060009054906101000a900460ff16151503610407576040517f08c379a00000000000000000000000000000000000000000000000000000000081526004016103fe90612a46565b60405180910390fd5b8280608001906104179190612a75565b6040516020016104289291906129bb565b6040516020818303038152906040528051906020012083806040019061044e9190612a75565b60405160200161045f9291906129bb565b60405160208183030381529060405280519060200120036104b5576040517f08c379a00000000000000000000000000000000000000000000000000000000081526004016104ac90612b4a565b60405180910390fd5b6127108360c0013511156104fe576040517f08c379a00000000000000000000000000000000000000000000000000000000081526004016104f590612bdc565b60405180910390fd5b60008360c0013511610545576040517f08c379a000000000000000000000000000000000000000000000000000000000815260040161053c90612c6e565b60405180910390fd5b600115156001848060e0019061055b9190612a75565b6040516105699291906129bb565b908152602001604051809103902060009054906101000a900460ff161515036105c7576040517f08c379a00000000000000000000000000000000000000000000000000000000081526004016105be90612cda565b60405180910390fd5b8260600160208101906105da9190612d38565b73ffffffffffffffffffffffffffffffffffffffff163373ffffffffffffffffffffffffffffffffffffffff16148061065057508260a00160208101906106219190612d38565b73ffffffffffffffffffffffffffffffffffffffff163373ffffffffffffffffffffffffffffffffffffffff16145b61068f576040517f08c379a000000000000000000000000000000000000000000000000000000000815260040161068690612dd7565b60405180910390fd5b60001515600583836040516106a59291906129bb565b908152602001604051809103902060009054906101000a900460ff16151514610703576040517f08c379a00000000000000000000000000000000000000000000000000000000081526004016106fa90612e43565b60405180910390fd5b60405160200161071290612eaf565b604051602081830303815290604052805190602001208380602001906107389190612a75565b6040516020016107499291906129bb565b6040516020818303038152906040528051906020012014806107c4575060405160200161077590612f10565b6040516020818303038152906040528051906020012083806020019061079b9190612a75565b6040516020016107ac9291906129bb565b60405160208183030381529060405280519060200120145b610803576040517f08c379a00000000000000000000000000000000000000000000000000000000081526004016107fa90612f97565b60405180910390fd5b34600b60008282546108159190612fe6565b925050819055506000600283836040516108309291906129bb565b90815260200160405180910390206006015403610c9c5760006004838360405161085b9291906129bb565b908152602001604051809103902060006101000a81548160ff021916908315150217905550600760008460600160208101906108979190612d38565b73ffffffffffffffffffffffffffffffffffffffff1673ffffffffffffffffffffffffffffffffffffffff16815260200190815260200160002060009054906101000a900460ff161580156109485750600760008460a00160208101906108fe9190612d38565b73ffffffffffffffffffffffffffffffffffffffff1673ffffffffffffffffffffffffffffffffffffffff16815260200190815260200160002060009054906101000a900460ff16155b610987576040517f08c379a000000000000000000000000000000000000000000000000000000000815260040161097e9061308c565b60405180910390fd5b82606001602081019061099a9190612d38565b73ffffffffffffffffffffffffffffffffffffffff163373ffffffffffffffffffffffffffffffffffffffff1603610ac55782600001353414610a12576040517f08c379a0000000000000000000000000000000000000000000000000000000008152600401610a09906130f8565b60405180910390fd5b6040518060400160405280600581526020017f757365723100000000000000000000000000000000000000000000000000000081525060068383604051610a5a9291906129bb565b90815260200160405180910390209081610a74919061335e565b507f2704af9c38c87047a2c2bc9ac70641e30b504a3c5fee2796f80dbd745fd724658282858060e00190610aa89190612a75565b604051610ab894939291906134ba565b60405180910390a1610bd5565b3460648460c001358560000135610adc9190613508565b610ae69190613579565b14610b26576040517f08c379a0000000000000000000000000000000000000000000000000000000008152600401610b1d906130f8565b60405180910390fd5b6040518060400160405280600581526020017f757365723200000000000000000000000000000000000000000000000000000081525060068383604051610b6e9291906129bb565b90815260200160405180910390209081610b88919061335e565b507f2704af9c38c87047a2c2bc9ac70641e30b504a3c5fee2796f80dbd745fd724658282858060e00190610bbc9190612a75565b604051610bcc94939291906135f6565b60405180910390a15b3460038383604051610be89291906129bb565b9081526020016040518091039020819055506008838060e00190610c0c9190612a75565b604051610c1a9291906129bb565b9081526020016040518091039020600001828290918060018154018082558091505060019003906000526020600020016000909192909192909192909192509182610c6692919061364f565b508260028383604051610c7a9291906129bb565b90815260200160405180910390208181610c9491906139bb565b9050506115b9565b826000013560028383604051610cb39291906129bb565b90815260200160405180910390206000015414610d05576040517f08c379a0000000000000000000000000000000000000000000000000000000008152600401610cfc90613a3b565b60405180910390fd5b828060200190610d159190612a75565b604051602001610d269291906129bb565b6040516020818303038152906040528051906020012060028383604051610d4e9291906129bb565b9081526020016040518091039020600101604051602001610d6f9190613ade565b6040516020818303038152906040528051906020012014610dc5576040517f08c379a0000000000000000000000000000000000000000000000000000000008152600401610dbc90613b67565b60405180910390fd5b828060400190610dd59190612a75565b604051602001610de69291906129bb565b6040516020818303038152906040528051906020012060028383604051610e0e9291906129bb565b9081526020016040518091039020600201604051602001610e2f9190613ade565b6040516020818303038152906040528051906020012014610e85576040517f08c379a0000000000000000000000000000000000000000000000000000000008152600401610e7c90613bf9565b60405180910390fd5b826060016020810190610e989190612d38565b73ffffffffffffffffffffffffffffffffffffffff1660028383604051610ec09291906129bb565b908152602001604051809103902060030160009054906101000a900473ffffffffffffffffffffffffffffffffffffffff1673ffffffffffffffffffffffffffffffffffffffff1614610f48576040517f08c379a0000000000000000000000000000000000000000000000000000000008152600401610f3f90613c8b565b60405180910390fd5b828060800190610f589190612a75565b604051602001610f699291906129bb565b6040516020818303038152906040528051906020012060028383604051610f919291906129bb565b9081526020016040518091039020600401604051602001610fb29190613ade565b6040516020818303038152906040528051906020012014611008576040517f08c379a0000000000000000000000000000000000000000000000000000000008152600401610fff90613d1d565b60405180910390fd5b8260a001602081019061101b9190612d38565b73ffffffffffffffffffffffffffffffffffffffff16600283836040516110439291906129bb565b908152602001604051809103902060050160009054906101000a900473ffffffffffffffffffffffffffffffffffffffff1673ffffffffffffffffffffffffffffffffffffffff16146110cb576040517f08c379a00000000000000000000000000000000000000000000000000000000081526004016110c290613daf565b60405180910390fd5b8260c00135600283836040516110e29291906129bb565b90815260200160405180910390206006015414611134576040517f08c379a000000000000000000000000000000000000000000000000000000000815260040161112b90613e41565b60405180910390fd5b828060e001906111449190612a75565b6040516020016111559291906129bb565b604051602081830303815290604052805190602001206002838360405161117d9291906129bb565b908152602001604051809103902060070160405160200161119e9190613ade565b60405160208183030381529060405280519060200120146111f4576040517f08c379a00000000000000000000000000000000000000000000000000000000081526004016111eb90613ed3565b60405180910390fd5b8261010001356002838360405161120c9291906129bb565b9081526020016040518091039020600801541461125e576040517f08c379a000000000000000000000000000000000000000000000000000000000815260040161125590613f65565b60405180910390fd5b60405160200161126d90613fd1565b60405160208183030381529060405280519060200120600683836040516112959291906129bb565b90815260200160405180910390206040516020016112b39190613ade565b604051602081830303815290604052805190602001200361141b578260600160208101906112e19190612d38565b73ffffffffffffffffffffffffffffffffffffffff163373ffffffffffffffffffffffffffffffffffffffff161461134e576040517f08c379a000000000000000000000000000000000000000000000000000000000815260040161134590614058565b60405180910390fd5b82600001353414611394576040517f08c379a000000000000000000000000000000000000000000000000000000000815260040161138b906130f8565b60405180910390fd5b34600383836040516113a79291906129bb565b908152602001604051809103902060008282546113c49190612fe6565b925050819055507f2704af9c38c87047a2c2bc9ac70641e30b504a3c5fee2796f80dbd745fd724658282858060e001906113fe9190612a75565b60405161140e94939291906134ba565b60405180910390a161157f565b8260a001602081019061142e9190612d38565b73ffffffffffffffffffffffffffffffffffffffff163373ffffffffffffffffffffffffffffffffffffffff161461149b576040517f08c379a0000000000000000000000000000000000000000000000000000000008152600401611492906140ea565b60405180910390fd5b3460648460c0013585600001356114b29190613508565b6114bc9190613579565b146114fc576040517f08c379a00000000000000000000000000000000000000000000000000000000081526004016114f3906130f8565b60405180910390fd5b346003838360405161150f9291906129bb565b9081526020016040518091039020600082825461152c9190612fe6565b925050819055507f2704af9c38c87047a2c2bc9ac70641e30b504a3c5fee2796f80dbd745fd724658282858060e001906115669190612a75565b60405161157694939291906135f6565b60405180910390a15b6001600483836040516115939291906129bb565b908152602001604051809103902060006101000a81548160ff0219169083151502179055505b505050565b6115c661230a565b60005b82829050811015611660576001600760008585858181106115ed576115ec61410a565b5b90506020020160208101906116029190612827565b73ffffffffffffffffffffffffffffffffffffffff1673ffffffffffffffffffffffffffffffffffffffff16815260200190815260200160002060006101000a81548160ff02191690831515021790555080806001019150506115c9565b505050565b61166d61230a565b6116756123d2565b565b60008060149054906101000a900460ff16905090565b61169561230a565b6000600760008373ffffffffffffffffffffffffffffffffffffffff1673ffffffffffffffffffffffffffffffffffffffff16815260200190815260200160002060006101000a81548160ff02191690831515021790555050565b6116f861230a565b6117026000612434565b565b61170c61230a565b6117146124f8565b565b61171e61230a565b6001600760008373ffffffffffffffffffffffffffffffffffffffff1673ffffffffffffffffffffffffffffffffffffffff16815260200190815260200160002060006101000a81548160ff02191690831515021790555050565b600b5481565b60008060009054906101000a900473ffffffffffffffffffffffffffffffffffffffff16905090565b6117b061230a565b60011515600185856040516117c69291906129bb565b908152602001604051809103902060009054906101000a900460ff16151503611824576040517f08c379a000000000000000000000000000000000000000000000000000000000815260040161181b90614185565b60405180910390fd5b60018085856040516118379291906129bb565b908152602001604051809103902060006101000a81548160ff02191690831515021790555060005b600885856040516118719291906129bb565b9081526020016040518091039020600001805490508110156122805760006002600887876040516118a39291906129bb565b908152602001604051809103902060000183815481106118c6576118c561410a565b5b906000526020600020016040516118dd9190613ade565b9081526020016040518091039020604051806101200160405290816000820154815260200160018201805461191190613181565b80601f016020809104026020016040519081016040528092919081815260200182805461193d90613181565b801561198a5780601f1061195f5761010080835404028352916020019161198a565b820191906000526020600020905b81548152906001019060200180831161196d57829003601f168201915b505050505081526020016002820180546119a390613181565b80601f01602080910402602001604051908101604052809291908181526020018280546119cf90613181565b8015611a1c5780601f106119f157610100808354040283529160200191611a1c565b820191906000526020600020905b8154815290600101906020018083116119ff57829003601f168201915b505050505081526020016003820160009054906101000a900473ffffffffffffffffffffffffffffffffffffffff1673ffffffffffffffffffffffffffffffffffffffff1673ffffffffffffffffffffffffffffffffffffffff168152602001600482018054611a8b90613181565b80601f0160208091040260200160405190810160405280929190818152602001828054611ab790613181565b8015611b045780601f10611ad957610100808354040283529160200191611b04565b820191906000526020600020905b815481529060010190602001808311611ae757829003601f168201915b505050505081526020016005820160009054906101000a900473ffffffffffffffffffffffffffffffffffffffff1673ffffffffffffffffffffffffffffffffffffffff1673ffffffffffffffffffffffffffffffffffffffff16815260200160068201548152602001600782018054611b7d90613181565b80601f0160208091040260200160405190810160405280929190818152602001828054611ba990613181565b8015611bf65780601f10611bcb57610100808354040283529160200191611bf6565b820191906000526020600020905b815481529060010190602001808311611bd957829003601f168201915b5050505050815260200160088201548152505090506000600360088888604051611c219291906129bb565b90815260200160405180910390206000018481548110611c4457611c4361410a565b5b90600052602060002001604051611c5b9190613ade565b90815260200160405180910390205490506001600560088989604051611c829291906129bb565b90815260200160405180910390206000018581548110611ca557611ca461410a565b5b90600052602060002001604051611cbc9190613ade565b908152602001604051809103902060006101000a81548160ff02191690831515021790555060001515600460088989604051611cf99291906129bb565b90815260200160405180910390206000018581548110611d1c57611d1b61410a565b5b90600052602060002001604051611d339190613ade565b908152602001604051809103902060009054906101000a900460ff16151503611fa357604051602001611d65906141f1565b60405160208183030381529060405280519060200120600660088989604051611d8f9291906129bb565b90815260200160405180910390206000018581548110611db257611db161410a565b5b90600052602060002001604051611dc99190613ade565b9081526020016040518091039020604051602001611de79190613ade565b6040516020818303038152906040528051906020012003611ed157816060015173ffffffffffffffffffffffffffffffffffffffff166108fc829081150290604051600060405180830381858888f19350505050158015611e4c573d6000803e3d6000fd5b507fd678dde1764648a4e84bba067ec49227087849fd6f35a0beb13376e7ce509ea260088888604051611e809291906129bb565b90815260200160405180910390206000018481548110611ea357611ea261410a565b5b90600052602060002001888860016000604051611ec49594939291906142d6565b60405180910390a1611f9c565b8160a0015173ffffffffffffffffffffffffffffffffffffffff166108fc829081150290604051600060405180830381858888f19350505050158015611f1b573d6000803e3d6000fd5b507fd678dde1764648a4e84bba067ec49227087849fd6f35a0beb13376e7ce509ea260088888604051611f4f9291906129bb565b90815260200160405180910390206000018481548110611f7257611f7161410a565b5b90600052602060002001888860006001604051611f939594939291906142d6565b60405180910390a15b5050612273565b7fd678dde1764648a4e84bba067ec49227087849fd6f35a0beb13376e7ce509ea260088888604051611fd69291906129bb565b90815260200160405180910390206000018481548110611ff957611ff861410a565b5b9060005260206000200188886001808a8a60405161201d979695949392919061433e565b60405180910390a1604051602001612034906143f6565b60405160208183030381529060405280519060200120858560405160200161205d9291906129bb565b604051602081830303815290604052805190602001200361212a57600082600001519050826060015173ffffffffffffffffffffffffffffffffffffffff166108fc829081150290604051600060405180830381858888f193505050501580156120cb573d6000803e3d6000fd5b508260a0015173ffffffffffffffffffffffffffffffffffffffff166108fc82846120f6919061440b565b9081150290604051600060405180830381858888f19350505050158015612121573d6000803e3d6000fd5b50505050612273565b60006064600260098461213d9190613508565b6121479190613579565b6121519190613579565b905080600960008282546121659190612fe6565b925050819055508082612178919061440b565b9150858560405160200161218d9291906129bb565b6040516020818303038152906040528051906020012083602001516040516020016121b8919061449a565b604051602081830303815290604052805190602001200361222357826060015173ffffffffffffffffffffffffffffffffffffffff166108fc839081150290604051600060405180830381858888f1935050505015801561221d573d6000803e3d6000fd5b5061226f565b8260a0015173ffffffffffffffffffffffffffffffffffffffff166108fc839081150290604051600060405180830381858888f1935050505015801561226d573d6000803e3d6000fd5b505b5050505b808060010191505061185f565b5050505050565b61228f61230a565b600073ffffffffffffffffffffffffffffffffffffffff168173ffffffffffffffffffffffffffffffffffffffff16036122fe576040517f08c379a00000000000000000000000000000000000000000000000000000000081526004016122f590614523565b60405180910390fd5b61230781612434565b50565b61231261255b565b73ffffffffffffffffffffffffffffffffffffffff1661233061177f565b73ffffffffffffffffffffffffffffffffffffffff1614612386576040517f08c379a000000000000000000000000000000000000000000000000000000000815260040161237d9061458f565b60405180910390fd5b565b612390611677565b156123d0576040517f08c379a00000000000000000000000000000000000000000000000000000000081526004016123c7906145fb565b60405180910390fd5b565b6123da612563565b60008060146101000a81548160ff0219169083151502179055507f5db9ee0a495bf2e6ff9c91a7834c1ba4fdd244a5e8aa4e537bd38aeae4b073aa61241d61255b565b60405161242a9190612863565b60405180910390a1565b60008060009054906101000a900473ffffffffffffffffffffffffffffffffffffffff169050816000806101000a81548173ffffffffffffffffffffffffffffffffffffffff021916908373ffffffffffffffffffffffffffffffffffffffff1602179055508173ffffffffffffffffffffffffffffffffffffffff168173ffffffffffffffffffffffffffffffffffffffff167f8be0079c531659141344cd1fd0a4f28419497f9722a3daafe3b4186f6b6457e060405160405180910390a35050565b612500612388565b6001600060146101000a81548160ff0219169083151502179055507f62e78cea01bee320cd4e420270b5ea74000d11b0c9f74754ebdbfc544b05a25861254461255b565b6040516125519190612863565b60405180910390a1565b600033905090565b61256b611677565b6125aa576040517f08c379a00000000000000000000000000000000000000000000000000000000081526004016125a190614667565b60405180910390fd5b565b6000819050919050565b6125bf816125ac565b82525050565b60006020820190506125da60008301846125b6565b92915050565b600080fd5b600080fd5b600080fd5b60006101208284031215612606576126056125ea565b5b81905092915050565b600080fd5b600080fd5b600080fd5b60008083601f8401126126345761263361260f565b5b8235905067ffffffffffffffff81111561265157612650612614565b5b60208301915083600182028301111561266d5761266c612619565b5b9250929050565b60008060006040848603121561268d5761268c6125e0565b5b600084013567ffffffffffffffff8111156126ab576126aa6125e5565b5b6126b7868287016125ef565b935050602084013567ffffffffffffffff8111156126d8576126d76125e5565b5b6126e48682870161261e565b92509250509250925092565b60008083601f8401126127065761270561260f565b5b8235905067ffffffffffffffff81111561272357612722612614565b5b60208301915083602082028301111561273f5761273e612619565b5b9250929050565b6000806020838503121561275d5761275c6125e0565b5b600083013567ffffffffffffffff81111561277b5761277a6125e5565b5b612787858286016126f0565b92509250509250929050565b60008115159050919050565b6127a881612793565b82525050565b60006020820190506127c3600083018461279f565b92915050565b600073ffffffffffffffffffffffffffffffffffffffff82169050919050565b60006127f4826127c9565b9050919050565b612804816127e9565b811461280f57600080fd5b50565b600081359050612821816127fb565b92915050565b60006020828403121561283d5761283c6125e0565b5b600061284b84828501612812565b91505092915050565b61285d816127e9565b82525050565b60006020820190506128786000830184612854565b92915050565b60008060008060408587031215612898576128976125e0565b5b600085013567ffffffffffffffff8111156128b6576128b56125e5565b5b6128c28782880161261e565b9450945050602085013567ffffffffffffffff8111156128e5576128e46125e5565b5b6128f18782880161261e565b925092505092959194509250565b600082825260208201905092915050565b7f416d6f756e74206d757374206265206d6f7265207468616e2030000000000000600082015250565b6000612946601a836128ff565b915061295182612910565b602082019050919050565b6000602082019050818103600083015261297581612939565b9050919050565b600081905092915050565b82818337600083830152505050565b60006129a2838561297c565b93506129af838584612987565b82840190509392505050565b60006129c8828486612996565b91508190509392505050565b7f4f6e6c7920322075736572732063616e20706172746963696170746520696e2060008201527f6120626574000000000000000000000000000000000000000000000000000000602082015250565b6000612a306025836128ff565b9150612a3b826129d4565b604082019050919050565b60006020820190508181036000830152612a5f81612a23565b9050919050565b600080fd5b600080fd5b600080fd5b60008083356001602003843603038112612a9257612a91612a66565b5b80840192508235915067ffffffffffffffff821115612ab457612ab3612a6b565b5b602083019250600182023603831315612ad057612acf612a70565b5b509250929050565b7f55736572203120616e64205573657220322063616e277420626520746865207360008201527f616d652075736572000000000000000000000000000000000000000000000000602082015250565b6000612b346028836128ff565b9150612b3f82612ad8565b604082019050919050565b60006020820190508181036000830152612b6381612b27565b9050919050565b7f4d756c7469706c6965722063616e2774206265206d6f7265207468616e20313060008201527f3000000000000000000000000000000000000000000000000000000000000000602082015250565b6000612bc66021836128ff565b9150612bd182612b6a565b604082019050919050565b60006020820190508181036000830152612bf581612bb9565b9050919050565b7f4d756c7469706c696572206d7573742062652067726561746572207468616e2060008201527f3000000000000000000000000000000000000000000000000000000000000000602082015250565b6000612c586021836128ff565b9150612c6382612bfc565b604082019050919050565b60006020820190508181036000830152612c8781612c4b565b9050919050565b7f47616d6520697320616c7265616479206f766572000000000000000000000000600082015250565b6000612cc46014836128ff565b9150612ccf82612c8e565b602082019050919050565b60006020820190508181036000830152612cf381612cb7565b9050919050565b6000612d05826127c9565b9050919050565b612d1581612cfa565b8114612d2057600080fd5b50565b600081359050612d3281612d0c565b92915050565b600060208284031215612d4e57612d4d6125e0565b5b6000612d5c84828501612d23565b91505092915050565b7f546865207573657227732077616c6c6574206164647265737320646f65736e2760008201527f7420657175616c20746865206164647265737320696e20746865206265740000602082015250565b6000612dc1603e836128ff565b9150612dcc82612d65565b604082019050919050565b60006020820190508181036000830152612df081612db4565b9050919050565b7f42657420697320616c726561647920636f6d706c657465000000000000000000600082015250565b6000612e2d6017836128ff565b9150612e3882612df7565b602082019050919050565b60006020820190508181036000830152612e5c81612e20565b9050919050565b7f7768697465000000000000000000000000000000000000000000000000000000600082015250565b6000612e9960058361297c565b9150612ea482612e63565b600582019050919050565b6000612eba82612e8c565b9150819050919050565b7f626c61636b000000000000000000000000000000000000000000000000000000600082015250565b6000612efa60058361297c565b9150612f0582612ec4565b600582019050919050565b6000612f1b82612eed565b9150819050919050565b7f4265742073696465206d757374206f6e6c792062652027776869746527206f7260008201527f2027626c61636b27000000000000000000000000000000000000000000000000602082015250565b6000612f816028836128ff565b9150612f8c82612f25565b604082019050919050565b60006020820190508181036000830152612fb081612f74565b9050919050565b7f4e487b7100000000000000000000000000000000000000000000000000000000600052601160045260246000fd5b6000612ff1826125ac565b9150612ffc836125ac565b925082820190508082111561301457613013612fb7565b5b92915050565b7f4174206c65617374206f6e65207573657220696e20746869732077616765722060008201527f69732062616e6e65640000000000000000000000000000000000000000000000602082015250565b60006130766029836128ff565b91506130818261301a565b604082019050919050565b600060208201905081810360008301526130a581613069565b9050919050565b7f57726f6e6720616d6f756e742073656e74000000000000000000000000000000600082015250565b60006130e26011836128ff565b91506130ed826130ac565b602082019050919050565b60006020820190508181036000830152613111816130d5565b9050919050565b600081519050919050565b7f4e487b7100000000000000000000000000000000000000000000000000000000600052604160045260246000fd5b7f4e487b7100000000000000000000000000000000000000000000000000000000600052602260045260246000fd5b6000600282049050600182168061319957607f821691505b6020821081036131ac576131ab613152565b5b50919050565b60008190508160005260206000209050919050565b60006020601f8301049050919050565b600082821b905092915050565b6000600883026132147fffffffffffffffffffffffffffffffffffffffffffffffffffffffffffffffff826131d7565b61321e86836131d7565b95508019841693508086168417925050509392505050565b6000819050919050565b600061325b613256613251846125ac565b613236565b6125ac565b9050919050565b6000819050919050565b61327583613240565b61328961328182613262565b8484546131e4565b825550505050565b600090565b61329e613291565b6132a981848461326c565b505050565b5b818110156132cd576132c2600082613296565b6001810190506132af565b5050565b601f821115613312576132e3816131b2565b6132ec846131c7565b810160208510156132fb578190505b61330f613307856131c7565b8301826132ae565b50505b505050565b600082821c905092915050565b600061333560001984600802613317565b1980831691505092915050565b600061334e8383613324565b9150826002028217905092915050565b61336782613118565b67ffffffffffffffff8111156133805761337f613123565b5b61338a8254613181565b6133958282856132d1565b600060209050601f8311600181146133c857600084156133b6578287015190505b6133c08582613342565b865550613428565b601f1984166133d6866131b2565b60005b828110156133fe578489015182556001820191506020850194506020810190506133d9565b8683101561341b5784890151613417601f891682613324565b8355505b6001600288020188555050505b505050505050565b7f7573657231206861732070616964000000000000000000000000000000000000600082015250565b6000613466600e836128ff565b915061347182613430565b602082019050919050565b6000601f19601f8301169050919050565b600061349983856128ff565b93506134a6838584612987565b6134af8361347c565b840190509392505050565b600060608201905081810360008301526134d381613459565b905081810360208301526134e881868861348d565b905081810360408301526134fd81848661348d565b905095945050505050565b6000613513826125ac565b915061351e836125ac565b925082820261352c816125ac565b9150828204841483151761354357613542612fb7565b5b5092915050565b7f4e487b7100000000000000000000000000000000000000000000000000000000600052601260045260246000fd5b6000613584826125ac565b915061358f836125ac565b92508261359f5761359e61354a565b5b828204905092915050565b7f7573657232206861732070616964000000000000000000000000000000000000600082015250565b60006135e0600e836128ff565b91506135eb826135aa565b602082019050919050565b6000606082019050818103600083015261360f816135d3565b9050818103602083015261362481868861348d565b9050818103604083015261363981848661348d565b905095945050505050565b600082905092915050565b6136598383613644565b67ffffffffffffffff81111561367257613671613123565b5b61367c8254613181565b6136878282856132d1565b6000601f8311600181146136b657600084156136a4578287013590505b6136ae8582613342565b865550613716565b601f1984166136c4866131b2565b60005b828110156136ec578489013582556001820191506020850194506020810190506136c7565b868310156137095784890135613705601f891682613324565b8355505b6001600288020188555050505b50505050505050565b613728816125ac565b811461373357600080fd5b50565b600081356137438161371f565b80915050919050565b60008160001b9050919050565b60007fffffffffffffffffffffffffffffffffffffffffffffffffffffffffffffffff6137858461374c565b9350801983169250808416831791505092915050565b6137a482613240565b6137b76137b082613262565b8354613759565b8255505050565b6137c983838361364f565b505050565b600081356137db81612d0c565b80915050919050565b600073ffffffffffffffffffffffffffffffffffffffff6138048461374c565b9350801983169250808416831791505092915050565b600061383561383061382b846127c9565b613236565b6127c9565b9050919050565b60006138478261381a565b9050919050565b60006138598261383c565b9050919050565b6000819050919050565b6138738261384e565b61388661387f82613860565b83546137e4565b8255505050565b60008101600083018061389f81613736565b90506138ab818461379b565b50505060018101602083016138c08185612a75565b6138cb8183866137be565b5050505060028101604083016138e18185612a75565b6138ec8183866137be565b50505050600381016060830180613902816137ce565b905061390e818461386a565b50505060048101608083016139238185612a75565b61392e8183866137be565b505050506005810160a0830180613944816137ce565b9050613950818461386a565b5050506006810160c083018061396581613736565b9050613971818461379b565b5050506007810160e083016139868185612a75565b6139918183866137be565b50505050600881016101008301806139a881613736565b90506139b4818461379b565b5050505050565b6139c5828261388d565b5050565b7f557365722031206265742e616d6f756e7420646f65736e2774206d617463682060008201527f757365722032206265742e616d6f756e74000000000000000000000000000000602082015250565b6000613a256031836128ff565b9150613a30826139c9565b604082019050919050565b60006020820190508181036000830152613a5481613a18565b9050919050565b60008154613a6881613181565b613a72818661297c565b94506001821660008114613a8d5760018114613aa257613ad5565b60ff1983168652811515820286019350613ad5565b613aab856131b2565b60005b83811015613acd57815481890152600182019150602081019050613aae565b838801955050505b50505092915050565b6000613aea8284613a5b565b915081905092915050565b7f557365722031206265742e6265745369646520646f65736e2774206d6174636860008201527f20757365722032206265742e6265745369646500000000000000000000000000602082015250565b6000613b516033836128ff565b9150613b5c82613af5565b604082019050919050565b60006020820190508181036000830152613b8081613b44565b9050919050565b7f557365722031206265742e7573657231496420646f65736e2774206d6174636860008201527f20757365722032206265742e7573657231496400000000000000000000000000602082015250565b6000613be36033836128ff565b9150613bee82613b87565b604082019050919050565b60006020820190508181036000830152613c1281613bd6565b9050919050565b7f557365722031206265742e75736572314d6574616d61736b20646f65736e277460008201527f206d6174636820757365722032206265742e75736572314d6574616d61736b00602082015250565b6000613c75603f836128ff565b9150613c8082613c19565b604082019050919050565b60006020820190508181036000830152613ca481613c68565b9050919050565b7f557365722031206265742e7573657232496420646f65736e2774206d6174636860008201527f20757365722032206265742e7573657232496400000000000000000000000000602082015250565b6000613d076033836128ff565b9150613d1282613cab565b604082019050919050565b60006020820190508181036000830152613d3681613cfa565b9050919050565b7f557365722031206265742e75736572324d6574616d61736b20646f65736e277460008201527f206d6174636820757365722032206265742e75736572324d6574616d61736b00602082015250565b6000613d99603f836128ff565b9150613da482613d3d565b604082019050919050565b60006020820190508181036000830152613dc881613d8c565b9050919050565b7f557365722031206265742e6d756c7469706c69657220646f65736e2774206d6160008201527f74636820757365722032206265742e6d756c7469706c69657200000000000000602082015250565b6000613e2b6039836128ff565b9150613e3682613dcf565b604082019050919050565b60006020820190508181036000830152613e5a81613e1e565b9050919050565b7f557365722031206265742e67616d65496420646f65736e2774206d617463682060008201527f757365722032206265742e67616d654964000000000000000000000000000000602082015250565b6000613ebd6031836128ff565b9150613ec882613e61565b604082019050919050565b60006020820190508181036000830152613eec81613eb0565b9050919050565b7f557365722031206265742e74696d657374616d7020646f65736e2774206d617460008201527f636820757365722032206265742e74696d657374616d70000000000000000000602082015250565b6000613f4f6037836128ff565b9150613f5a82613ef3565b604082019050919050565b60006020820190508181036000830152613f7e81613f42565b9050919050565b7f7573657232000000000000000000000000000000000000000000000000000000600082015250565b6000613fbb60058361297c565b9150613fc682613f85565b600582019050919050565b6000613fdc82613fae565b9150819050919050565b7f5573657220312077616c6c6574206164647265737320646f65736e2774206d6160008201527f7463682073656e64657220616464726573730000000000000000000000000000602082015250565b60006140426032836128ff565b915061404d82613fe6565b604082019050919050565b6000602082019050818103600083015261407181614035565b9050919050565b7f5573657220322077616c6c6574206164647265737320646f65736e2774206d6160008201527f7463682073656e64657220616464726573730000000000000000000000000000602082015250565b60006140d46032836128ff565b91506140df82614078565b604082019050919050565b60006020820190508181036000830152614103816140c7565b9050919050565b7f4e487b7100000000000000000000000000000000000000000000000000000000600052603260045260246000fd5b7f47616d6520697320616c72656164792070616964000000000000000000000000600082015250565b600061416f6014836128ff565b915061417a82614139565b602082019050919050565b6000602082019050818103600083015261419e81614162565b9050919050565b7f7573657231000000000000000000000000000000000000000000000000000000600082015250565b60006141db60058361297c565b91506141e6826141a5565b600582019050919050565b60006141fc826141ce565b9150819050919050565b6000815461421381613181565b61421d81866128ff565b94506001821660008114614238576001811461424e57614281565b60ff198316865281151560200286019350614281565b614257856131b2565b60005b838110156142795781548189015260018201915060208101905061425a565b808801955050505b50505092915050565b7f6e6f6e6500000000000000000000000000000000000000000000000000000000600082015250565b60006142c06004836128ff565b91506142cb8261428a565b602082019050919050565b600060a08201905081810360008301526142f08188614206565b9050818103602083015261430581868861348d565b9050614314604083018561279f565b614321606083018461279f565b8181036080830152614332816142b3565b90509695505050505050565b600060a0820190508181036000830152614358818a614206565b9050818103602083015261436d81888a61348d565b905061437c604083018761279f565b614389606083018661279f565b818103608083015261439c81848661348d565b905098975050505050505050565b7f6472617700000000000000000000000000000000000000000000000000000000600082015250565b60006143e060048361297c565b91506143eb826143aa565b600482019050919050565b6000614401826143d3565b9150819050919050565b6000614416826125ac565b9150614421836125ac565b925082820390508181111561443957614438612fb7565b5b92915050565b60005b8381101561445d578082015181840152602081019050614442565b60008484015250505050565b600061447482613118565b61447e818561297c565b935061448e81856020860161443f565b80840191505092915050565b60006144a68284614469565b915081905092915050565b7f4f776e61626c653a206e6577206f776e657220697320746865207a65726f206160008201527f6464726573730000000000000000000000000000000000000000000000000000602082015250565b600061450d6026836128ff565b9150614518826144b1565b604082019050919050565b6000602082019050818103600083015261453c81614500565b9050919050565b7f4f776e61626c653a2063616c6c6572206973206e6f7420746865206f776e6572600082015250565b60006145796020836128ff565b915061458482614543565b602082019050919050565b600060208201905081810360008301526145a88161456c565b9050919050565b7f5061757361626c653a2070617573656400000000000000000000000000000000600082015250565b60006145e56010836128ff565b91506145f0826145af565b602082019050919050565b60006020820190508181036000830152614614816145d8565b9050919050565b7f5061757361626c653a206e6f7420706175736564000000000000000000000000600082015250565b60006146516014836128ff565b915061465c8261461b565b602082019050919050565b6000602082019050818103600083015261468081614644565b905091905056fea26469706673582212206e6ee2bf854fa58e987cde7bd41c3dec02849c1eec6cf32a643685a7e603602d64736f6c63430008180033",
  "linkReferences": {},
  "deployedLinkReferences": {}
}