{
  "_format": "hh-sol-artifact-1",
  "contractName": "ChessWager",
  "sourceName": "contracts/ChessWager.sol",
  "abi": [
    {
      "inputs": [],
      "stateMutability": "nonpayable",
      "type": "constructor"
    },
    {
      "anonymous": false,
      "inputs": [
        {
          "indexed": false,
          "internalType": "string",
          "name": "message",
          "type": "string"
        },
        {
          "indexed": false,
          "internalType": "string",
          "name": "betId",
          "type": "string"
        },
        {
          "indexed": false,
          "internalType": "string",
          "name": "gameId",
          "type": "string"
        }
      ],
      "name": "BetPlacedStatus",
      "type": "event"
    },
    {
      "anonymous": false,
      "inputs": [
        {
          "indexed": true,
          "internalType": "address",
          "name": "previousOwner",
          "type": "address"
        },
        {
          "indexed": true,
          "internalType": "address",
          "name": "newOwner",
          "type": "address"
        }
      ],
      "name": "OwnershipTransferred",
      "type": "event"
    },
    {
      "anonymous": false,
      "inputs": [
        {
          "indexed": false,
          "internalType": "address",
          "name": "account",
          "type": "address"
        }
      ],
      "name": "Paused",
      "type": "event"
    },
    {
      "anonymous": false,
      "inputs": [
        {
          "indexed": false,
          "internalType": "string",
          "name": "betId",
          "type": "string"
        },
        {
          "indexed": false,
          "internalType": "string",
          "name": "gameId",
          "type": "string"
        },
        {
          "indexed": false,
          "internalType": "bool",
          "name": "didUser1Pay",
          "type": "bool"
        },
        {
          "indexed": false,
          "internalType": "bool",
          "name": "didUser2Pay",
          "type": "bool"
        },
        {
          "indexed": false,
          "internalType": "string",
          "name": "winningSide",
          "type": "string"
        }
      ],
      "name": "PayoutStatus",
      "type": "event"
    },
    {
      "anonymous": false,
      "inputs": [
        {
          "indexed": false,
          "internalType": "address",
          "name": "account",
          "type": "address"
        }
      ],
      "name": "Unpaused",
      "type": "event"
    },
    {
      "inputs": [
        {
          "internalType": "address[]",
          "name": "_users",
          "type": "address[]"
        }
      ],
      "name": "banMultipleUsersByWalletAddress",
      "outputs": [],
      "stateMutability": "nonpayable",
      "type": "function"
    },
    {
      "inputs": [
        {
          "internalType": "address",
          "name": "_user",
          "type": "address"
        }
      ],
      "name": "banUserByWalletAddress",
      "outputs": [],
      "stateMutability": "nonpayable",
      "type": "function"
    },
    {
      "inputs": [],
      "name": "owner",
      "outputs": [
        {
          "internalType": "address",
          "name": "",
          "type": "address"
        }
      ],
      "stateMutability": "view",
      "type": "function"
    },
    {
      "inputs": [],
      "name": "pause",
      "outputs": [],
      "stateMutability": "nonpayable",
      "type": "function"
    },
    {
      "inputs": [],
      "name": "paused",
      "outputs": [
        {
          "internalType": "bool",
          "name": "",
          "type": "bool"
        }
      ],
      "stateMutability": "view",
      "type": "function"
    },
    {
      "inputs": [
        {
          "internalType": "string",
          "name": "_gameId",
          "type": "string"
        },
        {
          "internalType": "string",
          "name": "winningSide",
          "type": "string"
        }
      ],
      "name": "payWinners",
      "outputs": [],
      "stateMutability": "payable",
      "type": "function"
    },
    {
      "inputs": [
        {
          "components": [
            {
              "internalType": "uint256",
              "name": "amount",
              "type": "uint256"
            },
            {
              "internalType": "string",
              "name": "betSide",
              "type": "string"
            },
            {
              "internalType": "string",
              "name": "user1Id",
              "type": "string"
            },
            {
              "internalType": "address payable",
              "name": "user1Metamask",
              "type": "address"
            },
            {
              "internalType": "string",
              "name": "user2Id",
              "type": "string"
            },
            {
              "internalType": "address payable",
              "name": "user2Metamask",
              "type": "address"
            },
            {
              "internalType": "uint256",
              "name": "multiplier",
              "type": "uint256"
            },
            {
              "internalType": "string",
              "name": "gameId",
              "type": "string"
            },
            {
              "internalType": "uint256",
              "name": "timestamp",
              "type": "uint256"
            }
          ],
          "internalType": "struct ChessWager.Bet",
          "name": "_bet",
          "type": "tuple"
        },
        {
          "internalType": "string",
          "name": "_betId",
          "type": "string"
        }
      ],
      "name": "placeBet",
      "outputs": [],
      "stateMutability": "payable",
      "type": "function"
    },
    {
      "inputs": [],
      "name": "renounceOwnership",
      "outputs": [],
      "stateMutability": "nonpayable",
      "type": "function"
    },
    {
      "inputs": [],
      "name": "totalWagered",
      "outputs": [
        {
          "internalType": "uint256",
          "name": "",
          "type": "uint256"
        }
      ],
      "stateMutability": "view",
      "type": "function"
    },
    {
      "inputs": [
        {
          "internalType": "address",
          "name": "newOwner",
          "type": "address"
        }
      ],
      "name": "transferOwnership",
      "outputs": [],
      "stateMutability": "nonpayable",
      "type": "function"
    },
    {
      "inputs": [
        {
          "internalType": "address",
          "name": "_user",
          "type": "address"
        }
      ],
      "name": "unbanUserByWalletAddress",
      "outputs": [],
      "stateMutability": "nonpayable",
      "type": "function"
    },
    {
      "inputs": [],
      "name": "unpause",
      "outputs": [],
      "stateMutability": "nonpayable",
      "type": "function"
    },
    {
      "inputs": [],
      "name": "viewChessWagerBalance",
      "outputs": [
        {
          "internalType": "uint256",
          "name": "",
          "type": "uint256"
        }
      ],
      "stateMutability": "view",
      "type": "function"
    },
    {
      "inputs": [],
      "name": "withdrawChessWagerBalance",
      "outputs": [],
      "stateMutability": "payable",
      "type": "function"
    }
  ],
  "bytecode": "0x60806040523480156200001157600080fd5b5062000032620000266200009b60201b60201c565b620000a360201b60201c565b60008060146101000a81548160ff02191690831515021790555033600a60006101000a81548173ffffffffffffffffffffffffffffffffffffffff021916908373ffffffffffffffffffffffffffffffffffffffff160217905550600060098190555062000167565b600033905090565b60008060009054906101000a900473ffffffffffffffffffffffffffffffffffffffff169050816000806101000a81548173ffffffffffffffffffffffffffffffffffffffff021916908373ffffffffffffffffffffffffffffffffffffffff1602179055508173ffffffffffffffffffffffffffffffffffffffff168173ffffffffffffffffffffffffffffffffffffffff167f8be0079c531659141344cd1fd0a4f28419497f9722a3daafe3b4186f6b6457e060405160405180910390a35050565b61487380620001776000396000f3fe6080604052600436106100dd5760003560e01c8063715018a61161007f5780638a14f12c116100595780638a14f12c1461021e5780638da5cb5b14610249578063c2b630ca14610274578063f2fde38b14610290576100dd565b8063715018a6146101c75780638456cb59146101de5780638686a2dd146101f5576100dd565b806339e023b8116100bb57806339e023b8146101335780633f4ba83a1461015c5780635c975abb146101735780635f23c52b1461019e576100dd565b8063137294b0146100e2578063216a66411461010d57806335f1183714610117575b600080fd5b3480156100ee57600080fd5b506100f76102b9565b60405161010491906126a3565b60405180910390f35b6101156102cb565b005b610131600480360381019061012c9190612752565b610348565b005b34801561013f57600080fd5b5061015a60048036038101906101559190612824565b61169c565b005b34801561016857600080fd5b50610171611743565b005b34801561017f57600080fd5b50610188611755565b604051610195919061288c565b60405180910390f35b3480156101aa57600080fd5b506101c560048036038101906101c09190612905565b61176b565b005b3480156101d357600080fd5b506101dc6117ce565b005b3480156101ea57600080fd5b506101f36117e2565b005b34801561020157600080fd5b5061021c60048036038101906102179190612905565b6117f4565b005b34801561022a57600080fd5b50610233611857565b60405161024091906126a3565b60405180910390f35b34801561025557600080fd5b5061025e61185d565b60405161026b9190612941565b60405180910390f35b61028e6004803603810190610289919061295c565b611886565b005b34801561029c57600080fd5b506102b760048036038101906102b29190612905565b612365565b005b60006102c36123e8565b600954905090565b6102d36123e8565b600a60009054906101000a900473ffffffffffffffffffffffffffffffffffffffff1673ffffffffffffffffffffffffffffffffffffffff166108fc6009549081150290604051600060405180830381858888f1935050505015801561033d573d6000803e3d6000fd5b506000600981905550565b610350612466565b60003411610393576040517f08c379a000000000000000000000000000000000000000000000000000000000815260040161038a90612a3a565b60405180910390fd5b60011515600483836040516103a9929190612a99565b908152602001604051809103902060009054906101000a900460ff16151503610407576040517f08c379a00000000000000000000000000000000000000000000000000000000081526004016103fe90612b24565b60405180910390fd5b8280608001906104179190612b53565b604051602001610428929190612a99565b6040516020818303038152906040528051906020012083806040019061044e9190612b53565b60405160200161045f929190612a99565b60405160208183030381529060405280519060200120036104b5576040517f08c379a00000000000000000000000000000000000000000000000000000000081526004016104ac90612c28565b60405180910390fd5b6127108360c0013511156104fe576040517f08c379a00000000000000000000000000000000000000000000000000000000081526004016104f590612cba565b60405180910390fd5b60008360c0013511610545576040517f08c379a000000000000000000000000000000000000000000000000000000000815260040161053c90612d4c565b60405180910390fd5b600115156001848060e0019061055b9190612b53565b604051610569929190612a99565b908152602001604051809103902060009054906101000a900460ff161515036105c7576040517f08c379a00000000000000000000000000000000000000000000000000000000081526004016105be90612db8565b60405180910390fd5b8260600160208101906105da9190612e16565b73ffffffffffffffffffffffffffffffffffffffff163373ffffffffffffffffffffffffffffffffffffffff16148061065057508260a00160208101906106219190612e16565b73ffffffffffffffffffffffffffffffffffffffff163373ffffffffffffffffffffffffffffffffffffffff16145b61068f576040517f08c379a000000000000000000000000000000000000000000000000000000000815260040161068690612eb5565b60405180910390fd5b60001515600583836040516106a5929190612a99565b908152602001604051809103902060009054906101000a900460ff16151514610703576040517f08c379a00000000000000000000000000000000000000000000000000000000081526004016106fa90612f21565b60405180910390fd5b60405160200161071290612f8d565b604051602081830303815290604052805190602001208380602001906107389190612b53565b604051602001610749929190612a99565b6040516020818303038152906040528051906020012014806107c4575060405160200161077590612fee565b6040516020818303038152906040528051906020012083806020019061079b9190612b53565b6040516020016107ac929190612a99565b60405160208183030381529060405280519060200120145b610803576040517f08c379a00000000000000000000000000000000000000000000000000000000081526004016107fa90613075565b60405180910390fd5b600060028383604051610817929190612a99565b90815260200160405180910390206006015403610cf257600060068383604051610842929190612a99565b9081526020016040518091039020805461085b906130c4565b90501461089d576040517f08c379a000000000000000000000000000000000000000000000000000000000815260040161089490613141565b60405180910390fd5b6000600483836040516108b1929190612a99565b908152602001604051809103902060006101000a81548160ff021916908315150217905550600760008460600160208101906108ed9190612e16565b73ffffffffffffffffffffffffffffffffffffffff1673ffffffffffffffffffffffffffffffffffffffff16815260200190815260200160002060009054906101000a900460ff1615801561099e5750600760008460a00160208101906109549190612e16565b73ffffffffffffffffffffffffffffffffffffffff1673ffffffffffffffffffffffffffffffffffffffff16815260200190815260200160002060009054906101000a900460ff16155b6109dd576040517f08c379a00000000000000000000000000000000000000000000000000000000081526004016109d4906131d3565b60405180910390fd5b8260600160208101906109f09190612e16565b73ffffffffffffffffffffffffffffffffffffffff163373ffffffffffffffffffffffffffffffffffffffff1603610b1b5782600001353414610a68576040517f08c379a0000000000000000000000000000000000000000000000000000000008152600401610a5f9061323f565b60405180910390fd5b6040518060400160405280600581526020017f757365723100000000000000000000000000000000000000000000000000000081525060068383604051610ab0929190612a99565b90815260200160405180910390209081610aca9190613445565b507f2704af9c38c87047a2c2bc9ac70641e30b504a3c5fee2796f80dbd745fd724658282858060e00190610afe9190612b53565b604051610b0e94939291906135a1565b60405180910390a1610c2b565b3460648460c001358560000135610b32919061361e565b610b3c919061368f565b14610b7c576040517f08c379a0000000000000000000000000000000000000000000000000000000008152600401610b739061323f565b60405180910390fd5b6040518060400160405280600581526020017f757365723200000000000000000000000000000000000000000000000000000081525060068383604051610bc4929190612a99565b90815260200160405180910390209081610bde9190613445565b507f2704af9c38c87047a2c2bc9ac70641e30b504a3c5fee2796f80dbd745fd724658282858060e00190610c129190612b53565b604051610c22949392919061370c565b60405180910390a15b3460038383604051610c3e929190612a99565b9081526020016040518091039020819055506008838060e00190610c629190612b53565b604051610c70929190612a99565b9081526020016040518091039020600001828290918060018154018082558091505060019003906000526020600020016000909192909192909192909192509182610cbc929190613765565b508260028383604051610cd0929190612a99565b90815260200160405180910390208181610cea9190613ad1565b90505061167e565b600060068383604051610d06929190612a99565b90815260200160405180910390208054610d1f906130c4565b905011610d61576040517f08c379a0000000000000000000000000000000000000000000000000000000008152600401610d5890613b2b565b60405180910390fd5b826000013560028383604051610d78929190612a99565b90815260200160405180910390206000015414610dca576040517f08c379a0000000000000000000000000000000000000000000000000000000008152600401610dc190613bbd565b60405180910390fd5b828060200190610dda9190612b53565b604051602001610deb929190612a99565b6040516020818303038152906040528051906020012060028383604051610e13929190612a99565b9081526020016040518091039020600101604051602001610e349190613c60565b6040516020818303038152906040528051906020012014610e8a576040517f08c379a0000000000000000000000000000000000000000000000000000000008152600401610e8190613ce9565b60405180910390fd5b828060400190610e9a9190612b53565b604051602001610eab929190612a99565b6040516020818303038152906040528051906020012060028383604051610ed3929190612a99565b9081526020016040518091039020600201604051602001610ef49190613c60565b6040516020818303038152906040528051906020012014610f4a576040517f08c379a0000000000000000000000000000000000000000000000000000000008152600401610f4190613d7b565b60405180910390fd5b826060016020810190610f5d9190612e16565b73ffffffffffffffffffffffffffffffffffffffff1660028383604051610f85929190612a99565b908152602001604051809103902060030160009054906101000a900473ffffffffffffffffffffffffffffffffffffffff1673ffffffffffffffffffffffffffffffffffffffff161461100d576040517f08c379a000000000000000000000000000000000000000000000000000000000815260040161100490613e0d565b60405180910390fd5b82806080019061101d9190612b53565b60405160200161102e929190612a99565b6040516020818303038152906040528051906020012060028383604051611056929190612a99565b90815260200160405180910390206004016040516020016110779190613c60565b60405160208183030381529060405280519060200120146110cd576040517f08c379a00000000000000000000000000000000000000000000000000000000081526004016110c490613e9f565b60405180910390fd5b8260a00160208101906110e09190612e16565b73ffffffffffffffffffffffffffffffffffffffff1660028383604051611108929190612a99565b908152602001604051809103902060050160009054906101000a900473ffffffffffffffffffffffffffffffffffffffff1673ffffffffffffffffffffffffffffffffffffffff1614611190576040517f08c379a000000000000000000000000000000000000000000000000000000000815260040161118790613f31565b60405180910390fd5b8260c00135600283836040516111a7929190612a99565b908152602001604051809103902060060154146111f9576040517f08c379a00000000000000000000000000000000000000000000000000000000081526004016111f090613fc3565b60405180910390fd5b828060e001906112099190612b53565b60405160200161121a929190612a99565b6040516020818303038152906040528051906020012060028383604051611242929190612a99565b90815260200160405180910390206007016040516020016112639190613c60565b60405160208183030381529060405280519060200120146112b9576040517f08c379a00000000000000000000000000000000000000000000000000000000081526004016112b090614055565b60405180910390fd5b826101000135600283836040516112d1929190612a99565b90815260200160405180910390206008015414611323576040517f08c379a000000000000000000000000000000000000000000000000000000000815260040161131a906140e7565b60405180910390fd5b60405160200161133290614153565b604051602081830303815290604052805190602001206006838360405161135a929190612a99565b90815260200160405180910390206040516020016113789190613c60565b60405160208183030381529060405280519060200120036114e0578260600160208101906113a69190612e16565b73ffffffffffffffffffffffffffffffffffffffff163373ffffffffffffffffffffffffffffffffffffffff1614611413576040517f08c379a000000000000000000000000000000000000000000000000000000000815260040161140a906141da565b60405180910390fd5b82600001353414611459576040517f08c379a00000000000000000000000000000000000000000000000000000000081526004016114509061323f565b60405180910390fd5b346003838360405161146c929190612a99565b9081526020016040518091039020600082825461148991906141fa565b925050819055507f2704af9c38c87047a2c2bc9ac70641e30b504a3c5fee2796f80dbd745fd724658282858060e001906114c39190612b53565b6040516114d394939291906135a1565b60405180910390a1611644565b8260a00160208101906114f39190612e16565b73ffffffffffffffffffffffffffffffffffffffff163373ffffffffffffffffffffffffffffffffffffffff1614611560576040517f08c379a0000000000000000000000000000000000000000000000000000000008152600401611557906142a0565b60405180910390fd5b3460648460c001358560000135611577919061361e565b611581919061368f565b146115c1576040517f08c379a00000000000000000000000000000000000000000000000000000000081526004016115b89061323f565b60405180910390fd5b34600383836040516115d4929190612a99565b908152602001604051809103902060008282546115f191906141fa565b925050819055507f2704af9c38c87047a2c2bc9ac70641e30b504a3c5fee2796f80dbd745fd724658282858060e0019061162b9190612b53565b60405161163b949392919061370c565b60405180910390a15b600160048383604051611658929190612a99565b908152602001604051809103902060006101000a81548160ff0219169083151502179055505b34600b600082825461169091906141fa565b92505081905550505050565b6116a46123e8565b60005b8282905081101561173e576001600760008585858181106116cb576116ca6142c0565b5b90506020020160208101906116e09190612905565b73ffffffffffffffffffffffffffffffffffffffff1673ffffffffffffffffffffffffffffffffffffffff16815260200190815260200160002060006101000a81548160ff02191690831515021790555080806001019150506116a7565b505050565b61174b6123e8565b6117536124b0565b565b60008060149054906101000a900460ff16905090565b6117736123e8565b6000600760008373ffffffffffffffffffffffffffffffffffffffff1673ffffffffffffffffffffffffffffffffffffffff16815260200190815260200160002060006101000a81548160ff02191690831515021790555050565b6117d66123e8565b6117e06000612512565b565b6117ea6123e8565b6117f26125d6565b565b6117fc6123e8565b6001600760008373ffffffffffffffffffffffffffffffffffffffff1673ffffffffffffffffffffffffffffffffffffffff16815260200190815260200160002060006101000a81548160ff02191690831515021790555050565b600b5481565b60008060009054906101000a900473ffffffffffffffffffffffffffffffffffffffff16905090565b61188e6123e8565b60011515600185856040516118a4929190612a99565b908152602001604051809103902060009054906101000a900460ff16151503611902576040517f08c379a00000000000000000000000000000000000000000000000000000000081526004016118f99061433b565b60405180910390fd5b6001808585604051611915929190612a99565b908152602001604051809103902060006101000a81548160ff02191690831515021790555060005b6008858560405161194f929190612a99565b90815260200160405180910390206000018054905081101561235e576000600260088787604051611981929190612a99565b908152602001604051809103902060000183815481106119a4576119a36142c0565b5b906000526020600020016040516119bb9190613c60565b908152602001604051809103902060405180610120016040529081600082015481526020016001820180546119ef906130c4565b80601f0160208091040260200160405190810160405280929190818152602001828054611a1b906130c4565b8015611a685780601f10611a3d57610100808354040283529160200191611a68565b820191906000526020600020905b815481529060010190602001808311611a4b57829003601f168201915b50505050508152602001600282018054611a81906130c4565b80601f0160208091040260200160405190810160405280929190818152602001828054611aad906130c4565b8015611afa5780601f10611acf57610100808354040283529160200191611afa565b820191906000526020600020905b815481529060010190602001808311611add57829003601f168201915b505050505081526020016003820160009054906101000a900473ffffffffffffffffffffffffffffffffffffffff1673ffffffffffffffffffffffffffffffffffffffff1673ffffffffffffffffffffffffffffffffffffffff168152602001600482018054611b69906130c4565b80601f0160208091040260200160405190810160405280929190818152602001828054611b95906130c4565b8015611be25780601f10611bb757610100808354040283529160200191611be2565b820191906000526020600020905b815481529060010190602001808311611bc557829003601f168201915b505050505081526020016005820160009054906101000a900473ffffffffffffffffffffffffffffffffffffffff1673ffffffffffffffffffffffffffffffffffffffff1673ffffffffffffffffffffffffffffffffffffffff16815260200160068201548152602001600782018054611c5b906130c4565b80601f0160208091040260200160405190810160405280929190818152602001828054611c87906130c4565b8015611cd45780601f10611ca957610100808354040283529160200191611cd4565b820191906000526020600020905b815481529060010190602001808311611cb757829003601f168201915b5050505050815260200160088201548152505090506000600360088888604051611cff929190612a99565b90815260200160405180910390206000018481548110611d2257611d216142c0565b5b90600052602060002001604051611d399190613c60565b90815260200160405180910390205490506001600560088989604051611d60929190612a99565b90815260200160405180910390206000018581548110611d8357611d826142c0565b5b90600052602060002001604051611d9a9190613c60565b908152602001604051809103902060006101000a81548160ff02191690831515021790555060001515600460088989604051611dd7929190612a99565b90815260200160405180910390206000018581548110611dfa57611df96142c0565b5b90600052602060002001604051611e119190613c60565b908152602001604051809103902060009054906101000a900460ff1615150361208157604051602001611e43906143a7565b60405160208183030381529060405280519060200120600660088989604051611e6d929190612a99565b90815260200160405180910390206000018581548110611e9057611e8f6142c0565b5b90600052602060002001604051611ea79190613c60565b9081526020016040518091039020604051602001611ec59190613c60565b6040516020818303038152906040528051906020012003611faf57816060015173ffffffffffffffffffffffffffffffffffffffff166108fc829081150290604051600060405180830381858888f19350505050158015611f2a573d6000803e3d6000fd5b507fd678dde1764648a4e84bba067ec49227087849fd6f35a0beb13376e7ce509ea260088888604051611f5e929190612a99565b90815260200160405180910390206000018481548110611f8157611f806142c0565b5b90600052602060002001888860016000604051611fa295949392919061448c565b60405180910390a161207a565b8160a0015173ffffffffffffffffffffffffffffffffffffffff166108fc829081150290604051600060405180830381858888f19350505050158015611ff9573d6000803e3d6000fd5b507fd678dde1764648a4e84bba067ec49227087849fd6f35a0beb13376e7ce509ea26008888860405161202d929190612a99565b908152602001604051809103902060000184815481106120505761204f6142c0565b5b9060005260206000200188886000600160405161207195949392919061448c565b60405180910390a15b5050612351565b7fd678dde1764648a4e84bba067ec49227087849fd6f35a0beb13376e7ce509ea2600888886040516120b4929190612a99565b908152602001604051809103902060000184815481106120d7576120d66142c0565b5b9060005260206000200188886001808a8a6040516120fb97969594939291906144f4565b60405180910390a1604051602001612112906145ac565b60405160208183030381529060405280519060200120858560405160200161213b929190612a99565b604051602081830303815290604052805190602001200361220857600082600001519050826060015173ffffffffffffffffffffffffffffffffffffffff166108fc829081150290604051600060405180830381858888f193505050501580156121a9573d6000803e3d6000fd5b508260a0015173ffffffffffffffffffffffffffffffffffffffff166108fc82846121d491906145c1565b9081150290604051600060405180830381858888f193505050501580156121ff573d6000803e3d6000fd5b50505050612351565b60006064600260098461221b919061361e565b612225919061368f565b61222f919061368f565b9050806009600082825461224391906141fa565b92505081905550808261225691906145c1565b9150858560405160200161226b929190612a99565b6040516020818303038152906040528051906020012083602001516040516020016122969190614650565b604051602081830303815290604052805190602001200361230157826060015173ffffffffffffffffffffffffffffffffffffffff166108fc839081150290604051600060405180830381858888f193505050501580156122fb573d6000803e3d6000fd5b5061234d565b8260a0015173ffffffffffffffffffffffffffffffffffffffff166108fc839081150290604051600060405180830381858888f1935050505015801561234b573d6000803e3d6000fd5b505b5050505b808060010191505061193d565b5050505050565b61236d6123e8565b600073ffffffffffffffffffffffffffffffffffffffff168173ffffffffffffffffffffffffffffffffffffffff16036123dc576040517f08c379a00000000000000000000000000000000000000000000000000000000081526004016123d3906146d9565b60405180910390fd5b6123e581612512565b50565b6123f0612639565b73ffffffffffffffffffffffffffffffffffffffff1661240e61185d565b73ffffffffffffffffffffffffffffffffffffffff1614612464576040517f08c379a000000000000000000000000000000000000000000000000000000000815260040161245b90614745565b60405180910390fd5b565b61246e611755565b156124ae576040517f08c379a00000000000000000000000000000000000000000000000000000000081526004016124a5906147b1565b60405180910390fd5b565b6124b8612641565b60008060146101000a81548160ff0219169083151502179055507f5db9ee0a495bf2e6ff9c91a7834c1ba4fdd244a5e8aa4e537bd38aeae4b073aa6124fb612639565b6040516125089190612941565b60405180910390a1565b60008060009054906101000a900473ffffffffffffffffffffffffffffffffffffffff169050816000806101000a81548173ffffffffffffffffffffffffffffffffffffffff021916908373ffffffffffffffffffffffffffffffffffffffff1602179055508173ffffffffffffffffffffffffffffffffffffffff168173ffffffffffffffffffffffffffffffffffffffff167f8be0079c531659141344cd1fd0a4f28419497f9722a3daafe3b4186f6b6457e060405160405180910390a35050565b6125de612466565b6001600060146101000a81548160ff0219169083151502179055507f62e78cea01bee320cd4e420270b5ea74000d11b0c9f74754ebdbfc544b05a258612622612639565b60405161262f9190612941565b60405180910390a1565b600033905090565b612649611755565b612688576040517f08c379a000000000000000000000000000000000000000000000000000000000815260040161267f9061481d565b60405180910390fd5b565b6000819050919050565b61269d8161268a565b82525050565b60006020820190506126b86000830184612694565b92915050565b600080fd5b600080fd5b600080fd5b600061012082840312156126e4576126e36126c8565b5b81905092915050565b600080fd5b600080fd5b600080fd5b60008083601f840112612712576127116126ed565b5b8235905067ffffffffffffffff81111561272f5761272e6126f2565b5b60208301915083600182028301111561274b5761274a6126f7565b5b9250929050565b60008060006040848603121561276b5761276a6126be565b5b600084013567ffffffffffffffff811115612789576127886126c3565b5b612795868287016126cd565b935050602084013567ffffffffffffffff8111156127b6576127b56126c3565b5b6127c2868287016126fc565b92509250509250925092565b60008083601f8401126127e4576127e36126ed565b5b8235905067ffffffffffffffff811115612801576128006126f2565b5b60208301915083602082028301111561281d5761281c6126f7565b5b9250929050565b6000806020838503121561283b5761283a6126be565b5b600083013567ffffffffffffffff811115612859576128586126c3565b5b612865858286016127ce565b92509250509250929050565b60008115159050919050565b61288681612871565b82525050565b60006020820190506128a1600083018461287d565b92915050565b600073ffffffffffffffffffffffffffffffffffffffff82169050919050565b60006128d2826128a7565b9050919050565b6128e2816128c7565b81146128ed57600080fd5b50565b6000813590506128ff816128d9565b92915050565b60006020828403121561291b5761291a6126be565b5b6000612929848285016128f0565b91505092915050565b61293b816128c7565b82525050565b60006020820190506129566000830184612932565b92915050565b60008060008060408587031215612976576129756126be565b5b600085013567ffffffffffffffff811115612994576129936126c3565b5b6129a0878288016126fc565b9450945050602085013567ffffffffffffffff8111156129c3576129c26126c3565b5b6129cf878288016126fc565b925092505092959194509250565b600082825260208201905092915050565b7f416d6f756e74206d757374206265206d6f7265207468616e2030000000000000600082015250565b6000612a24601a836129dd565b9150612a2f826129ee565b602082019050919050565b60006020820190508181036000830152612a5381612a17565b9050919050565b600081905092915050565b82818337600083830152505050565b6000612a808385612a5a565b9350612a8d838584612a65565b82840190509392505050565b6000612aa6828486612a74565b91508190509392505050565b7f4f6e6c7920322075736572732063616e20706172746963696170746520696e2060008201527f6120626574000000000000000000000000000000000000000000000000000000602082015250565b6000612b0e6025836129dd565b9150612b1982612ab2565b604082019050919050565b60006020820190508181036000830152612b3d81612b01565b9050919050565b600080fd5b600080fd5b600080fd5b60008083356001602003843603038112612b7057612b6f612b44565b5b80840192508235915067ffffffffffffffff821115612b9257612b91612b49565b5b602083019250600182023603831315612bae57612bad612b4e565b5b509250929050565b7f55736572203120616e64205573657220322063616e277420626520746865207360008201527f616d652075736572000000000000000000000000000000000000000000000000602082015250565b6000612c126028836129dd565b9150612c1d82612bb6565b604082019050919050565b60006020820190508181036000830152612c4181612c05565b9050919050565b7f4d756c7469706c6965722063616e2774206265206d6f7265207468616e20313060008201527f3000000000000000000000000000000000000000000000000000000000000000602082015250565b6000612ca46021836129dd565b9150612caf82612c48565b604082019050919050565b60006020820190508181036000830152612cd381612c97565b9050919050565b7f4d756c7469706c696572206d7573742062652067726561746572207468616e2060008201527f3000000000000000000000000000000000000000000000000000000000000000602082015250565b6000612d366021836129dd565b9150612d4182612cda565b604082019050919050565b60006020820190508181036000830152612d6581612d29565b9050919050565b7f47616d6520697320616c7265616479206f766572000000000000000000000000600082015250565b6000612da26014836129dd565b9150612dad82612d6c565b602082019050919050565b60006020820190508181036000830152612dd181612d95565b9050919050565b6000612de3826128a7565b9050919050565b612df381612dd8565b8114612dfe57600080fd5b50565b600081359050612e1081612dea565b92915050565b600060208284031215612e2c57612e2b6126be565b5b6000612e3a84828501612e01565b91505092915050565b7f546865207573657227732077616c6c6574206164647265737320646f65736e2760008201527f7420657175616c20746865206164647265737320696e20746865206265740000602082015250565b6000612e9f603e836129dd565b9150612eaa82612e43565b604082019050919050565b60006020820190508181036000830152612ece81612e92565b9050919050565b7f42657420697320616c726561647920636f6d706c657465000000000000000000600082015250565b6000612f0b6017836129dd565b9150612f1682612ed5565b602082019050919050565b60006020820190508181036000830152612f3a81612efe565b9050919050565b7f7768697465000000000000000000000000000000000000000000000000000000600082015250565b6000612f77600583612a5a565b9150612f8282612f41565b600582019050919050565b6000612f9882612f6a565b9150819050919050565b7f626c61636b000000000000000000000000000000000000000000000000000000600082015250565b6000612fd8600583612a5a565b9150612fe382612fa2565b600582019050919050565b6000612ff982612fcb565b9150819050919050565b7f4265742073696465206d757374206f6e6c792062652027776869746527206f7260008201527f2027626c61636b27000000000000000000000000000000000000000000000000602082015250565b600061305f6028836129dd565b915061306a82613003565b604082019050919050565b6000602082019050818103600083015261308e81613052565b9050919050565b7f4e487b7100000000000000000000000000000000000000000000000000000000600052602260045260246000fd5b600060028204905060018216806130dc57607f821691505b6020821081036130ef576130ee613095565b5b50919050565b7f42657420616c726561647920696e697469616c697a6564000000000000000000600082015250565b600061312b6017836129dd565b9150613136826130f5565b602082019050919050565b6000602082019050818103600083015261315a8161311e565b9050919050565b7f4174206c65617374206f6e65207573657220696e20746869732077616765722060008201527f69732062616e6e65640000000000000000000000000000000000000000000000602082015250565b60006131bd6029836129dd565b91506131c882613161565b604082019050919050565b600060208201905081810360008301526131ec816131b0565b9050919050565b7f57726f6e6720616d6f756e742073656e74000000000000000000000000000000600082015250565b60006132296011836129dd565b9150613234826131f3565b602082019050919050565b600060208201905081810360008301526132588161321c565b9050919050565b600081519050919050565b7f4e487b7100000000000000000000000000000000000000000000000000000000600052604160045260246000fd5b60008190508160005260206000209050919050565b60006020601f8301049050919050565b600082821b905092915050565b6000600883026132fb7fffffffffffffffffffffffffffffffffffffffffffffffffffffffffffffffff826132be565b61330586836132be565b95508019841693508086168417925050509392505050565b6000819050919050565b600061334261333d6133388461268a565b61331d565b61268a565b9050919050565b6000819050919050565b61335c83613327565b61337061336882613349565b8484546132cb565b825550505050565b600090565b613385613378565b613390818484613353565b505050565b5b818110156133b4576133a960008261337d565b600181019050613396565b5050565b601f8211156133f9576133ca81613299565b6133d3846132ae565b810160208510156133e2578190505b6133f66133ee856132ae565b830182613395565b50505b505050565b600082821c905092915050565b600061341c600019846008026133fe565b1980831691505092915050565b6000613435838361340b565b9150826002028217905092915050565b61344e8261325f565b67ffffffffffffffff8111156134675761346661326a565b5b61347182546130c4565b61347c8282856133b8565b600060209050601f8311600181146134af576000841561349d578287015190505b6134a78582613429565b86555061350f565b601f1984166134bd86613299565b60005b828110156134e5578489015182556001820191506020850194506020810190506134c0565b8683101561350257848901516134fe601f89168261340b565b8355505b6001600288020188555050505b505050505050565b7f7573657231206861732070616964000000000000000000000000000000000000600082015250565b600061354d600e836129dd565b915061355882613517565b602082019050919050565b6000601f19601f8301169050919050565b600061358083856129dd565b935061358d838584612a65565b61359683613563565b840190509392505050565b600060608201905081810360008301526135ba81613540565b905081810360208301526135cf818688613574565b905081810360408301526135e4818486613574565b905095945050505050565b7f4e487b7100000000000000000000000000000000000000000000000000000000600052601160045260246000fd5b60006136298261268a565b91506136348361268a565b92508282026136428161268a565b91508282048414831517613659576136586135ef565b5b5092915050565b7f4e487b7100000000000000000000000000000000000000000000000000000000600052601260045260246000fd5b600061369a8261268a565b91506136a58361268a565b9250826136b5576136b4613660565b5b828204905092915050565b7f7573657232206861732070616964000000000000000000000000000000000000600082015250565b60006136f6600e836129dd565b9150613701826136c0565b602082019050919050565b60006060820190508181036000830152613725816136e9565b9050818103602083015261373a818688613574565b9050818103604083015261374f818486613574565b905095945050505050565b600082905092915050565b61376f838361375a565b67ffffffffffffffff8111156137885761378761326a565b5b61379282546130c4565b61379d8282856133b8565b6000601f8311600181146137cc57600084156137ba578287013590505b6137c48582613429565b86555061382c565b601f1984166137da86613299565b60005b82811015613802578489013582556001820191506020850194506020810190506137dd565b8683101561381f578489013561381b601f89168261340b565b8355505b6001600288020188555050505b50505050505050565b61383e8161268a565b811461384957600080fd5b50565b6000813561385981613835565b80915050919050565b60008160001b9050919050565b60007fffffffffffffffffffffffffffffffffffffffffffffffffffffffffffffffff61389b84613862565b9350801983169250808416831791505092915050565b6138ba82613327565b6138cd6138c682613349565b835461386f565b8255505050565b6138df838383613765565b505050565b600081356138f181612dea565b80915050919050565b600073ffffffffffffffffffffffffffffffffffffffff61391a84613862565b9350801983169250808416831791505092915050565b600061394b613946613941846128a7565b61331d565b6128a7565b9050919050565b600061395d82613930565b9050919050565b600061396f82613952565b9050919050565b6000819050919050565b61398982613964565b61399c61399582613976565b83546138fa565b8255505050565b6000810160008301806139b58161384c565b90506139c181846138b1565b50505060018101602083016139d68185612b53565b6139e18183866138d4565b5050505060028101604083016139f78185612b53565b613a028183866138d4565b50505050600381016060830180613a18816138e4565b9050613a248184613980565b5050506004810160808301613a398185612b53565b613a448183866138d4565b505050506005810160a0830180613a5a816138e4565b9050613a668184613980565b5050506006810160c0830180613a7b8161384c565b9050613a8781846138b1565b5050506007810160e08301613a9c8185612b53565b613aa78183866138d4565b5050505060088101610100830180613abe8161384c565b9050613aca81846138b1565b5050505050565b613adb82826139a3565b5050565b7f426574206e6f7420696e697469616c697a656400000000000000000000000000600082015250565b6000613b156013836129dd565b9150613b2082613adf565b602082019050919050565b60006020820190508181036000830152613b4481613b08565b9050919050565b7f557365722031206265742e616d6f756e7420646f65736e2774206d617463682060008201527f757365722032206265742e616d6f756e74000000000000000000000000000000602082015250565b6000613ba76031836129dd565b9150613bb282613b4b565b604082019050919050565b60006020820190508181036000830152613bd681613b9a565b9050919050565b60008154613bea816130c4565b613bf48186612a5a565b94506001821660008114613c0f5760018114613c2457613c57565b60ff1983168652811515820286019350613c57565b613c2d85613299565b60005b83811015613c4f57815481890152600182019150602081019050613c30565b838801955050505b50505092915050565b6000613c6c8284613bdd565b915081905092915050565b7f557365722031206265742e6265745369646520646f65736e2774206d6174636860008201527f20757365722032206265742e6265745369646500000000000000000000000000602082015250565b6000613cd36033836129dd565b9150613cde82613c77565b604082019050919050565b60006020820190508181036000830152613d0281613cc6565b9050919050565b7f557365722031206265742e7573657231496420646f65736e2774206d6174636860008201527f20757365722032206265742e7573657231496400000000000000000000000000602082015250565b6000613d656033836129dd565b9150613d7082613d09565b604082019050919050565b60006020820190508181036000830152613d9481613d58565b9050919050565b7f557365722031206265742e75736572314d6574616d61736b20646f65736e277460008201527f206d6174636820757365722032206265742e75736572314d6574616d61736b00602082015250565b6000613df7603f836129dd565b9150613e0282613d9b565b604082019050919050565b60006020820190508181036000830152613e2681613dea565b9050919050565b7f557365722031206265742e7573657232496420646f65736e2774206d6174636860008201527f20757365722032206265742e7573657232496400000000000000000000000000602082015250565b6000613e896033836129dd565b9150613e9482613e2d565b604082019050919050565b60006020820190508181036000830152613eb881613e7c565b9050919050565b7f557365722031206265742e75736572324d6574616d61736b20646f65736e277460008201527f206d6174636820757365722032206265742e75736572324d6574616d61736b00602082015250565b6000613f1b603f836129dd565b9150613f2682613ebf565b604082019050919050565b60006020820190508181036000830152613f4a81613f0e565b9050919050565b7f557365722031206265742e6d756c7469706c69657220646f65736e2774206d6160008201527f74636820757365722032206265742e6d756c7469706c69657200000000000000602082015250565b6000613fad6039836129dd565b9150613fb882613f51565b604082019050919050565b60006020820190508181036000830152613fdc81613fa0565b9050919050565b7f557365722031206265742e67616d65496420646f65736e2774206d617463682060008201527f757365722032206265742e67616d654964000000000000000000000000000000602082015250565b600061403f6031836129dd565b915061404a82613fe3565b604082019050919050565b6000602082019050818103600083015261406e81614032565b9050919050565b7f557365722031206265742e74696d657374616d7020646f65736e2774206d617460008201527f636820757365722032206265742e74696d657374616d70000000000000000000602082015250565b60006140d16037836129dd565b91506140dc82614075565b604082019050919050565b60006020820190508181036000830152614100816140c4565b9050919050565b7f7573657232000000000000000000000000000000000000000000000000000000600082015250565b600061413d600583612a5a565b915061414882614107565b600582019050919050565b600061415e82614130565b9150819050919050565b7f5573657220312077616c6c6574206164647265737320646f65736e2774206d6160008201527f7463682073656e64657220616464726573730000000000000000000000000000602082015250565b60006141c46032836129dd565b91506141cf82614168565b604082019050919050565b600060208201905081810360008301526141f3816141b7565b9050919050565b60006142058261268a565b91506142108361268a565b9250828201905080821115614228576142276135ef565b5b92915050565b7f5573657220322077616c6c6574206164647265737320646f65736e2774206d6160008201527f7463682073656e64657220616464726573730000000000000000000000000000602082015250565b600061428a6032836129dd565b91506142958261422e565b604082019050919050565b600060208201905081810360008301526142b98161427d565b9050919050565b7f4e487b7100000000000000000000000000000000000000000000000000000000600052603260045260246000fd5b7f47616d6520697320616c72656164792070616964000000000000000000000000600082015250565b60006143256014836129dd565b9150614330826142ef565b602082019050919050565b6000602082019050818103600083015261435481614318565b9050919050565b7f7573657231000000000000000000000000000000000000000000000000000000600082015250565b6000614391600583612a5a565b915061439c8261435b565b600582019050919050565b60006143b282614384565b9150819050919050565b600081546143c9816130c4565b6143d381866129dd565b945060018216600081146143ee576001811461440457614437565b60ff198316865281151560200286019350614437565b61440d85613299565b60005b8381101561442f57815481890152600182019150602081019050614410565b808801955050505b50505092915050565b7f6e6f6e6500000000000000000000000000000000000000000000000000000000600082015250565b60006144766004836129dd565b915061448182614440565b602082019050919050565b600060a08201905081810360008301526144a681886143bc565b905081810360208301526144bb818688613574565b90506144ca604083018561287d565b6144d7606083018461287d565b81810360808301526144e881614469565b90509695505050505050565b600060a082019050818103600083015261450e818a6143bc565b9050818103602083015261452381888a613574565b9050614532604083018761287d565b61453f606083018661287d565b8181036080830152614552818486613574565b905098975050505050505050565b7f6472617700000000000000000000000000000000000000000000000000000000600082015250565b6000614596600483612a5a565b91506145a182614560565b600482019050919050565b60006145b782614589565b9150819050919050565b60006145cc8261268a565b91506145d78361268a565b92508282039050818111156145ef576145ee6135ef565b5b92915050565b60005b838110156146135780820151818401526020810190506145f8565b60008484015250505050565b600061462a8261325f565b6146348185612a5a565b93506146448185602086016145f5565b80840191505092915050565b600061465c828461461f565b915081905092915050565b7f4f776e61626c653a206e6577206f776e657220697320746865207a65726f206160008201527f6464726573730000000000000000000000000000000000000000000000000000602082015250565b60006146c36026836129dd565b91506146ce82614667565b604082019050919050565b600060208201905081810360008301526146f2816146b6565b9050919050565b7f4f776e61626c653a2063616c6c6572206973206e6f7420746865206f776e6572600082015250565b600061472f6020836129dd565b915061473a826146f9565b602082019050919050565b6000602082019050818103600083015261475e81614722565b9050919050565b7f5061757361626c653a2070617573656400000000000000000000000000000000600082015250565b600061479b6010836129dd565b91506147a682614765565b602082019050919050565b600060208201905081810360008301526147ca8161478e565b9050919050565b7f5061757361626c653a206e6f7420706175736564000000000000000000000000600082015250565b60006148076014836129dd565b9150614812826147d1565b602082019050919050565b60006020820190508181036000830152614836816147fa565b905091905056fea2646970667358221220aa1abfca8133d7bd61312ba2d42eb903020579f3eb0c7b52ce2cfaf1c6bc801a64736f6c63430008180033",
  "linkReferences": {},
  "deployedLinkReferences": {}
}