{
  "_format": "hh-sol-artifact-1",
  "contractName": "ChessWager",
  "sourceName": "contracts/ChessWager.sol",
  "abi": [
    {
      "inputs": [],
      "stateMutability": "nonpayable",
      "type": "constructor"
    },
    {
      "anonymous": false,
      "inputs": [
        {
          "indexed": false,
          "internalType": "string",
          "name": "message",
          "type": "string"
        },
        {
          "indexed": false,
          "internalType": "string",
          "name": "betId",
          "type": "string"
        },
        {
          "indexed": false,
          "internalType": "string",
          "name": "gameId",
          "type": "string"
        }
      ],
      "name": "BetPlacedStatus",
      "type": "event"
    },
    {
      "anonymous": false,
      "inputs": [
        {
          "indexed": true,
          "internalType": "address",
          "name": "previousOwner",
          "type": "address"
        },
        {
          "indexed": true,
          "internalType": "address",
          "name": "newOwner",
          "type": "address"
        }
      ],
      "name": "OwnershipTransferred",
      "type": "event"
    },
    {
      "anonymous": false,
      "inputs": [
        {
          "indexed": false,
          "internalType": "string",
          "name": "betId",
          "type": "string"
        },
        {
          "indexed": false,
          "internalType": "string",
          "name": "gameId",
          "type": "string"
        },
        {
          "indexed": false,
          "internalType": "bool",
          "name": "didUser1Pay",
          "type": "bool"
        },
        {
          "indexed": false,
          "internalType": "bool",
          "name": "didUser2Pay",
          "type": "bool"
        }
      ],
      "name": "PayoutStatus",
      "type": "event"
    },
    {
      "inputs": [],
      "name": "owner",
      "outputs": [
        {
          "internalType": "address",
          "name": "",
          "type": "address"
        }
      ],
      "stateMutability": "view",
      "type": "function"
    },
    {
      "inputs": [
        {
          "internalType": "string",
          "name": "_betId",
          "type": "string"
        },
        {
          "internalType": "string",
          "name": "_winningSide",
          "type": "string"
        }
      ],
      "name": "payToSpecificBet",
      "outputs": [],
      "stateMutability": "payable",
      "type": "function"
    },
    {
      "inputs": [
        {
          "internalType": "string",
          "name": "_gameId",
          "type": "string"
        },
        {
          "internalType": "string",
          "name": "winningSide",
          "type": "string"
        }
      ],
      "name": "payWinners",
      "outputs": [],
      "stateMutability": "payable",
      "type": "function"
    },
    {
      "inputs": [
        {
          "components": [
            {
              "internalType": "uint256",
              "name": "amount",
              "type": "uint256"
            },
            {
              "internalType": "string",
              "name": "betSide",
              "type": "string"
            },
            {
              "internalType": "string",
              "name": "user1Id",
              "type": "string"
            },
            {
              "internalType": "address payable",
              "name": "user1Metamask",
              "type": "address"
            },
            {
              "internalType": "string",
              "name": "user2Id",
              "type": "string"
            },
            {
              "internalType": "address payable",
              "name": "user2Metamask",
              "type": "address"
            },
            {
              "internalType": "uint256",
              "name": "multiplier",
              "type": "uint256"
            },
            {
              "internalType": "string",
              "name": "gameId",
              "type": "string"
            },
            {
              "internalType": "uint256",
              "name": "timestamp",
              "type": "uint256"
            }
          ],
          "internalType": "struct ChessWager.Bet",
          "name": "_bet",
          "type": "tuple"
        },
        {
          "internalType": "string",
          "name": "_betId",
          "type": "string"
        }
      ],
      "name": "placeBet",
      "outputs": [],
      "stateMutability": "payable",
      "type": "function"
    },
    {
      "inputs": [],
      "name": "renounceOwnership",
      "outputs": [],
      "stateMutability": "nonpayable",
      "type": "function"
    },
    {
      "inputs": [],
      "name": "totalWagered",
      "outputs": [
        {
          "internalType": "uint256",
          "name": "",
          "type": "uint256"
        }
      ],
      "stateMutability": "view",
      "type": "function"
    },
    {
      "inputs": [
        {
          "internalType": "address",
          "name": "newOwner",
          "type": "address"
        }
      ],
      "name": "transferOwnership",
      "outputs": [],
      "stateMutability": "nonpayable",
      "type": "function"
    },
    {
      "inputs": [],
      "name": "viewChessWagerBalance",
      "outputs": [
        {
          "internalType": "uint256",
          "name": "",
          "type": "uint256"
        }
      ],
      "stateMutability": "view",
      "type": "function"
    },
    {
      "inputs": [],
      "name": "withdrawChessWagerBalance",
      "outputs": [],
      "stateMutability": "payable",
      "type": "function"
    }
  ],
  "bytecode": "0x60806040523480156200001157600080fd5b5062000032620000266200008160201b60201c565b6200008960201b60201c565b33600960006101000a81548173ffffffffffffffffffffffffffffffffffffffff021916908373ffffffffffffffffffffffffffffffffffffffff16021790555060006008819055506200014d565b600033905090565b60008060009054906101000a900473ffffffffffffffffffffffffffffffffffffffff169050816000806101000a81548173ffffffffffffffffffffffffffffffffffffffff021916908373ffffffffffffffffffffffffffffffffffffffff1602179055508173ffffffffffffffffffffffffffffffffffffffff168173ffffffffffffffffffffffffffffffffffffffff167f8be0079c531659141344cd1fd0a4f28419497f9722a3daafe3b4186f6b6457e060405160405180910390a35050565b6136f1806200015d6000396000f3fe6080604052600436106100865760003560e01c80638a14f12c116100595780638a14f12c146100f35780638da5cb5b1461011e578063c2b630ca14610149578063f2fde38b14610165578063f87f79a61461018e57610086565b8063137294b01461008b578063216a6641146100b657806335f11837146100c0578063715018a6146100dc575b600080fd5b34801561009757600080fd5b506100a06101aa565b6040516100ad9190612507565b60405180910390f35b6100be610230565b005b6100da60048036038101906100d591906125b6565b610321565b005b3480156100e857600080fd5b506100f1610e6f565b005b3480156100ff57600080fd5b50610108610ef7565b6040516101159190612507565b60405180910390f35b34801561012a57600080fd5b50610133610efd565b6040516101409190612673565b60405180910390f35b610163600480360381019061015e919061268e565b610f26565b005b34801561017157600080fd5b5061018c6004803603810190610187919061273b565b611a49565b005b6101a860048036038101906101a3919061268e565b611b41565b005b60006101b46122f9565b73ffffffffffffffffffffffffffffffffffffffff166101d2610efd565b73ffffffffffffffffffffffffffffffffffffffff1614610228576040517f08c379a000000000000000000000000000000000000000000000000000000000815260040161021f906127c5565b60405180910390fd5b600854905090565b6102386122f9565b73ffffffffffffffffffffffffffffffffffffffff16610256610efd565b73ffffffffffffffffffffffffffffffffffffffff16146102ac576040517f08c379a00000000000000000000000000000000000000000000000000000000081526004016102a3906127c5565b60405180910390fd5b600960009054906101000a900473ffffffffffffffffffffffffffffffffffffffff1673ffffffffffffffffffffffffffffffffffffffff166108fc6008549081150290604051600060405180830381858888f19350505050158015610316573d6000803e3d6000fd5b506000600881905550565b600115156001848060e0019061033791906127f4565b604051610345929190612896565b908152602001604051809103902060009054906101000a900460ff161515141561036e57600080fd5b82606001602081019061038191906128ed565b73ffffffffffffffffffffffffffffffffffffffff163373ffffffffffffffffffffffffffffffffffffffff1614806103f757508260a00160208101906103c891906128ed565b73ffffffffffffffffffffffffffffffffffffffff163373ffffffffffffffffffffffffffffffffffffffff16145b61040057600080fd5b6000151560058383604051610416929190612896565b908152602001604051809103902060009054906101000a900460ff1615151461043e57600080fd5b60405160200161044d90612966565b6040516020818303038152906040528051906020012083806020019061047391906127f4565b604051602001610484929190612896565b6040516020818303038152906040528051906020012014806104ff57506040516020016104b0906129c7565b604051602081830303815290604052805190602001208380602001906104d691906127f4565b6040516020016104e7929190612896565b60405160208183030381529060405280519060200120145b61050857600080fd5b34600a600082825461051a9190612a0b565b92505081905550600060028383604051610535929190612896565b908152602001604051809103902060060154141561083e57600060048383604051610561929190612896565b908152602001604051809103902060006101000a81548160ff02191690831515021790555082606001602081019061059991906128ed565b73ffffffffffffffffffffffffffffffffffffffff163373ffffffffffffffffffffffffffffffffffffffff16141561069657826000013534146105dc57600080fd5b6040518060400160405280600581526020017f757365723100000000000000000000000000000000000000000000000000000081525060068383604051610624929190612896565b908152602001604051809103902090805190602001906106459291906123c5565b507f2704af9c38c87047a2c2bc9ac70641e30b504a3c5fee2796f80dbd745fd724658282858060e0019061067991906127f4565b6040516106899493929190612aeb565b60405180910390a1610777565b60648360c0013584600001356106ac9190612b39565b6106b69190612bc2565b34146106c157600080fd5b6040518060400160405280600581526020017f757365723200000000000000000000000000000000000000000000000000000081525060068383604051610709929190612896565b9081526020016040518091039020908051906020019061072a9291906123c5565b507f2704af9c38c87047a2c2bc9ac70641e30b504a3c5fee2796f80dbd745fd724658282858060e0019061075e91906127f4565b60405161076e9493929190612c3f565b60405180910390a15b346003838360405161078a929190612896565b9081526020016040518091039020819055506007838060e001906107ae91906127f4565b6040516107bc929190612896565b908152602001604051809103902060000182829091806001815401808255809150506001900390600052602060002001600090919290919290919290919250919061080892919061244b565b50826002838360405161081c929190612896565b908152602001604051809103902081816108369190613240565b905050610e6a565b826000013560028383604051610855929190612896565b9081526020016040518091039020600001541461087157600080fd5b82806020019061088191906127f4565b604051602001610892929190612896565b60405160208183030381529060405280519060200120600283836040516108ba929190612896565b90815260200160405180910390206001016040516020016108db91906132cd565b60405160208183030381529060405280519060200120146108fb57600080fd5b82806040019061090b91906127f4565b60405160200161091c929190612896565b6040516020818303038152906040528051906020012060028383604051610944929190612896565b908152602001604051809103902060020160405160200161096591906132cd565b604051602081830303815290604052805190602001201461098557600080fd5b82606001602081019061099891906128ed565b73ffffffffffffffffffffffffffffffffffffffff16600283836040516109c0929190612896565b908152602001604051809103902060030160009054906101000a900473ffffffffffffffffffffffffffffffffffffffff1673ffffffffffffffffffffffffffffffffffffffff1614610a1257600080fd5b828060800190610a2291906127f4565b604051602001610a33929190612896565b6040516020818303038152906040528051906020012060028383604051610a5b929190612896565b9081526020016040518091039020600401604051602001610a7c91906132cd565b6040516020818303038152906040528051906020012014610a9c57600080fd5b8260a0016020810190610aaf91906128ed565b73ffffffffffffffffffffffffffffffffffffffff1660028383604051610ad7929190612896565b908152602001604051809103902060050160009054906101000a900473ffffffffffffffffffffffffffffffffffffffff1673ffffffffffffffffffffffffffffffffffffffff1614610b2957600080fd5b8260c0013560028383604051610b40929190612896565b90815260200160405180910390206006015414610b5c57600080fd5b828060e00190610b6c91906127f4565b604051602001610b7d929190612896565b6040516020818303038152906040528051906020012060028383604051610ba5929190612896565b9081526020016040518091039020600701604051602001610bc691906132cd565b6040516020818303038152906040528051906020012014610be657600080fd5b604051602001610bf590613330565b6040516020818303038152906040528051906020012060068383604051610c1d929190612896565b9081526020016040518091039020604051602001610c3b91906132cd565b604051602081830303815290604052805190602001201415610d3857826060016020810190610c6a91906128ed565b73ffffffffffffffffffffffffffffffffffffffff163373ffffffffffffffffffffffffffffffffffffffff1614610ca157600080fd5b82600001353414610cb157600080fd5b3460038383604051610cc4929190612896565b90815260200160405180910390206000828254610ce19190612a0b565b925050819055507f2704af9c38c87047a2c2bc9ac70641e30b504a3c5fee2796f80dbd745fd724658282858060e00190610d1b91906127f4565b604051610d2b9493929190612aeb565b60405180910390a1610e30565b8260a0016020810190610d4b91906128ed565b73ffffffffffffffffffffffffffffffffffffffff163373ffffffffffffffffffffffffffffffffffffffff1614610d8257600080fd5b60648360c001358460000135610d989190612b39565b610da29190612bc2565b3414610dad57600080fd5b3460038383604051610dc0929190612896565b90815260200160405180910390206000828254610ddd9190612a0b565b925050819055507f2704af9c38c87047a2c2bc9ac70641e30b504a3c5fee2796f80dbd745fd724658282858060e00190610e1791906127f4565b604051610e279493929190612c3f565b60405180910390a15b600160048383604051610e44929190612896565b908152602001604051809103902060006101000a81548160ff0219169083151502179055505b505050565b610e776122f9565b73ffffffffffffffffffffffffffffffffffffffff16610e95610efd565b73ffffffffffffffffffffffffffffffffffffffff1614610eeb576040517f08c379a0000000000000000000000000000000000000000000000000000000008152600401610ee2906127c5565b60405180910390fd5b610ef56000612301565b565b600a5481565b60008060009054906101000a900473ffffffffffffffffffffffffffffffffffffffff16905090565b610f2e6122f9565b73ffffffffffffffffffffffffffffffffffffffff16610f4c610efd565b73ffffffffffffffffffffffffffffffffffffffff1614610fa2576040517f08c379a0000000000000000000000000000000000000000000000000000000008152600401610f99906127c5565b60405180910390fd5b6001808585604051610fb5929190612896565b908152602001604051809103902060006101000a81548160ff02191690831515021790555060005b60078585604051610fef929190612896565b908152602001604051809103902060000180549050811015611a42576000600260078787604051611021929190612896565b9081526020016040518091039020600001838154811061104457611043613345565b5b9060005260206000200160405161105b91906132cd565b9081526020016040518091039020604051806101200160405290816000820154815260200160018201805461108f90612dcb565b80601f01602080910402602001604051908101604052809291908181526020018280546110bb90612dcb565b80156111085780601f106110dd57610100808354040283529160200191611108565b820191906000526020600020905b8154815290600101906020018083116110eb57829003601f168201915b5050505050815260200160028201805461112190612dcb565b80601f016020809104026020016040519081016040528092919081815260200182805461114d90612dcb565b801561119a5780601f1061116f5761010080835404028352916020019161119a565b820191906000526020600020905b81548152906001019060200180831161117d57829003601f168201915b505050505081526020016003820160009054906101000a900473ffffffffffffffffffffffffffffffffffffffff1673ffffffffffffffffffffffffffffffffffffffff1673ffffffffffffffffffffffffffffffffffffffff16815260200160048201805461120990612dcb565b80601f016020809104026020016040519081016040528092919081815260200182805461123590612dcb565b80156112825780601f1061125757610100808354040283529160200191611282565b820191906000526020600020905b81548152906001019060200180831161126557829003601f168201915b505050505081526020016005820160009054906101000a900473ffffffffffffffffffffffffffffffffffffffff1673ffffffffffffffffffffffffffffffffffffffff1673ffffffffffffffffffffffffffffffffffffffff168152602001600682015481526020016007820180546112fb90612dcb565b80601f016020809104026020016040519081016040528092919081815260200182805461132790612dcb565b80156113745780601f1061134957610100808354040283529160200191611374565b820191906000526020600020905b81548152906001019060200180831161135757829003601f168201915b505050505081526020016008820154815250509050600060036007888860405161139f929190612896565b908152602001604051809103902060000184815481106113c2576113c1613345565b5b906000526020600020016040516113d991906132cd565b90815260200160405180910390205490506001600560078989604051611400929190612896565b9081526020016040518091039020600001858154811061142357611422613345565b5b9060005260206000200160405161143a91906132cd565b908152602001604051809103902060006101000a81548160ff02191690831515021790555060001515600460078989604051611477929190612896565b9081526020016040518091039020600001858154811061149a57611499613345565b5b906000526020600020016040516114b191906132cd565b908152602001604051809103902060009054906101000a900460ff161515141561173e576040516020016114e4906133c0565b6040516020818303038152906040528051906020012060066007898960405161150e929190612896565b9081526020016040518091039020600001858154811061153157611530613345565b5b9060005260206000200160405161154891906132cd565b908152602001604051809103902060405160200161156691906132cd565b60405160208183030381529060405280519060200120141561165157816060015173ffffffffffffffffffffffffffffffffffffffff166108fc829081150290604051600060405180830381858888f193505050501580156115cc573d6000803e3d6000fd5b507fd4376f206ffe50dfa49046e29b9f0b3ee8161a08d51fc8c5efca504570eeb67360078888604051611600929190612896565b9081526020016040518091039020600001848154811061162357611622613345565b5b90600052602060002001888860016000604051611644959493929190613470565b60405180910390a1611737565b8160a0015173ffffffffffffffffffffffffffffffffffffffff166108fc60648460c00151846116819190612b39565b61168b9190612bc2565b9081150290604051600060405180830381858888f193505050501580156116b6573d6000803e3d6000fd5b507fd4376f206ffe50dfa49046e29b9f0b3ee8161a08d51fc8c5efca504570eeb673600788886040516116ea929190612896565b9081526020016040518091039020600001848154811061170d5761170c613345565b5b9060005260206000200188886000600160405161172e959493929190613470565b60405180910390a15b5050611a2f565b7fd4376f206ffe50dfa49046e29b9f0b3ee8161a08d51fc8c5efca504570eeb67360078888604051611771929190612896565b9081526020016040518091039020600001848154811061179457611793613345565b5b9060005260206000200188886001806040516117b4959493929190613470565b60405180910390a16040516020016117cb90613511565b6040516020818303038152906040528051906020012085856040516020016117f4929190612896565b6040516020818303038152906040528051906020012014156118e557600060648360c001516118239190612bc2565b600161182f9190612a0b565b8261183a9190612bc2565b9050826060015173ffffffffffffffffffffffffffffffffffffffff166108fc829081150290604051600060405180830381858888f19350505050158015611886573d6000803e3d6000fd5b508260a0015173ffffffffffffffffffffffffffffffffffffffff166108fc82846118b19190613526565b9081150290604051600060405180830381858888f193505050501580156118dc573d6000803e3d6000fd5b50505050611a2f565b6000606460026009846118f89190612b39565b6119029190612bc2565b61190c9190612bc2565b905080600860008282546119209190612a0b565b9250508190555080826119339190613526565b91508585604051602001611948929190612896565b60405160208183030381529060405280519060200120836020015160405160200161197391906135c9565b6040516020818303038152906040528051906020012014156119df57826060015173ffffffffffffffffffffffffffffffffffffffff166108fc839081150290604051600060405180830381858888f193505050501580156119d9573d6000803e3d6000fd5b50611a2b565b8260a0015173ffffffffffffffffffffffffffffffffffffffff166108fc839081150290604051600060405180830381858888f19350505050158015611a29573d6000803e3d6000fd5b505b5050505b8080611a3a906135e0565b915050610fdd565b5050505050565b611a516122f9565b73ffffffffffffffffffffffffffffffffffffffff16611a6f610efd565b73ffffffffffffffffffffffffffffffffffffffff1614611ac5576040517f08c379a0000000000000000000000000000000000000000000000000000000008152600401611abc906127c5565b60405180910390fd5b600073ffffffffffffffffffffffffffffffffffffffff168173ffffffffffffffffffffffffffffffffffffffff161415611b35576040517f08c379a0000000000000000000000000000000000000000000000000000000008152600401611b2c9061369b565b60405180910390fd5b611b3e81612301565b50565b611b496122f9565b73ffffffffffffffffffffffffffffffffffffffff16611b67610efd565b73ffffffffffffffffffffffffffffffffffffffff1614611bbd576040517f08c379a0000000000000000000000000000000000000000000000000000000008152600401611bb4906127c5565b60405180910390fd5b600060028585604051611bd1929190612896565b90815260200160405180910390206040518061012001604052908160008201548152602001600182018054611c0590612dcb565b80601f0160208091040260200160405190810160405280929190818152602001828054611c3190612dcb565b8015611c7e5780601f10611c5357610100808354040283529160200191611c7e565b820191906000526020600020905b815481529060010190602001808311611c6157829003601f168201915b50505050508152602001600282018054611c9790612dcb565b80601f0160208091040260200160405190810160405280929190818152602001828054611cc390612dcb565b8015611d105780601f10611ce557610100808354040283529160200191611d10565b820191906000526020600020905b815481529060010190602001808311611cf357829003601f168201915b505050505081526020016003820160009054906101000a900473ffffffffffffffffffffffffffffffffffffffff1673ffffffffffffffffffffffffffffffffffffffff1673ffffffffffffffffffffffffffffffffffffffff168152602001600482018054611d7f90612dcb565b80601f0160208091040260200160405190810160405280929190818152602001828054611dab90612dcb565b8015611df85780601f10611dcd57610100808354040283529160200191611df8565b820191906000526020600020905b815481529060010190602001808311611ddb57829003601f168201915b505050505081526020016005820160009054906101000a900473ffffffffffffffffffffffffffffffffffffffff1673ffffffffffffffffffffffffffffffffffffffff1673ffffffffffffffffffffffffffffffffffffffff16815260200160068201548152602001600782018054611e7190612dcb565b80601f0160208091040260200160405190810160405280929190818152602001828054611e9d90612dcb565b8015611eea5780601f10611ebf57610100808354040283529160200191611eea565b820191906000526020600020905b815481529060010190602001808311611ecd57829003601f168201915b505050505081526020016008820154815250509050600060038686604051611f13929190612896565b90815260200160405180910390205490506000151560048787604051611f3a929190612896565b908152602001604051809103902060009054906101000a900460ff161515141561208757604051602001611f6d906133c0565b6040516020818303038152906040528051906020012060068787604051611f95929190612896565b9081526020016040518091039020604051602001611fb391906132cd565b60405160208183030381529060405280519060200120141561201f57816060015173ffffffffffffffffffffffffffffffffffffffff166108fc829081150290604051600060405180830381858888f19350505050158015612019573d6000803e3d6000fd5b50612086565b8160a0015173ffffffffffffffffffffffffffffffffffffffff166108fc60648460c001518461204f9190612b39565b6120599190612bc2565b9081150290604051600060405180830381858888f19350505050158015612084573d6000803e3d6000fd5b505b5b60405160200161209690613511565b6040516020818303038152906040528051906020012084846040516020016120bf929190612896565b6040516020818303038152906040528051906020012014156121aa57600060648360c001516120ee9190612bc2565b60016120fa9190612a0b565b826121059190612bc2565b9050826060015173ffffffffffffffffffffffffffffffffffffffff166108fc829081150290604051600060405180830381858888f19350505050158015612151573d6000803e3d6000fd5b508260a0015173ffffffffffffffffffffffffffffffffffffffff166108fc828461217c9190613526565b9081150290604051600060405180830381858888f193505050501580156121a7573d6000803e3d6000fd5b50505b6000606460026009846121bd9190612b39565b6121c79190612bc2565b6121d19190612bc2565b905080600860008282546121e59190612a0b565b9250508190555080826121f89190613526565b9150848460405160200161220d929190612896565b60405160208183030381529060405280519060200120836020015160405160200161223891906135c9565b6040516020818303038152906040528051906020012014156122a457826060015173ffffffffffffffffffffffffffffffffffffffff166108fc839081150290604051600060405180830381858888f1935050505015801561229e573d6000803e3d6000fd5b506122f0565b8260a0015173ffffffffffffffffffffffffffffffffffffffff166108fc839081150290604051600060405180830381858888f193505050501580156122ee573d6000803e3d6000fd5b505b50505050505050565b600033905090565b60008060009054906101000a900473ffffffffffffffffffffffffffffffffffffffff169050816000806101000a81548173ffffffffffffffffffffffffffffffffffffffff021916908373ffffffffffffffffffffffffffffffffffffffff1602179055508173ffffffffffffffffffffffffffffffffffffffff168173ffffffffffffffffffffffffffffffffffffffff167f8be0079c531659141344cd1fd0a4f28419497f9722a3daafe3b4186f6b6457e060405160405180910390a35050565b8280546123d190612dcb565b90600052602060002090601f0160209004810192826123f3576000855561243a565b82601f1061240c57805160ff191683800117855561243a565b8280016001018555821561243a579182015b8281111561243957825182559160200191906001019061241e565b5b50905061244791906124d1565b5090565b82805461245790612dcb565b90600052602060002090601f01602090048101928261247957600085556124c0565b82601f1061249257803560ff19168380011785556124c0565b828001600101855582156124c0579182015b828111156124bf5782358255916020019190600101906124a4565b5b5090506124cd91906124d1565b5090565b5b808211156124ea5760008160009055506001016124d2565b5090565b6000819050919050565b612501816124ee565b82525050565b600060208201905061251c60008301846124f8565b92915050565b600080fd5b600080fd5b600080fd5b600061012082840312156125485761254761252c565b5b81905092915050565b600080fd5b600080fd5b600080fd5b60008083601f84011261257657612575612551565b5b8235905067ffffffffffffffff81111561259357612592612556565b5b6020830191508360018202830111156125af576125ae61255b565b5b9250929050565b6000806000604084860312156125cf576125ce612522565b5b600084013567ffffffffffffffff8111156125ed576125ec612527565b5b6125f986828701612531565b935050602084013567ffffffffffffffff81111561261a57612619612527565b5b61262686828701612560565b92509250509250925092565b600073ffffffffffffffffffffffffffffffffffffffff82169050919050565b600061265d82612632565b9050919050565b61266d81612652565b82525050565b60006020820190506126886000830184612664565b92915050565b600080600080604085870312156126a8576126a7612522565b5b600085013567ffffffffffffffff8111156126c6576126c5612527565b5b6126d287828801612560565b9450945050602085013567ffffffffffffffff8111156126f5576126f4612527565b5b61270187828801612560565b925092505092959194509250565b61271881612652565b811461272357600080fd5b50565b6000813590506127358161270f565b92915050565b60006020828403121561275157612750612522565b5b600061275f84828501612726565b91505092915050565b600082825260208201905092915050565b7f4f776e61626c653a2063616c6c6572206973206e6f7420746865206f776e6572600082015250565b60006127af602083612768565b91506127ba82612779565b602082019050919050565b600060208201905081810360008301526127de816127a2565b9050919050565b600080fd5b600080fd5b600080fd5b60008083356001602003843603038112612811576128106127e5565b5b80840192508235915067ffffffffffffffff821115612833576128326127ea565b5b60208301925060018202360383131561284f5761284e6127ef565b5b509250929050565b600081905092915050565b82818337600083830152505050565b600061287d8385612857565b935061288a838584612862565b82840190509392505050565b60006128a3828486612871565b91508190509392505050565b60006128ba82612632565b9050919050565b6128ca816128af565b81146128d557600080fd5b50565b6000813590506128e7816128c1565b92915050565b60006020828403121561290357612902612522565b5b6000612911848285016128d8565b91505092915050565b7f7768697465000000000000000000000000000000000000000000000000000000600082015250565b6000612950600583612857565b915061295b8261291a565b600582019050919050565b600061297182612943565b9150819050919050565b7f626c61636b000000000000000000000000000000000000000000000000000000600082015250565b60006129b1600583612857565b91506129bc8261297b565b600582019050919050565b60006129d2826129a4565b9150819050919050565b7f4e487b7100000000000000000000000000000000000000000000000000000000600052601160045260246000fd5b6000612a16826124ee565b9150612a21836124ee565b9250827fffffffffffffffffffffffffffffffffffffffffffffffffffffffffffffffff03821115612a5657612a556129dc565b5b828201905092915050565b7f7573657231206861732070616964000000000000000000000000000000000000600082015250565b6000612a97600e83612768565b9150612aa282612a61565b602082019050919050565b6000601f19601f8301169050919050565b6000612aca8385612768565b9350612ad7838584612862565b612ae083612aad565b840190509392505050565b60006060820190508181036000830152612b0481612a8a565b90508181036020830152612b19818688612abe565b90508181036040830152612b2e818486612abe565b905095945050505050565b6000612b44826124ee565b9150612b4f836124ee565b9250817fffffffffffffffffffffffffffffffffffffffffffffffffffffffffffffffff0483118215151615612b8857612b876129dc565b5b828202905092915050565b7f4e487b7100000000000000000000000000000000000000000000000000000000600052601260045260246000fd5b6000612bcd826124ee565b9150612bd8836124ee565b925082612be857612be7612b93565b5b828204905092915050565b7f7573657232206861732070616964000000000000000000000000000000000000600082015250565b6000612c29600e83612768565b9150612c3482612bf3565b602082019050919050565b60006060820190508181036000830152612c5881612c1c565b90508181036020830152612c6d818688612abe565b90508181036040830152612c82818486612abe565b905095945050505050565b612c96816124ee565b8114612ca157600080fd5b50565b60008135612cb181612c8d565b80915050919050565b60008160001b9050919050565b60007fffffffffffffffffffffffffffffffffffffffffffffffffffffffffffffffff612cf384612cba565b9350801983169250808416831791505092915050565b6000819050919050565b6000612d2e612d29612d24846124ee565b612d09565b6124ee565b9050919050565b6000819050919050565b612d4882612d13565b612d5b612d5482612d35565b8354612cc7565b8255505050565b600082905092915050565b7f4e487b7100000000000000000000000000000000000000000000000000000000600052604160045260246000fd5b7f4e487b7100000000000000000000000000000000000000000000000000000000600052602260045260246000fd5b60006002820490506001821680612de357607f821691505b60208210811415612df757612df6612d9c565b5b50919050565b60008190508160005260206000209050919050565b60006020601f8301049050919050565b600082821b905092915050565b600060088302612e5f7fffffffffffffffffffffffffffffffffffffffffffffffffffffffffffffffff82612e22565b612e698683612e22565b95508019841693508086168417925050509392505050565b612e8a83612d13565b612e9e612e9682612d35565b848454612e2f565b825550505050565b600090565b612eb3612ea6565b612ebe818484612e81565b505050565b5b81811015612ee257612ed7600082612eab565b600181019050612ec4565b5050565b601f821115612f2757612ef881612dfd565b612f0184612e12565b81016020851015612f10578190505b612f24612f1c85612e12565b830182612ec3565b50505b505050565b600082821c905092915050565b6000612f4a60001984600802612f2c565b1980831691505092915050565b6000612f638383612f39565b9150826002028217905092915050565b612f7d8383612d62565b67ffffffffffffffff811115612f9657612f95612d6d565b5b612fa08254612dcb565b612fab828285612ee6565b6000601f831160018114612fda5760008415612fc8578287013590505b612fd28582612f57565b86555061303a565b601f198416612fe886612dfd565b60005b8281101561301057848901358255600182019150602085019450602081019050612feb565b8683101561302d5784890135613029601f891682612f39565b8355505b6001600288020188555050505b50505050505050565b61304e838383612f73565b505050565b60008135613060816128c1565b80915050919050565b600073ffffffffffffffffffffffffffffffffffffffff61308984612cba565b9350801983169250808416831791505092915050565b60006130ba6130b56130b084612632565b612d09565b612632565b9050919050565b60006130cc8261309f565b9050919050565b60006130de826130c1565b9050919050565b6000819050919050565b6130f8826130d3565b61310b613104826130e5565b8354613069565b8255505050565b60008101600083018061312481612ca4565b90506131308184612d3f565b505050600181016020830161314581856127f4565b613150818386613043565b50505050600281016040830161316681856127f4565b613171818386613043565b5050505060038101606083018061318781613053565b905061319381846130ef565b50505060048101608083016131a881856127f4565b6131b3818386613043565b505050506005810160a08301806131c981613053565b90506131d581846130ef565b5050506006810160c08301806131ea81612ca4565b90506131f68184612d3f565b5050506007810160e0830161320b81856127f4565b613216818386613043565b505050506008810161010083018061322d81612ca4565b90506132398184612d3f565b5050505050565b61324a8282613112565b5050565b6000815461325b81612dcb565b6132658186612857565b945060018216600081146132805760018114613291576132c4565b60ff198316865281860193506132c4565b61329a85612dfd565b60005b838110156132bc5781548189015260018201915060208101905061329d565b838801955050505b50505092915050565b60006132d9828461324e565b915081905092915050565b7f7573657232000000000000000000000000000000000000000000000000000000600082015250565b600061331a600583612857565b9150613325826132e4565b600582019050919050565b600061333b8261330d565b9150819050919050565b7f4e487b7100000000000000000000000000000000000000000000000000000000600052603260045260246000fd5b7f7573657231000000000000000000000000000000000000000000000000000000600082015250565b60006133aa600583612857565b91506133b582613374565b600582019050919050565b60006133cb8261339d565b9150819050919050565b600081546133e281612dcb565b6133ec8186612768565b9450600182166000811461340757600181146134195761344c565b60ff198316865260208601935061344c565b61342285612dfd565b60005b8381101561344457815481890152600182019150602081019050613425565b808801955050505b50505092915050565b60008115159050919050565b61346a81613455565b82525050565b6000608082019050818103600083015261348a81886133d5565b9050818103602083015261349f818688612abe565b90506134ae6040830185613461565b6134bb6060830184613461565b9695505050505050565b7f6472617700000000000000000000000000000000000000000000000000000000600082015250565b60006134fb600483612857565b9150613506826134c5565b600482019050919050565b600061351c826134ee565b9150819050919050565b6000613531826124ee565b915061353c836124ee565b92508282101561354f5761354e6129dc565b5b828203905092915050565b600081519050919050565b60005b83811015613583578082015181840152602081019050613568565b83811115613592576000848401525b50505050565b60006135a38261355a565b6135ad8185612857565b93506135bd818560208601613565565b80840191505092915050565b60006135d58284613598565b915081905092915050565b60006135eb826124ee565b91507fffffffffffffffffffffffffffffffffffffffffffffffffffffffffffffffff82141561361e5761361d6129dc565b5b600182019050919050565b7f4f776e61626c653a206e6577206f776e657220697320746865207a65726f206160008201527f6464726573730000000000000000000000000000000000000000000000000000602082015250565b6000613685602683612768565b915061369082613629565b604082019050919050565b600060208201905081810360008301526136b481613678565b905091905056fea26469706673582212201a7eb24d931b6b7268c9a3a54fd69d9274d2b060d211d5d34ae9a586de47c81664736f6c634300080b0033",
  "linkReferences": {},
  "deployedLinkReferences": {}
}