{
  "_format": "hh-sol-artifact-1",
  "contractName": "ChessWager",
  "sourceName": "contracts/ChessWager.sol",
  "abi": [
    {
      "inputs": [],
      "stateMutability": "nonpayable",
      "type": "constructor"
    },
    {
      "anonymous": false,
      "inputs": [
        {
          "indexed": false,
          "internalType": "string",
          "name": "message",
          "type": "string"
        },
        {
          "indexed": false,
          "internalType": "string",
          "name": "betId",
          "type": "string"
        },
        {
          "indexed": false,
          "internalType": "string",
          "name": "gameId",
          "type": "string"
        }
      ],
      "name": "BetPlacedStatus",
      "type": "event"
    },
    {
      "anonymous": false,
      "inputs": [
        {
          "indexed": true,
          "internalType": "address",
          "name": "previousOwner",
          "type": "address"
        },
        {
          "indexed": true,
          "internalType": "address",
          "name": "newOwner",
          "type": "address"
        }
      ],
      "name": "OwnershipTransferred",
      "type": "event"
    },
    {
      "anonymous": false,
      "inputs": [
        {
          "indexed": false,
          "internalType": "string",
          "name": "betId",
          "type": "string"
        },
        {
          "indexed": false,
          "internalType": "string",
          "name": "gameId",
          "type": "string"
        },
        {
          "indexed": false,
          "internalType": "bool",
          "name": "didUser1Pay",
          "type": "bool"
        },
        {
          "indexed": false,
          "internalType": "bool",
          "name": "didUser2Pay",
          "type": "bool"
        },
        {
          "indexed": false,
          "internalType": "string",
          "name": "winningSide",
          "type": "string"
        }
      ],
      "name": "PayoutStatus",
      "type": "event"
    },
    {
      "inputs": [],
      "name": "owner",
      "outputs": [
        {
          "internalType": "address",
          "name": "",
          "type": "address"
        }
      ],
      "stateMutability": "view",
      "type": "function"
    },
    {
      "inputs": [
        {
          "internalType": "string",
          "name": "_betId",
          "type": "string"
        },
        {
          "internalType": "string",
          "name": "_winningSide",
          "type": "string"
        }
      ],
      "name": "payToSpecificBet",
      "outputs": [],
      "stateMutability": "payable",
      "type": "function"
    },
    {
      "inputs": [
        {
          "internalType": "string",
          "name": "_gameId",
          "type": "string"
        },
        {
          "internalType": "string",
          "name": "winningSide",
          "type": "string"
        }
      ],
      "name": "payWinners",
      "outputs": [],
      "stateMutability": "payable",
      "type": "function"
    },
    {
      "inputs": [
        {
          "components": [
            {
              "internalType": "uint256",
              "name": "amount",
              "type": "uint256"
            },
            {
              "internalType": "string",
              "name": "betSide",
              "type": "string"
            },
            {
              "internalType": "string",
              "name": "user1Id",
              "type": "string"
            },
            {
              "internalType": "address payable",
              "name": "user1Metamask",
              "type": "address"
            },
            {
              "internalType": "string",
              "name": "user2Id",
              "type": "string"
            },
            {
              "internalType": "address payable",
              "name": "user2Metamask",
              "type": "address"
            },
            {
              "internalType": "uint256",
              "name": "multiplier",
              "type": "uint256"
            },
            {
              "internalType": "string",
              "name": "gameId",
              "type": "string"
            },
            {
              "internalType": "uint256",
              "name": "timestamp",
              "type": "uint256"
            }
          ],
          "internalType": "struct ChessWager.Bet",
          "name": "_bet",
          "type": "tuple"
        },
        {
          "internalType": "string",
          "name": "_betId",
          "type": "string"
        }
      ],
      "name": "placeBet",
      "outputs": [],
      "stateMutability": "payable",
      "type": "function"
    },
    {
      "inputs": [],
      "name": "renounceOwnership",
      "outputs": [],
      "stateMutability": "nonpayable",
      "type": "function"
    },
    {
      "inputs": [],
      "name": "totalWagered",
      "outputs": [
        {
          "internalType": "uint256",
          "name": "",
          "type": "uint256"
        }
      ],
      "stateMutability": "view",
      "type": "function"
    },
    {
      "inputs": [
        {
          "internalType": "address",
          "name": "newOwner",
          "type": "address"
        }
      ],
      "name": "transferOwnership",
      "outputs": [],
      "stateMutability": "nonpayable",
      "type": "function"
    },
    {
      "inputs": [],
      "name": "viewChessWagerBalance",
      "outputs": [
        {
          "internalType": "uint256",
          "name": "",
          "type": "uint256"
        }
      ],
      "stateMutability": "view",
      "type": "function"
    },
    {
      "inputs": [],
      "name": "withdrawChessWagerBalance",
      "outputs": [],
      "stateMutability": "payable",
      "type": "function"
    }
  ],
  "bytecode": "0x60806040523480156200001157600080fd5b5062000032620000266200008160201b60201c565b6200008960201b60201c565b33600960006101000a81548173ffffffffffffffffffffffffffffffffffffffff021916908373ffffffffffffffffffffffffffffffffffffffff16021790555060006008819055506200014d565b600033905090565b60008060009054906101000a900473ffffffffffffffffffffffffffffffffffffffff169050816000806101000a81548173ffffffffffffffffffffffffffffffffffffffff021916908373ffffffffffffffffffffffffffffffffffffffff1602179055508173ffffffffffffffffffffffffffffffffffffffff168173ffffffffffffffffffffffffffffffffffffffff167f8be0079c531659141344cd1fd0a4f28419497f9722a3daafe3b4186f6b6457e060405160405180910390a35050565b6137c0806200015d6000396000f3fe6080604052600436106100865760003560e01c80638a14f12c116100595780638a14f12c146100f35780638da5cb5b1461011e578063c2b630ca14610149578063f2fde38b14610165578063f87f79a61461018e57610086565b8063137294b01461008b578063216a6641146100b657806335f11837146100c0578063715018a6146100dc575b600080fd5b34801561009757600080fd5b506100a06101aa565b6040516100ad919061250b565b60405180910390f35b6100be610230565b005b6100da60048036038101906100d591906125ba565b610321565b005b3480156100e857600080fd5b506100f1610e6f565b005b3480156100ff57600080fd5b50610108610ef7565b604051610115919061250b565b60405180910390f35b34801561012a57600080fd5b50610133610efd565b6040516101409190612677565b60405180910390f35b610163600480360381019061015e9190612692565b610f26565b005b34801561017157600080fd5b5061018c6004803603810190610187919061273f565b611a4d565b005b6101a860048036038101906101a39190612692565b611b45565b005b60006101b46122fd565b73ffffffffffffffffffffffffffffffffffffffff166101d2610efd565b73ffffffffffffffffffffffffffffffffffffffff1614610228576040517f08c379a000000000000000000000000000000000000000000000000000000000815260040161021f906127c9565b60405180910390fd5b600854905090565b6102386122fd565b73ffffffffffffffffffffffffffffffffffffffff16610256610efd565b73ffffffffffffffffffffffffffffffffffffffff16146102ac576040517f08c379a00000000000000000000000000000000000000000000000000000000081526004016102a3906127c9565b60405180910390fd5b600960009054906101000a900473ffffffffffffffffffffffffffffffffffffffff1673ffffffffffffffffffffffffffffffffffffffff166108fc6008549081150290604051600060405180830381858888f19350505050158015610316573d6000803e3d6000fd5b506000600881905550565b600115156001848060e0019061033791906127f8565b60405161034592919061289a565b908152602001604051809103902060009054906101000a900460ff161515141561036e57600080fd5b82606001602081019061038191906128f1565b73ffffffffffffffffffffffffffffffffffffffff163373ffffffffffffffffffffffffffffffffffffffff1614806103f757508260a00160208101906103c891906128f1565b73ffffffffffffffffffffffffffffffffffffffff163373ffffffffffffffffffffffffffffffffffffffff16145b61040057600080fd5b600015156005838360405161041692919061289a565b908152602001604051809103902060009054906101000a900460ff1615151461043e57600080fd5b60405160200161044d9061296a565b6040516020818303038152906040528051906020012083806020019061047391906127f8565b60405160200161048492919061289a565b6040516020818303038152906040528051906020012014806104ff57506040516020016104b0906129cb565b604051602081830303815290604052805190602001208380602001906104d691906127f8565b6040516020016104e792919061289a565b60405160208183030381529060405280519060200120145b61050857600080fd5b34600a600082825461051a9190612a0f565b9250508190555060006002838360405161053592919061289a565b908152602001604051809103902060060154141561083e5760006004838360405161056192919061289a565b908152602001604051809103902060006101000a81548160ff02191690831515021790555082606001602081019061059991906128f1565b73ffffffffffffffffffffffffffffffffffffffff163373ffffffffffffffffffffffffffffffffffffffff16141561069657826000013534146105dc57600080fd5b6040518060400160405280600581526020017f75736572310000000000000000000000000000000000000000000000000000008152506006838360405161062492919061289a565b908152602001604051809103902090805190602001906106459291906123c9565b507f2704af9c38c87047a2c2bc9ac70641e30b504a3c5fee2796f80dbd745fd724658282858060e0019061067991906127f8565b6040516106899493929190612aef565b60405180910390a1610777565b60648360c0013584600001356106ac9190612b3d565b6106b69190612bc6565b34146106c157600080fd5b6040518060400160405280600581526020017f75736572320000000000000000000000000000000000000000000000000000008152506006838360405161070992919061289a565b9081526020016040518091039020908051906020019061072a9291906123c9565b507f2704af9c38c87047a2c2bc9ac70641e30b504a3c5fee2796f80dbd745fd724658282858060e0019061075e91906127f8565b60405161076e9493929190612c43565b60405180910390a15b346003838360405161078a92919061289a565b9081526020016040518091039020819055506007838060e001906107ae91906127f8565b6040516107bc92919061289a565b908152602001604051809103902060000182829091806001815401808255809150506001900390600052602060002001600090919290919290919290919250919061080892919061244f565b50826002838360405161081c92919061289a565b908152602001604051809103902081816108369190613244565b905050610e6a565b82600001356002838360405161085592919061289a565b9081526020016040518091039020600001541461087157600080fd5b82806020019061088191906127f8565b60405160200161089292919061289a565b60405160208183030381529060405280519060200120600283836040516108ba92919061289a565b90815260200160405180910390206001016040516020016108db91906132d1565b60405160208183030381529060405280519060200120146108fb57600080fd5b82806040019061090b91906127f8565b60405160200161091c92919061289a565b604051602081830303815290604052805190602001206002838360405161094492919061289a565b908152602001604051809103902060020160405160200161096591906132d1565b604051602081830303815290604052805190602001201461098557600080fd5b82606001602081019061099891906128f1565b73ffffffffffffffffffffffffffffffffffffffff16600283836040516109c092919061289a565b908152602001604051809103902060030160009054906101000a900473ffffffffffffffffffffffffffffffffffffffff1673ffffffffffffffffffffffffffffffffffffffff1614610a1257600080fd5b828060800190610a2291906127f8565b604051602001610a3392919061289a565b6040516020818303038152906040528051906020012060028383604051610a5b92919061289a565b9081526020016040518091039020600401604051602001610a7c91906132d1565b6040516020818303038152906040528051906020012014610a9c57600080fd5b8260a0016020810190610aaf91906128f1565b73ffffffffffffffffffffffffffffffffffffffff1660028383604051610ad792919061289a565b908152602001604051809103902060050160009054906101000a900473ffffffffffffffffffffffffffffffffffffffff1673ffffffffffffffffffffffffffffffffffffffff1614610b2957600080fd5b8260c0013560028383604051610b4092919061289a565b90815260200160405180910390206006015414610b5c57600080fd5b828060e00190610b6c91906127f8565b604051602001610b7d92919061289a565b6040516020818303038152906040528051906020012060028383604051610ba592919061289a565b9081526020016040518091039020600701604051602001610bc691906132d1565b6040516020818303038152906040528051906020012014610be657600080fd5b604051602001610bf590613334565b6040516020818303038152906040528051906020012060068383604051610c1d92919061289a565b9081526020016040518091039020604051602001610c3b91906132d1565b604051602081830303815290604052805190602001201415610d3857826060016020810190610c6a91906128f1565b73ffffffffffffffffffffffffffffffffffffffff163373ffffffffffffffffffffffffffffffffffffffff1614610ca157600080fd5b82600001353414610cb157600080fd5b3460038383604051610cc492919061289a565b90815260200160405180910390206000828254610ce19190612a0f565b925050819055507f2704af9c38c87047a2c2bc9ac70641e30b504a3c5fee2796f80dbd745fd724658282858060e00190610d1b91906127f8565b604051610d2b9493929190612aef565b60405180910390a1610e30565b8260a0016020810190610d4b91906128f1565b73ffffffffffffffffffffffffffffffffffffffff163373ffffffffffffffffffffffffffffffffffffffff1614610d8257600080fd5b60648360c001358460000135610d989190612b3d565b610da29190612bc6565b3414610dad57600080fd5b3460038383604051610dc092919061289a565b90815260200160405180910390206000828254610ddd9190612a0f565b925050819055507f2704af9c38c87047a2c2bc9ac70641e30b504a3c5fee2796f80dbd745fd724658282858060e00190610e1791906127f8565b604051610e279493929190612c43565b60405180910390a15b600160048383604051610e4492919061289a565b908152602001604051809103902060006101000a81548160ff0219169083151502179055505b505050565b610e776122fd565b73ffffffffffffffffffffffffffffffffffffffff16610e95610efd565b73ffffffffffffffffffffffffffffffffffffffff1614610eeb576040517f08c379a0000000000000000000000000000000000000000000000000000000008152600401610ee2906127c9565b60405180910390fd5b610ef56000612305565b565b600a5481565b60008060009054906101000a900473ffffffffffffffffffffffffffffffffffffffff16905090565b610f2e6122fd565b73ffffffffffffffffffffffffffffffffffffffff16610f4c610efd565b73ffffffffffffffffffffffffffffffffffffffff1614610fa2576040517f08c379a0000000000000000000000000000000000000000000000000000000008152600401610f99906127c9565b60405180910390fd5b6001808585604051610fb592919061289a565b908152602001604051809103902060006101000a81548160ff02191690831515021790555060005b60078585604051610fef92919061289a565b908152602001604051809103902060000180549050811015611a4657600060026007878760405161102192919061289a565b9081526020016040518091039020600001838154811061104457611043613349565b5b9060005260206000200160405161105b91906132d1565b9081526020016040518091039020604051806101200160405290816000820154815260200160018201805461108f90612dcf565b80601f01602080910402602001604051908101604052809291908181526020018280546110bb90612dcf565b80156111085780601f106110dd57610100808354040283529160200191611108565b820191906000526020600020905b8154815290600101906020018083116110eb57829003601f168201915b5050505050815260200160028201805461112190612dcf565b80601f016020809104026020016040519081016040528092919081815260200182805461114d90612dcf565b801561119a5780601f1061116f5761010080835404028352916020019161119a565b820191906000526020600020905b81548152906001019060200180831161117d57829003601f168201915b505050505081526020016003820160009054906101000a900473ffffffffffffffffffffffffffffffffffffffff1673ffffffffffffffffffffffffffffffffffffffff1673ffffffffffffffffffffffffffffffffffffffff16815260200160048201805461120990612dcf565b80601f016020809104026020016040519081016040528092919081815260200182805461123590612dcf565b80156112825780601f1061125757610100808354040283529160200191611282565b820191906000526020600020905b81548152906001019060200180831161126557829003601f168201915b505050505081526020016005820160009054906101000a900473ffffffffffffffffffffffffffffffffffffffff1673ffffffffffffffffffffffffffffffffffffffff1673ffffffffffffffffffffffffffffffffffffffff168152602001600682015481526020016007820180546112fb90612dcf565b80601f016020809104026020016040519081016040528092919081815260200182805461132790612dcf565b80156113745780601f1061134957610100808354040283529160200191611374565b820191906000526020600020905b81548152906001019060200180831161135757829003601f168201915b505050505081526020016008820154815250509050600060036007888860405161139f92919061289a565b908152602001604051809103902060000184815481106113c2576113c1613349565b5b906000526020600020016040516113d991906132d1565b9081526020016040518091039020549050600160056007898960405161140092919061289a565b9081526020016040518091039020600001858154811061142357611422613349565b5b9060005260206000200160405161143a91906132d1565b908152602001604051809103902060006101000a81548160ff0219169083151502179055506000151560046007898960405161147792919061289a565b9081526020016040518091039020600001858154811061149a57611499613349565b5b906000526020600020016040516114b191906132d1565b908152602001604051809103902060009054906101000a900460ff161515141561173e576040516020016114e4906133c4565b6040516020818303038152906040528051906020012060066007898960405161150e92919061289a565b9081526020016040518091039020600001858154811061153157611530613349565b5b9060005260206000200160405161154891906132d1565b908152602001604051809103902060405160200161156691906132d1565b60405160208183030381529060405280519060200120141561165157816060015173ffffffffffffffffffffffffffffffffffffffff166108fc829081150290604051600060405180830381858888f193505050501580156115cc573d6000803e3d6000fd5b507fd678dde1764648a4e84bba067ec49227087849fd6f35a0beb13376e7ce509ea26007888860405161160092919061289a565b9081526020016040518091039020600001848154811061162357611622613349565b5b906000526020600020018888600160006040516116449594939291906134c0565b60405180910390a1611737565b8160a0015173ffffffffffffffffffffffffffffffffffffffff166108fc60648460c00151846116819190612b3d565b61168b9190612bc6565b9081150290604051600060405180830381858888f193505050501580156116b6573d6000803e3d6000fd5b507fd678dde1764648a4e84bba067ec49227087849fd6f35a0beb13376e7ce509ea2600788886040516116ea92919061289a565b9081526020016040518091039020600001848154811061170d5761170c613349565b5b9060005260206000200188886000600160405161172e9594939291906134c0565b60405180910390a15b5050611a33565b7fd678dde1764648a4e84bba067ec49227087849fd6f35a0beb13376e7ce509ea26007888860405161177192919061289a565b9081526020016040518091039020600001848154811061179457611793613349565b5b9060005260206000200188886001808a8a6040516117b89796959493929190613528565b60405180910390a16040516020016117cf906135e0565b6040516020818303038152906040528051906020012085856040516020016117f892919061289a565b6040516020818303038152906040528051906020012014156118e957600060648360c001516118279190612bc6565b60016118339190612a0f565b8261183e9190612bc6565b9050826060015173ffffffffffffffffffffffffffffffffffffffff166108fc829081150290604051600060405180830381858888f1935050505015801561188a573d6000803e3d6000fd5b508260a0015173ffffffffffffffffffffffffffffffffffffffff166108fc82846118b591906135f5565b9081150290604051600060405180830381858888f193505050501580156118e0573d6000803e3d6000fd5b50505050611a33565b6000606460026009846118fc9190612b3d565b6119069190612bc6565b6119109190612bc6565b905080600860008282546119249190612a0f565b92505081905550808261193791906135f5565b9150858560405160200161194c92919061289a565b6040516020818303038152906040528051906020012083602001516040516020016119779190613698565b6040516020818303038152906040528051906020012014156119e357826060015173ffffffffffffffffffffffffffffffffffffffff166108fc839081150290604051600060405180830381858888f193505050501580156119dd573d6000803e3d6000fd5b50611a2f565b8260a0015173ffffffffffffffffffffffffffffffffffffffff166108fc839081150290604051600060405180830381858888f19350505050158015611a2d573d6000803e3d6000fd5b505b5050505b8080611a3e906136af565b915050610fdd565b5050505050565b611a556122fd565b73ffffffffffffffffffffffffffffffffffffffff16611a73610efd565b73ffffffffffffffffffffffffffffffffffffffff1614611ac9576040517f08c379a0000000000000000000000000000000000000000000000000000000008152600401611ac0906127c9565b60405180910390fd5b600073ffffffffffffffffffffffffffffffffffffffff168173ffffffffffffffffffffffffffffffffffffffff161415611b39576040517f08c379a0000000000000000000000000000000000000000000000000000000008152600401611b309061376a565b60405180910390fd5b611b4281612305565b50565b611b4d6122fd565b73ffffffffffffffffffffffffffffffffffffffff16611b6b610efd565b73ffffffffffffffffffffffffffffffffffffffff1614611bc1576040517f08c379a0000000000000000000000000000000000000000000000000000000008152600401611bb8906127c9565b60405180910390fd5b600060028585604051611bd592919061289a565b90815260200160405180910390206040518061012001604052908160008201548152602001600182018054611c0990612dcf565b80601f0160208091040260200160405190810160405280929190818152602001828054611c3590612dcf565b8015611c825780601f10611c5757610100808354040283529160200191611c82565b820191906000526020600020905b815481529060010190602001808311611c6557829003601f168201915b50505050508152602001600282018054611c9b90612dcf565b80601f0160208091040260200160405190810160405280929190818152602001828054611cc790612dcf565b8015611d145780601f10611ce957610100808354040283529160200191611d14565b820191906000526020600020905b815481529060010190602001808311611cf757829003601f168201915b505050505081526020016003820160009054906101000a900473ffffffffffffffffffffffffffffffffffffffff1673ffffffffffffffffffffffffffffffffffffffff1673ffffffffffffffffffffffffffffffffffffffff168152602001600482018054611d8390612dcf565b80601f0160208091040260200160405190810160405280929190818152602001828054611daf90612dcf565b8015611dfc5780601f10611dd157610100808354040283529160200191611dfc565b820191906000526020600020905b815481529060010190602001808311611ddf57829003601f168201915b505050505081526020016005820160009054906101000a900473ffffffffffffffffffffffffffffffffffffffff1673ffffffffffffffffffffffffffffffffffffffff1673ffffffffffffffffffffffffffffffffffffffff16815260200160068201548152602001600782018054611e7590612dcf565b80601f0160208091040260200160405190810160405280929190818152602001828054611ea190612dcf565b8015611eee5780601f10611ec357610100808354040283529160200191611eee565b820191906000526020600020905b815481529060010190602001808311611ed157829003601f168201915b505050505081526020016008820154815250509050600060038686604051611f1792919061289a565b90815260200160405180910390205490506000151560048787604051611f3e92919061289a565b908152602001604051809103902060009054906101000a900460ff161515141561208b57604051602001611f71906133c4565b6040516020818303038152906040528051906020012060068787604051611f9992919061289a565b9081526020016040518091039020604051602001611fb791906132d1565b60405160208183030381529060405280519060200120141561202357816060015173ffffffffffffffffffffffffffffffffffffffff166108fc829081150290604051600060405180830381858888f1935050505015801561201d573d6000803e3d6000fd5b5061208a565b8160a0015173ffffffffffffffffffffffffffffffffffffffff166108fc60648460c00151846120539190612b3d565b61205d9190612bc6565b9081150290604051600060405180830381858888f19350505050158015612088573d6000803e3d6000fd5b505b5b60405160200161209a906135e0565b6040516020818303038152906040528051906020012084846040516020016120c392919061289a565b6040516020818303038152906040528051906020012014156121ae57600060648360c001516120f29190612bc6565b60016120fe9190612a0f565b826121099190612bc6565b9050826060015173ffffffffffffffffffffffffffffffffffffffff166108fc829081150290604051600060405180830381858888f19350505050158015612155573d6000803e3d6000fd5b508260a0015173ffffffffffffffffffffffffffffffffffffffff166108fc828461218091906135f5565b9081150290604051600060405180830381858888f193505050501580156121ab573d6000803e3d6000fd5b50505b6000606460026009846121c19190612b3d565b6121cb9190612bc6565b6121d59190612bc6565b905080600860008282546121e99190612a0f565b9250508190555080826121fc91906135f5565b9150848460405160200161221192919061289a565b60405160208183030381529060405280519060200120836020015160405160200161223c9190613698565b6040516020818303038152906040528051906020012014156122a857826060015173ffffffffffffffffffffffffffffffffffffffff166108fc839081150290604051600060405180830381858888f193505050501580156122a2573d6000803e3d6000fd5b506122f4565b8260a0015173ffffffffffffffffffffffffffffffffffffffff166108fc839081150290604051600060405180830381858888f193505050501580156122f2573d6000803e3d6000fd5b505b50505050505050565b600033905090565b60008060009054906101000a900473ffffffffffffffffffffffffffffffffffffffff169050816000806101000a81548173ffffffffffffffffffffffffffffffffffffffff021916908373ffffffffffffffffffffffffffffffffffffffff1602179055508173ffffffffffffffffffffffffffffffffffffffff168173ffffffffffffffffffffffffffffffffffffffff167f8be0079c531659141344cd1fd0a4f28419497f9722a3daafe3b4186f6b6457e060405160405180910390a35050565b8280546123d590612dcf565b90600052602060002090601f0160209004810192826123f7576000855561243e565b82601f1061241057805160ff191683800117855561243e565b8280016001018555821561243e579182015b8281111561243d578251825591602001919060010190612422565b5b50905061244b91906124d5565b5090565b82805461245b90612dcf565b90600052602060002090601f01602090048101928261247d57600085556124c4565b82601f1061249657803560ff19168380011785556124c4565b828001600101855582156124c4579182015b828111156124c35782358255916020019190600101906124a8565b5b5090506124d191906124d5565b5090565b5b808211156124ee5760008160009055506001016124d6565b5090565b6000819050919050565b612505816124f2565b82525050565b600060208201905061252060008301846124fc565b92915050565b600080fd5b600080fd5b600080fd5b6000610120828403121561254c5761254b612530565b5b81905092915050565b600080fd5b600080fd5b600080fd5b60008083601f84011261257a57612579612555565b5b8235905067ffffffffffffffff8111156125975761259661255a565b5b6020830191508360018202830111156125b3576125b261255f565b5b9250929050565b6000806000604084860312156125d3576125d2612526565b5b600084013567ffffffffffffffff8111156125f1576125f061252b565b5b6125fd86828701612535565b935050602084013567ffffffffffffffff81111561261e5761261d61252b565b5b61262a86828701612564565b92509250509250925092565b600073ffffffffffffffffffffffffffffffffffffffff82169050919050565b600061266182612636565b9050919050565b61267181612656565b82525050565b600060208201905061268c6000830184612668565b92915050565b600080600080604085870312156126ac576126ab612526565b5b600085013567ffffffffffffffff8111156126ca576126c961252b565b5b6126d687828801612564565b9450945050602085013567ffffffffffffffff8111156126f9576126f861252b565b5b61270587828801612564565b925092505092959194509250565b61271c81612656565b811461272757600080fd5b50565b60008135905061273981612713565b92915050565b60006020828403121561275557612754612526565b5b60006127638482850161272a565b91505092915050565b600082825260208201905092915050565b7f4f776e61626c653a2063616c6c6572206973206e6f7420746865206f776e6572600082015250565b60006127b360208361276c565b91506127be8261277d565b602082019050919050565b600060208201905081810360008301526127e2816127a6565b9050919050565b600080fd5b600080fd5b600080fd5b60008083356001602003843603038112612815576128146127e9565b5b80840192508235915067ffffffffffffffff821115612837576128366127ee565b5b602083019250600182023603831315612853576128526127f3565b5b509250929050565b600081905092915050565b82818337600083830152505050565b6000612881838561285b565b935061288e838584612866565b82840190509392505050565b60006128a7828486612875565b91508190509392505050565b60006128be82612636565b9050919050565b6128ce816128b3565b81146128d957600080fd5b50565b6000813590506128eb816128c5565b92915050565b60006020828403121561290757612906612526565b5b6000612915848285016128dc565b91505092915050565b7f7768697465000000000000000000000000000000000000000000000000000000600082015250565b600061295460058361285b565b915061295f8261291e565b600582019050919050565b600061297582612947565b9150819050919050565b7f626c61636b000000000000000000000000000000000000000000000000000000600082015250565b60006129b560058361285b565b91506129c08261297f565b600582019050919050565b60006129d6826129a8565b9150819050919050565b7f4e487b7100000000000000000000000000000000000000000000000000000000600052601160045260246000fd5b6000612a1a826124f2565b9150612a25836124f2565b9250827fffffffffffffffffffffffffffffffffffffffffffffffffffffffffffffffff03821115612a5a57612a596129e0565b5b828201905092915050565b7f7573657231206861732070616964000000000000000000000000000000000000600082015250565b6000612a9b600e8361276c565b9150612aa682612a65565b602082019050919050565b6000601f19601f8301169050919050565b6000612ace838561276c565b9350612adb838584612866565b612ae483612ab1565b840190509392505050565b60006060820190508181036000830152612b0881612a8e565b90508181036020830152612b1d818688612ac2565b90508181036040830152612b32818486612ac2565b905095945050505050565b6000612b48826124f2565b9150612b53836124f2565b9250817fffffffffffffffffffffffffffffffffffffffffffffffffffffffffffffffff0483118215151615612b8c57612b8b6129e0565b5b828202905092915050565b7f4e487b7100000000000000000000000000000000000000000000000000000000600052601260045260246000fd5b6000612bd1826124f2565b9150612bdc836124f2565b925082612bec57612beb612b97565b5b828204905092915050565b7f7573657232206861732070616964000000000000000000000000000000000000600082015250565b6000612c2d600e8361276c565b9150612c3882612bf7565b602082019050919050565b60006060820190508181036000830152612c5c81612c20565b90508181036020830152612c71818688612ac2565b90508181036040830152612c86818486612ac2565b905095945050505050565b612c9a816124f2565b8114612ca557600080fd5b50565b60008135612cb581612c91565b80915050919050565b60008160001b9050919050565b60007fffffffffffffffffffffffffffffffffffffffffffffffffffffffffffffffff612cf784612cbe565b9350801983169250808416831791505092915050565b6000819050919050565b6000612d32612d2d612d28846124f2565b612d0d565b6124f2565b9050919050565b6000819050919050565b612d4c82612d17565b612d5f612d5882612d39565b8354612ccb565b8255505050565b600082905092915050565b7f4e487b7100000000000000000000000000000000000000000000000000000000600052604160045260246000fd5b7f4e487b7100000000000000000000000000000000000000000000000000000000600052602260045260246000fd5b60006002820490506001821680612de757607f821691505b60208210811415612dfb57612dfa612da0565b5b50919050565b60008190508160005260206000209050919050565b60006020601f8301049050919050565b600082821b905092915050565b600060088302612e637fffffffffffffffffffffffffffffffffffffffffffffffffffffffffffffffff82612e26565b612e6d8683612e26565b95508019841693508086168417925050509392505050565b612e8e83612d17565b612ea2612e9a82612d39565b848454612e33565b825550505050565b600090565b612eb7612eaa565b612ec2818484612e85565b505050565b5b81811015612ee657612edb600082612eaf565b600181019050612ec8565b5050565b601f821115612f2b57612efc81612e01565b612f0584612e16565b81016020851015612f14578190505b612f28612f2085612e16565b830182612ec7565b50505b505050565b600082821c905092915050565b6000612f4e60001984600802612f30565b1980831691505092915050565b6000612f678383612f3d565b9150826002028217905092915050565b612f818383612d66565b67ffffffffffffffff811115612f9a57612f99612d71565b5b612fa48254612dcf565b612faf828285612eea565b6000601f831160018114612fde5760008415612fcc578287013590505b612fd68582612f5b565b86555061303e565b601f198416612fec86612e01565b60005b8281101561301457848901358255600182019150602085019450602081019050612fef565b86831015613031578489013561302d601f891682612f3d565b8355505b6001600288020188555050505b50505050505050565b613052838383612f77565b505050565b60008135613064816128c5565b80915050919050565b600073ffffffffffffffffffffffffffffffffffffffff61308d84612cbe565b9350801983169250808416831791505092915050565b60006130be6130b96130b484612636565b612d0d565b612636565b9050919050565b60006130d0826130a3565b9050919050565b60006130e2826130c5565b9050919050565b6000819050919050565b6130fc826130d7565b61310f613108826130e9565b835461306d565b8255505050565b60008101600083018061312881612ca8565b90506131348184612d43565b505050600181016020830161314981856127f8565b613154818386613047565b50505050600281016040830161316a81856127f8565b613175818386613047565b5050505060038101606083018061318b81613057565b905061319781846130f3565b50505060048101608083016131ac81856127f8565b6131b7818386613047565b505050506005810160a08301806131cd81613057565b90506131d981846130f3565b5050506006810160c08301806131ee81612ca8565b90506131fa8184612d43565b5050506007810160e0830161320f81856127f8565b61321a818386613047565b505050506008810161010083018061323181612ca8565b905061323d8184612d43565b5050505050565b61324e8282613116565b5050565b6000815461325f81612dcf565b613269818661285b565b945060018216600081146132845760018114613295576132c8565b60ff198316865281860193506132c8565b61329e85612e01565b60005b838110156132c0578154818901526001820191506020810190506132a1565b838801955050505b50505092915050565b60006132dd8284613252565b915081905092915050565b7f7573657232000000000000000000000000000000000000000000000000000000600082015250565b600061331e60058361285b565b9150613329826132e8565b600582019050919050565b600061333f82613311565b9150819050919050565b7f4e487b7100000000000000000000000000000000000000000000000000000000600052603260045260246000fd5b7f7573657231000000000000000000000000000000000000000000000000000000600082015250565b60006133ae60058361285b565b91506133b982613378565b600582019050919050565b60006133cf826133a1565b9150819050919050565b600081546133e681612dcf565b6133f0818661276c565b9450600182166000811461340b576001811461341d57613450565b60ff1983168652602086019350613450565b61342685612e01565b60005b8381101561344857815481890152600182019150602081019050613429565b808801955050505b50505092915050565b60008115159050919050565b61346e81613459565b82525050565b7f6e6f6e6500000000000000000000000000000000000000000000000000000000600082015250565b60006134aa60048361276c565b91506134b582613474565b602082019050919050565b600060a08201905081810360008301526134da81886133d9565b905081810360208301526134ef818688612ac2565b90506134fe6040830185613465565b61350b6060830184613465565b818103608083015261351c8161349d565b90509695505050505050565b600060a0820190508181036000830152613542818a6133d9565b9050818103602083015261355781888a612ac2565b90506135666040830187613465565b6135736060830186613465565b8181036080830152613586818486612ac2565b905098975050505050505050565b7f6472617700000000000000000000000000000000000000000000000000000000600082015250565b60006135ca60048361285b565b91506135d582613594565b600482019050919050565b60006135eb826135bd565b9150819050919050565b6000613600826124f2565b915061360b836124f2565b92508282101561361e5761361d6129e0565b5b828203905092915050565b600081519050919050565b60005b83811015613652578082015181840152602081019050613637565b83811115613661576000848401525b50505050565b600061367282613629565b61367c818561285b565b935061368c818560208601613634565b80840191505092915050565b60006136a48284613667565b915081905092915050565b60006136ba826124f2565b91507fffffffffffffffffffffffffffffffffffffffffffffffffffffffffffffffff8214156136ed576136ec6129e0565b5b600182019050919050565b7f4f776e61626c653a206e6577206f776e657220697320746865207a65726f206160008201527f6464726573730000000000000000000000000000000000000000000000000000602082015250565b600061375460268361276c565b915061375f826136f8565b604082019050919050565b6000602082019050818103600083015261378381613747565b905091905056fea264697066735822122071652c770b19b27e2ce5d20166077cf3fefa1806b931d37ac341ee333fee63ac64736f6c634300080b0033",
  "linkReferences": {},
  "deployedLinkReferences": {}
}