{
  "_format": "hh-sol-artifact-1",
  "contractName": "ChessWager",
  "sourceName": "contracts/ChessWager.sol",
  "abi": [
    {
      "inputs": [],
      "stateMutability": "nonpayable",
      "type": "constructor"
    },
    {
      "anonymous": false,
      "inputs": [
        {
          "indexed": false,
          "internalType": "string",
          "name": "message",
          "type": "string"
        },
        {
          "indexed": false,
          "internalType": "string",
          "name": "betId",
          "type": "string"
        },
        {
          "indexed": false,
          "internalType": "string",
          "name": "gameId",
          "type": "string"
        }
      ],
      "name": "BetPlacedStatus",
      "type": "event"
    },
    {
      "anonymous": false,
      "inputs": [
        {
          "indexed": true,
          "internalType": "address",
          "name": "previousOwner",
          "type": "address"
        },
        {
          "indexed": true,
          "internalType": "address",
          "name": "newOwner",
          "type": "address"
        }
      ],
      "name": "OwnershipTransferred",
      "type": "event"
    },
    {
      "anonymous": false,
      "inputs": [
        {
          "indexed": false,
          "internalType": "string",
          "name": "betId",
          "type": "string"
        },
        {
          "indexed": false,
          "internalType": "string",
          "name": "gameId",
          "type": "string"
        },
        {
          "indexed": false,
          "internalType": "bool",
          "name": "didUser1Pay",
          "type": "bool"
        },
        {
          "indexed": false,
          "internalType": "bool",
          "name": "didUser2Pay",
          "type": "bool"
        },
        {
          "indexed": false,
          "internalType": "string",
          "name": "winningSide",
          "type": "string"
        }
      ],
      "name": "PayoutStatus",
      "type": "event"
    },
    {
      "inputs": [],
      "name": "owner",
      "outputs": [
        {
          "internalType": "address",
          "name": "",
          "type": "address"
        }
      ],
      "stateMutability": "view",
      "type": "function"
    },
    {
      "inputs": [
        {
          "internalType": "string",
          "name": "_gameId",
          "type": "string"
        },
        {
          "internalType": "string",
          "name": "winningSide",
          "type": "string"
        }
      ],
      "name": "payWinners",
      "outputs": [],
      "stateMutability": "payable",
      "type": "function"
    },
    {
      "inputs": [
        {
          "components": [
            {
              "internalType": "uint256",
              "name": "amount",
              "type": "uint256"
            },
            {
              "internalType": "string",
              "name": "betSide",
              "type": "string"
            },
            {
              "internalType": "string",
              "name": "user1Id",
              "type": "string"
            },
            {
              "internalType": "address payable",
              "name": "user1Metamask",
              "type": "address"
            },
            {
              "internalType": "string",
              "name": "user2Id",
              "type": "string"
            },
            {
              "internalType": "address payable",
              "name": "user2Metamask",
              "type": "address"
            },
            {
              "internalType": "uint256",
              "name": "multiplier",
              "type": "uint256"
            },
            {
              "internalType": "string",
              "name": "gameId",
              "type": "string"
            },
            {
              "internalType": "uint256",
              "name": "timestamp",
              "type": "uint256"
            }
          ],
          "internalType": "struct ChessWager.Bet",
          "name": "_bet",
          "type": "tuple"
        },
        {
          "internalType": "string",
          "name": "_betId",
          "type": "string"
        }
      ],
      "name": "placeBet",
      "outputs": [],
      "stateMutability": "payable",
      "type": "function"
    },
    {
      "inputs": [],
      "name": "renounceOwnership",
      "outputs": [],
      "stateMutability": "nonpayable",
      "type": "function"
    },
    {
      "inputs": [],
      "name": "totalWagered",
      "outputs": [
        {
          "internalType": "uint256",
          "name": "",
          "type": "uint256"
        }
      ],
      "stateMutability": "view",
      "type": "function"
    },
    {
      "inputs": [
        {
          "internalType": "address",
          "name": "newOwner",
          "type": "address"
        }
      ],
      "name": "transferOwnership",
      "outputs": [],
      "stateMutability": "nonpayable",
      "type": "function"
    },
    {
      "inputs": [],
      "name": "viewChessWagerBalance",
      "outputs": [
        {
          "internalType": "uint256",
          "name": "",
          "type": "uint256"
        }
      ],
      "stateMutability": "view",
      "type": "function"
    },
    {
      "inputs": [],
      "name": "withdrawChessWagerBalance",
      "outputs": [],
      "stateMutability": "payable",
      "type": "function"
    }
  ],
  "bytecode": "0x60806040523480156200001157600080fd5b5062000032620000266200008160201b60201c565b6200008960201b60201c565b33600960006101000a81548173ffffffffffffffffffffffffffffffffffffffff021916908373ffffffffffffffffffffffffffffffffffffffff16021790555060006008819055506200014d565b600033905090565b60008060009054906101000a900473ffffffffffffffffffffffffffffffffffffffff169050816000806101000a81548173ffffffffffffffffffffffffffffffffffffffff021916908373ffffffffffffffffffffffffffffffffffffffff1602179055508173ffffffffffffffffffffffffffffffffffffffff168173ffffffffffffffffffffffffffffffffffffffff167f8be0079c531659141344cd1fd0a4f28419497f9722a3daafe3b4186f6b6457e060405160405180910390a35050565b613ae4806200015d6000396000f3fe60806040526004361061007b5760003560e01c80638a14f12c1161004e5780638a14f12c146100e85780638da5cb5b14610113578063c2b630ca1461013e578063f2fde38b1461015a5761007b565b8063137294b014610080578063216a6641146100ab57806335f11837146100b5578063715018a6146100d1575b600080fd5b34801561008c57600080fd5b50610095610183565b6040516100a29190611fa7565b60405180910390f35b6100b3610195565b005b6100cf60048036038101906100ca9190612056565b610212565b005b3480156100dd57600080fd5b506100e661112c565b005b3480156100f457600080fd5b506100fd611140565b60405161010a9190611fa7565b60405180910390f35b34801561011f57600080fd5b50610128611146565b6040516101359190612113565b60405180910390f35b6101586004803603810190610153919061212e565b61116f565b005b34801561016657600080fd5b50610181600480360381019061017c91906121db565b611c97565b005b600061018d611d1b565b600854905090565b61019d611d1b565b600960009054906101000a900473ffffffffffffffffffffffffffffffffffffffff1673ffffffffffffffffffffffffffffffffffffffff166108fc6008549081150290604051600060405180830381858888f19350505050158015610207573d6000803e3d6000fd5b506000600881905550565b600115156001848060e001906102289190612217565b6040516102369291906122b9565b908152602001604051809103902060009054906101000a900460ff1615151415610295576040517f08c379a000000000000000000000000000000000000000000000000000000000815260040161028c9061232f565b60405180910390fd5b8260600160208101906102a8919061238d565b73ffffffffffffffffffffffffffffffffffffffff163373ffffffffffffffffffffffffffffffffffffffff16148061031e57508260a00160208101906102ef919061238d565b73ffffffffffffffffffffffffffffffffffffffff163373ffffffffffffffffffffffffffffffffffffffff16145b61035d576040517f08c379a00000000000000000000000000000000000000000000000000000000081526004016103549061242c565b60405180910390fd5b60001515600583836040516103739291906122b9565b908152602001604051809103902060009054906101000a900460ff161515146103d1576040517f08c379a00000000000000000000000000000000000000000000000000000000081526004016103c890612498565b60405180910390fd5b6040516020016103e090612504565b604051602081830303815290604052805190602001208380602001906104069190612217565b6040516020016104179291906122b9565b604051602081830303815290604052805190602001201480610492575060405160200161044390612565565b604051602081830303815290604052805190602001208380602001906104699190612217565b60405160200161047a9291906122b9565b60405160208183030381529060405280519060200120145b6104d1576040517f08c379a00000000000000000000000000000000000000000000000000000000081526004016104c8906125ec565b60405180910390fd5b34600a60008282546104e3919061263b565b925050819055506000600283836040516104fe9291906122b9565b90815260200160405180910390206006015414156108735760006004838360405161052a9291906122b9565b908152602001604051809103902060006101000a81548160ff021916908315150217905550826060016020810190610562919061238d565b73ffffffffffffffffffffffffffffffffffffffff163373ffffffffffffffffffffffffffffffffffffffff16141561069557826000013534146105db576040517f08c379a00000000000000000000000000000000000000000000000000000000081526004016105d2906126dd565b60405180910390fd5b6040518060400160405280600581526020017f7573657231000000000000000000000000000000000000000000000000000000815250600683836040516106239291906122b9565b90815260200160405180910390209080519060200190610644929190611e65565b507f2704af9c38c87047a2c2bc9ac70641e30b504a3c5fee2796f80dbd745fd724658282858060e001906106789190612217565b6040516106889493929190612787565b60405180910390a16107ac565b3460648460c0013585600001356106ac91906127d5565b6106b6919061285e565b146106f6576040517f08c379a00000000000000000000000000000000000000000000000000000000081526004016106ed906126dd565b60405180910390fd5b6040518060400160405280600581526020017f75736572320000000000000000000000000000000000000000000000000000008152506006838360405161073e9291906122b9565b9081526020016040518091039020908051906020019061075f929190611e65565b507f2704af9c38c87047a2c2bc9ac70641e30b504a3c5fee2796f80dbd745fd724658282858060e001906107939190612217565b6040516107a394939291906128db565b60405180910390a15b34600383836040516107bf9291906122b9565b9081526020016040518091039020819055506007838060e001906107e39190612217565b6040516107f19291906122b9565b908152602001604051809103902060000182829091806001815401808255809150506001900390600052602060002001600090919290919290919290919250919061083d929190611eeb565b5082600283836040516108519291906122b9565b9081526020016040518091039020818161086b9190612edc565b905050611127565b82600001356002838360405161088a9291906122b9565b908152602001604051809103902060000154146108dc576040517f08c379a00000000000000000000000000000000000000000000000000000000081526004016108d390612f5c565b60405180910390fd5b8280602001906108ec9190612217565b6040516020016108fd9291906122b9565b60405160208183030381529060405280519060200120600283836040516109259291906122b9565b90815260200160405180910390206001016040516020016109469190612ffb565b604051602081830303815290604052805190602001201461099c576040517f08c379a000000000000000000000000000000000000000000000000000000000815260040161099390613084565b60405180910390fd5b8280604001906109ac9190612217565b6040516020016109bd9291906122b9565b60405160208183030381529060405280519060200120600283836040516109e59291906122b9565b9081526020016040518091039020600201604051602001610a069190612ffb565b6040516020818303038152906040528051906020012014610a5c576040517f08c379a0000000000000000000000000000000000000000000000000000000008152600401610a5390613116565b60405180910390fd5b826060016020810190610a6f919061238d565b73ffffffffffffffffffffffffffffffffffffffff1660028383604051610a979291906122b9565b908152602001604051809103902060030160009054906101000a900473ffffffffffffffffffffffffffffffffffffffff1673ffffffffffffffffffffffffffffffffffffffff1614610b1f576040517f08c379a0000000000000000000000000000000000000000000000000000000008152600401610b16906131a8565b60405180910390fd5b828060800190610b2f9190612217565b604051602001610b409291906122b9565b6040516020818303038152906040528051906020012060028383604051610b689291906122b9565b9081526020016040518091039020600401604051602001610b899190612ffb565b6040516020818303038152906040528051906020012014610bdf576040517f08c379a0000000000000000000000000000000000000000000000000000000008152600401610bd69061323a565b60405180910390fd5b8260a0016020810190610bf2919061238d565b73ffffffffffffffffffffffffffffffffffffffff1660028383604051610c1a9291906122b9565b908152602001604051809103902060050160009054906101000a900473ffffffffffffffffffffffffffffffffffffffff1673ffffffffffffffffffffffffffffffffffffffff1614610ca2576040517f08c379a0000000000000000000000000000000000000000000000000000000008152600401610c99906132cc565b60405180910390fd5b8260c0013560028383604051610cb99291906122b9565b90815260200160405180910390206006015414610d0b576040517f08c379a0000000000000000000000000000000000000000000000000000000008152600401610d029061335e565b60405180910390fd5b828060e00190610d1b9190612217565b604051602001610d2c9291906122b9565b6040516020818303038152906040528051906020012060028383604051610d549291906122b9565b9081526020016040518091039020600701604051602001610d759190612ffb565b6040516020818303038152906040528051906020012014610dcb576040517f08c379a0000000000000000000000000000000000000000000000000000000008152600401610dc2906133f0565b60405180910390fd5b604051602001610dda9061345c565b6040516020818303038152906040528051906020012060068383604051610e029291906122b9565b9081526020016040518091039020604051602001610e209190612ffb565b604051602081830303815290604052805190602001201415610f8957826060016020810190610e4f919061238d565b73ffffffffffffffffffffffffffffffffffffffff163373ffffffffffffffffffffffffffffffffffffffff1614610ebc576040517f08c379a0000000000000000000000000000000000000000000000000000000008152600401610eb3906134e3565b60405180910390fd5b82600001353414610f02576040517f08c379a0000000000000000000000000000000000000000000000000000000008152600401610ef9906126dd565b60405180910390fd5b3460038383604051610f159291906122b9565b90815260200160405180910390206000828254610f32919061263b565b925050819055507f2704af9c38c87047a2c2bc9ac70641e30b504a3c5fee2796f80dbd745fd724658282858060e00190610f6c9190612217565b604051610f7c9493929190612787565b60405180910390a16110ed565b8260a0016020810190610f9c919061238d565b73ffffffffffffffffffffffffffffffffffffffff163373ffffffffffffffffffffffffffffffffffffffff1614611009576040517f08c379a000000000000000000000000000000000000000000000000000000000815260040161100090613575565b60405180910390fd5b3460648460c00135856000013561102091906127d5565b61102a919061285e565b1461106a576040517f08c379a0000000000000000000000000000000000000000000000000000000008152600401611061906126dd565b60405180910390fd5b346003838360405161107d9291906122b9565b9081526020016040518091039020600082825461109a919061263b565b925050819055507f2704af9c38c87047a2c2bc9ac70641e30b504a3c5fee2796f80dbd745fd724658282858060e001906110d49190612217565b6040516110e494939291906128db565b60405180910390a15b6001600483836040516111019291906122b9565b908152602001604051809103902060006101000a81548160ff0219169083151502179055505b505050565b611134611d1b565b61113e6000611d99565b565b600a5481565b60008060009054906101000a900473ffffffffffffffffffffffffffffffffffffffff16905090565b611177611d1b565b600115156001858560405161118d9291906122b9565b908152602001604051809103902060009054906101000a900460ff16151514156111ec576040517f08c379a00000000000000000000000000000000000000000000000000000000081526004016111e3906135e1565b60405180910390fd5b60018085856040516111ff9291906122b9565b908152602001604051809103902060006101000a81548160ff02191690831515021790555060005b600785856040516112399291906122b9565b908152602001604051809103902060000180549050811015611c9057600060026007878760405161126b9291906122b9565b9081526020016040518091039020600001838154811061128e5761128d613601565b5b906000526020600020016040516112a59190612ffb565b908152602001604051809103902060405180610120016040529081600082015481526020016001820180546112d990612a67565b80601f016020809104026020016040519081016040528092919081815260200182805461130590612a67565b80156113525780601f1061132757610100808354040283529160200191611352565b820191906000526020600020905b81548152906001019060200180831161133557829003601f168201915b5050505050815260200160028201805461136b90612a67565b80601f016020809104026020016040519081016040528092919081815260200182805461139790612a67565b80156113e45780601f106113b9576101008083540402835291602001916113e4565b820191906000526020600020905b8154815290600101906020018083116113c757829003601f168201915b505050505081526020016003820160009054906101000a900473ffffffffffffffffffffffffffffffffffffffff1673ffffffffffffffffffffffffffffffffffffffff1673ffffffffffffffffffffffffffffffffffffffff16815260200160048201805461145390612a67565b80601f016020809104026020016040519081016040528092919081815260200182805461147f90612a67565b80156114cc5780601f106114a1576101008083540402835291602001916114cc565b820191906000526020600020905b8154815290600101906020018083116114af57829003601f168201915b505050505081526020016005820160009054906101000a900473ffffffffffffffffffffffffffffffffffffffff1673ffffffffffffffffffffffffffffffffffffffff1673ffffffffffffffffffffffffffffffffffffffff1681526020016006820154815260200160078201805461154590612a67565b80601f016020809104026020016040519081016040528092919081815260200182805461157190612a67565b80156115be5780601f10611593576101008083540402835291602001916115be565b820191906000526020600020905b8154815290600101906020018083116115a157829003601f168201915b50505050508152602001600882015481525050905060006003600788886040516115e99291906122b9565b9081526020016040518091039020600001848154811061160c5761160b613601565b5b906000526020600020016040516116239190612ffb565b9081526020016040518091039020549050600160056007898960405161164a9291906122b9565b9081526020016040518091039020600001858154811061166d5761166c613601565b5b906000526020600020016040516116849190612ffb565b908152602001604051809103902060006101000a81548160ff021916908315150217905550600015156004600789896040516116c19291906122b9565b908152602001604051809103902060000185815481106116e4576116e3613601565b5b906000526020600020016040516116fb9190612ffb565b908152602001604051809103902060009054906101000a900460ff16151514156119885760405160200161172e9061367c565b604051602081830303815290604052805190602001206006600789896040516117589291906122b9565b9081526020016040518091039020600001858154811061177b5761177a613601565b5b906000526020600020016040516117929190612ffb565b90815260200160405180910390206040516020016117b09190612ffb565b60405160208183030381529060405280519060200120141561189b57816060015173ffffffffffffffffffffffffffffffffffffffff166108fc829081150290604051600060405180830381858888f19350505050158015611816573d6000803e3d6000fd5b507fd678dde1764648a4e84bba067ec49227087849fd6f35a0beb13376e7ce509ea26007888860405161184a9291906122b9565b9081526020016040518091039020600001848154811061186d5761186c613601565b5b9060005260206000200188886001600060405161188e959493929190613778565b60405180910390a1611981565b8160a0015173ffffffffffffffffffffffffffffffffffffffff166108fc60648460c00151846118cb91906127d5565b6118d5919061285e565b9081150290604051600060405180830381858888f19350505050158015611900573d6000803e3d6000fd5b507fd678dde1764648a4e84bba067ec49227087849fd6f35a0beb13376e7ce509ea2600788886040516119349291906122b9565b9081526020016040518091039020600001848154811061195757611956613601565b5b90600052602060002001888860006001604051611978959493929190613778565b60405180910390a15b5050611c7d565b7fd678dde1764648a4e84bba067ec49227087849fd6f35a0beb13376e7ce509ea2600788886040516119bb9291906122b9565b908152602001604051809103902060000184815481106119de576119dd613601565b5b9060005260206000200188886001808a8a604051611a0297969594939291906137e0565b60405180910390a1604051602001611a1990613898565b604051602081830303815290604052805190602001208585604051602001611a429291906122b9565b604051602081830303815290604052805190602001201415611b3357600060648360c00151611a71919061285e565b6001611a7d919061263b565b82611a88919061285e565b9050826060015173ffffffffffffffffffffffffffffffffffffffff166108fc829081150290604051600060405180830381858888f19350505050158015611ad4573d6000803e3d6000fd5b508260a0015173ffffffffffffffffffffffffffffffffffffffff166108fc8284611aff91906138ad565b9081150290604051600060405180830381858888f19350505050158015611b2a573d6000803e3d6000fd5b50505050611c7d565b600060646002600984611b4691906127d5565b611b50919061285e565b611b5a919061285e565b90508060086000828254611b6e919061263b565b925050819055508082611b8191906138ad565b91508585604051602001611b969291906122b9565b604051602081830303815290604052805190602001208360200151604051602001611bc19190613950565b604051602081830303815290604052805190602001201415611c2d57826060015173ffffffffffffffffffffffffffffffffffffffff166108fc839081150290604051600060405180830381858888f19350505050158015611c27573d6000803e3d6000fd5b50611c79565b8260a0015173ffffffffffffffffffffffffffffffffffffffff166108fc839081150290604051600060405180830381858888f19350505050158015611c77573d6000803e3d6000fd5b505b5050505b8080611c8890613967565b915050611227565b5050505050565b611c9f611d1b565b600073ffffffffffffffffffffffffffffffffffffffff168173ffffffffffffffffffffffffffffffffffffffff161415611d0f576040517f08c379a0000000000000000000000000000000000000000000000000000000008152600401611d0690613a22565b60405180910390fd5b611d1881611d99565b50565b611d23611e5d565b73ffffffffffffffffffffffffffffffffffffffff16611d41611146565b73ffffffffffffffffffffffffffffffffffffffff1614611d97576040517f08c379a0000000000000000000000000000000000000000000000000000000008152600401611d8e90613a8e565b60405180910390fd5b565b60008060009054906101000a900473ffffffffffffffffffffffffffffffffffffffff169050816000806101000a81548173ffffffffffffffffffffffffffffffffffffffff021916908373ffffffffffffffffffffffffffffffffffffffff1602179055508173ffffffffffffffffffffffffffffffffffffffff168173ffffffffffffffffffffffffffffffffffffffff167f8be0079c531659141344cd1fd0a4f28419497f9722a3daafe3b4186f6b6457e060405160405180910390a35050565b600033905090565b828054611e7190612a67565b90600052602060002090601f016020900481019282611e935760008555611eda565b82601f10611eac57805160ff1916838001178555611eda565b82800160010185558215611eda579182015b82811115611ed9578251825591602001919060010190611ebe565b5b509050611ee79190611f71565b5090565b828054611ef790612a67565b90600052602060002090601f016020900481019282611f195760008555611f60565b82601f10611f3257803560ff1916838001178555611f60565b82800160010185558215611f60579182015b82811115611f5f578235825591602001919060010190611f44565b5b509050611f6d9190611f71565b5090565b5b80821115611f8a576000816000905550600101611f72565b5090565b6000819050919050565b611fa181611f8e565b82525050565b6000602082019050611fbc6000830184611f98565b92915050565b600080fd5b600080fd5b600080fd5b60006101208284031215611fe857611fe7611fcc565b5b81905092915050565b600080fd5b600080fd5b600080fd5b60008083601f84011261201657612015611ff1565b5b8235905067ffffffffffffffff81111561203357612032611ff6565b5b60208301915083600182028301111561204f5761204e611ffb565b5b9250929050565b60008060006040848603121561206f5761206e611fc2565b5b600084013567ffffffffffffffff81111561208d5761208c611fc7565b5b61209986828701611fd1565b935050602084013567ffffffffffffffff8111156120ba576120b9611fc7565b5b6120c686828701612000565b92509250509250925092565b600073ffffffffffffffffffffffffffffffffffffffff82169050919050565b60006120fd826120d2565b9050919050565b61210d816120f2565b82525050565b60006020820190506121286000830184612104565b92915050565b6000806000806040858703121561214857612147611fc2565b5b600085013567ffffffffffffffff81111561216657612165611fc7565b5b61217287828801612000565b9450945050602085013567ffffffffffffffff81111561219557612194611fc7565b5b6121a187828801612000565b925092505092959194509250565b6121b8816120f2565b81146121c357600080fd5b50565b6000813590506121d5816121af565b92915050565b6000602082840312156121f1576121f0611fc2565b5b60006121ff848285016121c6565b91505092915050565b600080fd5b600080fd5b600080fd5b6000808335600160200384360303811261223457612233612208565b5b80840192508235915067ffffffffffffffff8211156122565761225561220d565b5b60208301925060018202360383131561227257612271612212565b5b509250929050565b600081905092915050565b82818337600083830152505050565b60006122a0838561227a565b93506122ad838584612285565b82840190509392505050565b60006122c6828486612294565b91508190509392505050565b600082825260208201905092915050565b7f47616d6520697320616c7265616479206f766572000000000000000000000000600082015250565b60006123196014836122d2565b9150612324826122e3565b602082019050919050565b600060208201905081810360008301526123488161230c565b9050919050565b600061235a826120d2565b9050919050565b61236a8161234f565b811461237557600080fd5b50565b60008135905061238781612361565b92915050565b6000602082840312156123a3576123a2611fc2565b5b60006123b184828501612378565b91505092915050565b7f546865207573657227732077616c6c6574206164647265737320646f65736e2760008201527f7420657175616c20746865206164647265737320696e20746865206265740000602082015250565b6000612416603e836122d2565b9150612421826123ba565b604082019050919050565b6000602082019050818103600083015261244581612409565b9050919050565b7f42657420697320616c726561647920636f6d706c657465000000000000000000600082015250565b60006124826017836122d2565b915061248d8261244c565b602082019050919050565b600060208201905081810360008301526124b181612475565b9050919050565b7f7768697465000000000000000000000000000000000000000000000000000000600082015250565b60006124ee60058361227a565b91506124f9826124b8565b600582019050919050565b600061250f826124e1565b9150819050919050565b7f626c61636b000000000000000000000000000000000000000000000000000000600082015250565b600061254f60058361227a565b915061255a82612519565b600582019050919050565b600061257082612542565b9150819050919050565b7f4265742073696465206d757374206f6e6c792062652027776869746527206f7260008201527f2027626c61636b27000000000000000000000000000000000000000000000000602082015250565b60006125d66028836122d2565b91506125e18261257a565b604082019050919050565b60006020820190508181036000830152612605816125c9565b9050919050565b7f4e487b7100000000000000000000000000000000000000000000000000000000600052601160045260246000fd5b600061264682611f8e565b915061265183611f8e565b9250827fffffffffffffffffffffffffffffffffffffffffffffffffffffffffffffffff038211156126865761268561260c565b5b828201905092915050565b7f57726f6e6720616d6f756e742073656e74000000000000000000000000000000600082015250565b60006126c76011836122d2565b91506126d282612691565b602082019050919050565b600060208201905081810360008301526126f6816126ba565b9050919050565b7f7573657231206861732070616964000000000000000000000000000000000000600082015250565b6000612733600e836122d2565b915061273e826126fd565b602082019050919050565b6000601f19601f8301169050919050565b600061276683856122d2565b9350612773838584612285565b61277c83612749565b840190509392505050565b600060608201905081810360008301526127a081612726565b905081810360208301526127b581868861275a565b905081810360408301526127ca81848661275a565b905095945050505050565b60006127e082611f8e565b91506127eb83611f8e565b9250817fffffffffffffffffffffffffffffffffffffffffffffffffffffffffffffffff04831182151516156128245761282361260c565b5b828202905092915050565b7f4e487b7100000000000000000000000000000000000000000000000000000000600052601260045260246000fd5b600061286982611f8e565b915061287483611f8e565b9250826128845761288361282f565b5b828204905092915050565b7f7573657232206861732070616964000000000000000000000000000000000000600082015250565b60006128c5600e836122d2565b91506128d08261288f565b602082019050919050565b600060608201905081810360008301526128f4816128b8565b9050818103602083015261290981868861275a565b9050818103604083015261291e81848661275a565b905095945050505050565b61293281611f8e565b811461293d57600080fd5b50565b6000813561294d81612929565b80915050919050565b60008160001b9050919050565b60007fffffffffffffffffffffffffffffffffffffffffffffffffffffffffffffffff61298f84612956565b9350801983169250808416831791505092915050565b6000819050919050565b60006129ca6129c56129c084611f8e565b6129a5565b611f8e565b9050919050565b6000819050919050565b6129e4826129af565b6129f76129f0826129d1565b8354612963565b8255505050565b600082905092915050565b7f4e487b7100000000000000000000000000000000000000000000000000000000600052604160045260246000fd5b7f4e487b7100000000000000000000000000000000000000000000000000000000600052602260045260246000fd5b60006002820490506001821680612a7f57607f821691505b60208210811415612a9357612a92612a38565b5b50919050565b60008190508160005260206000209050919050565b60006020601f8301049050919050565b600082821b905092915050565b600060088302612afb7fffffffffffffffffffffffffffffffffffffffffffffffffffffffffffffffff82612abe565b612b058683612abe565b95508019841693508086168417925050509392505050565b612b26836129af565b612b3a612b32826129d1565b848454612acb565b825550505050565b600090565b612b4f612b42565b612b5a818484612b1d565b505050565b5b81811015612b7e57612b73600082612b47565b600181019050612b60565b5050565b601f821115612bc357612b9481612a99565b612b9d84612aae565b81016020851015612bac578190505b612bc0612bb885612aae565b830182612b5f565b50505b505050565b600082821c905092915050565b6000612be660001984600802612bc8565b1980831691505092915050565b6000612bff8383612bd5565b9150826002028217905092915050565b612c1983836129fe565b67ffffffffffffffff811115612c3257612c31612a09565b5b612c3c8254612a67565b612c47828285612b82565b6000601f831160018114612c765760008415612c64578287013590505b612c6e8582612bf3565b865550612cd6565b601f198416612c8486612a99565b60005b82811015612cac57848901358255600182019150602085019450602081019050612c87565b86831015612cc95784890135612cc5601f891682612bd5565b8355505b6001600288020188555050505b50505050505050565b612cea838383612c0f565b505050565b60008135612cfc81612361565b80915050919050565b600073ffffffffffffffffffffffffffffffffffffffff612d2584612956565b9350801983169250808416831791505092915050565b6000612d56612d51612d4c846120d2565b6129a5565b6120d2565b9050919050565b6000612d6882612d3b565b9050919050565b6000612d7a82612d5d565b9050919050565b6000819050919050565b612d9482612d6f565b612da7612da082612d81565b8354612d05565b8255505050565b600081016000830180612dc081612940565b9050612dcc81846129db565b5050506001810160208301612de18185612217565b612dec818386612cdf565b505050506002810160408301612e028185612217565b612e0d818386612cdf565b50505050600381016060830180612e2381612cef565b9050612e2f8184612d8b565b5050506004810160808301612e448185612217565b612e4f818386612cdf565b505050506005810160a0830180612e6581612cef565b9050612e718184612d8b565b5050506006810160c0830180612e8681612940565b9050612e9281846129db565b5050506007810160e08301612ea78185612217565b612eb2818386612cdf565b5050505060088101610100830180612ec981612940565b9050612ed581846129db565b5050505050565b612ee68282612dae565b5050565b7f5573657220312062657420616d6f756e7420646f65736e2774206d617463682060008201527f7573657220322062657420616d6f756e74000000000000000000000000000000602082015250565b6000612f466031836122d2565b9150612f5182612eea565b604082019050919050565b60006020820190508181036000830152612f7581612f39565b9050919050565b60008154612f8981612a67565b612f93818661227a565b94506001821660008114612fae5760018114612fbf57612ff2565b60ff19831686528186019350612ff2565b612fc885612a99565b60005b83811015612fea57815481890152600182019150602081019050612fcb565b838801955050505b50505092915050565b60006130078284612f7c565b915081905092915050565b7f55736572203120626574207369646520646f65736e2774206d6174636820757360008201527f6572203220626574207369646500000000000000000000000000000000000000602082015250565b600061306e602d836122d2565b915061307982613012565b604082019050919050565b6000602082019050818103600083015261309d81613061565b9050919050565b7f557365722031206265742e7573657231496420646f65736e2774206d6174636860008201527f20757365722032206265742e7573657231496400000000000000000000000000602082015250565b60006131006033836122d2565b915061310b826130a4565b604082019050919050565b6000602082019050818103600083015261312f816130f3565b9050919050565b7f557365722031206265742e75736572314d6574616d61736b20646f65736e277460008201527f206d6174636820757365722032206265742e75736572324d6574616d61736b00602082015250565b6000613192603f836122d2565b915061319d82613136565b604082019050919050565b600060208201905081810360008301526131c181613185565b9050919050565b7f557365722031206265742e7573657232496420646f65736e2774206d6174636860008201527f20757365722032206265742e7573657232496400000000000000000000000000602082015250565b60006132246033836122d2565b915061322f826131c8565b604082019050919050565b6000602082019050818103600083015261325381613217565b9050919050565b7f557365722031206265742e75736572324d6574616d61736b20646f65736e277460008201527f206d6174636820757365722032206265742e75736572324d6574616d61736b00602082015250565b60006132b6603f836122d2565b91506132c18261325a565b604082019050919050565b600060208201905081810360008301526132e5816132a9565b9050919050565b7f557365722031206265742e7573657231496420646f65736e2774206d6174636860008201527f20757365722032206265742e7573657231496420616d6f756e74000000000000602082015250565b6000613348603a836122d2565b9150613353826132ec565b604082019050919050565b600060208201905081810360008301526133778161333b565b9050919050565b7f557365722031206265742e67616d65496420646f65736e2774206d617463682060008201527f757365722032206265742e67616d654964000000000000000000000000000000602082015250565b60006133da6031836122d2565b91506133e58261337e565b604082019050919050565b60006020820190508181036000830152613409816133cd565b9050919050565b7f7573657232000000000000000000000000000000000000000000000000000000600082015250565b600061344660058361227a565b915061345182613410565b600582019050919050565b600061346782613439565b9150819050919050565b7f5573657220312077616c6c6574206164647265737320646f65736e2774206d6160008201527f7463682073656e64657220616464726573730000000000000000000000000000602082015250565b60006134cd6032836122d2565b91506134d882613471565b604082019050919050565b600060208201905081810360008301526134fc816134c0565b9050919050565b7f5573657220322077616c6c6574206164647265737320646f65736e2774206d6160008201527f7463682073656e64657220616464726573730000000000000000000000000000602082015250565b600061355f6032836122d2565b915061356a82613503565b604082019050919050565b6000602082019050818103600083015261358e81613552565b9050919050565b7f67616d6520697320616c72656164792070616964000000000000000000000000600082015250565b60006135cb6014836122d2565b91506135d682613595565b602082019050919050565b600060208201905081810360008301526135fa816135be565b9050919050565b7f4e487b7100000000000000000000000000000000000000000000000000000000600052603260045260246000fd5b7f7573657231000000000000000000000000000000000000000000000000000000600082015250565b600061366660058361227a565b915061367182613630565b600582019050919050565b600061368782613659565b9150819050919050565b6000815461369e81612a67565b6136a881866122d2565b945060018216600081146136c357600181146136d557613708565b60ff1983168652602086019350613708565b6136de85612a99565b60005b83811015613700578154818901526001820191506020810190506136e1565b808801955050505b50505092915050565b60008115159050919050565b61372681613711565b82525050565b7f6e6f6e6500000000000000000000000000000000000000000000000000000000600082015250565b60006137626004836122d2565b915061376d8261372c565b602082019050919050565b600060a08201905081810360008301526137928188613691565b905081810360208301526137a781868861275a565b90506137b6604083018561371d565b6137c3606083018461371d565b81810360808301526137d481613755565b90509695505050505050565b600060a08201905081810360008301526137fa818a613691565b9050818103602083015261380f81888a61275a565b905061381e604083018761371d565b61382b606083018661371d565b818103608083015261383e81848661275a565b905098975050505050505050565b7f6472617700000000000000000000000000000000000000000000000000000000600082015250565b600061388260048361227a565b915061388d8261384c565b600482019050919050565b60006138a382613875565b9150819050919050565b60006138b882611f8e565b91506138c383611f8e565b9250828210156138d6576138d561260c565b5b828203905092915050565b600081519050919050565b60005b8381101561390a5780820151818401526020810190506138ef565b83811115613919576000848401525b50505050565b600061392a826138e1565b613934818561227a565b93506139448185602086016138ec565b80840191505092915050565b600061395c828461391f565b915081905092915050565b600061397282611f8e565b91507fffffffffffffffffffffffffffffffffffffffffffffffffffffffffffffffff8214156139a5576139a461260c565b5b600182019050919050565b7f4f776e61626c653a206e6577206f776e657220697320746865207a65726f206160008201527f6464726573730000000000000000000000000000000000000000000000000000602082015250565b6000613a0c6026836122d2565b9150613a17826139b0565b604082019050919050565b60006020820190508181036000830152613a3b816139ff565b9050919050565b7f4f776e61626c653a2063616c6c6572206973206e6f7420746865206f776e6572600082015250565b6000613a786020836122d2565b9150613a8382613a42565b602082019050919050565b60006020820190508181036000830152613aa781613a6b565b905091905056fea2646970667358221220b3cc97f9abda9b734180fcb74d3becfc8aee0ccdd9ec7cdcfb19afbb30a3b7bc64736f6c634300080b0033",
  "linkReferences": {},
  "deployedLinkReferences": {}
}