{
  "_format": "hh-sol-artifact-1",
  "contractName": "ChessWager",
  "sourceName": "contracts/ChessWager.sol",
  "abi": [
    {
      "inputs": [],
      "stateMutability": "nonpayable",
      "type": "constructor"
    },
    {
      "anonymous": false,
      "inputs": [
        {
          "indexed": false,
          "internalType": "string",
          "name": "message",
          "type": "string"
        },
        {
          "indexed": false,
          "internalType": "string",
          "name": "betId",
          "type": "string"
        },
        {
          "indexed": false,
          "internalType": "string",
          "name": "gameId",
          "type": "string"
        }
      ],
      "name": "BetPlacedStatus",
      "type": "event"
    },
    {
      "anonymous": false,
      "inputs": [
        {
          "indexed": true,
          "internalType": "address",
          "name": "previousOwner",
          "type": "address"
        },
        {
          "indexed": true,
          "internalType": "address",
          "name": "newOwner",
          "type": "address"
        }
      ],
      "name": "OwnershipTransferred",
      "type": "event"
    },
    {
      "anonymous": false,
      "inputs": [
        {
          "indexed": false,
          "internalType": "string",
          "name": "betId",
          "type": "string"
        },
        {
          "indexed": false,
          "internalType": "string",
          "name": "gameId",
          "type": "string"
        },
        {
          "indexed": false,
          "internalType": "bool",
          "name": "didUser1Pay",
          "type": "bool"
        },
        {
          "indexed": false,
          "internalType": "bool",
          "name": "didUser2Pay",
          "type": "bool"
        },
        {
          "indexed": false,
          "internalType": "string",
          "name": "winningSide",
          "type": "string"
        }
      ],
      "name": "PayoutStatus",
      "type": "event"
    },
    {
      "inputs": [],
      "name": "owner",
      "outputs": [
        {
          "internalType": "address",
          "name": "",
          "type": "address"
        }
      ],
      "stateMutability": "view",
      "type": "function"
    },
    {
      "inputs": [
        {
          "internalType": "string",
          "name": "_gameId",
          "type": "string"
        },
        {
          "internalType": "string",
          "name": "winningSide",
          "type": "string"
        }
      ],
      "name": "payWinners",
      "outputs": [],
      "stateMutability": "payable",
      "type": "function"
    },
    {
      "inputs": [
        {
          "components": [
            {
              "internalType": "uint256",
              "name": "amount",
              "type": "uint256"
            },
            {
              "internalType": "string",
              "name": "betSide",
              "type": "string"
            },
            {
              "internalType": "string",
              "name": "user1Id",
              "type": "string"
            },
            {
              "internalType": "address payable",
              "name": "user1Metamask",
              "type": "address"
            },
            {
              "internalType": "string",
              "name": "user2Id",
              "type": "string"
            },
            {
              "internalType": "address payable",
              "name": "user2Metamask",
              "type": "address"
            },
            {
              "internalType": "uint256",
              "name": "multiplier",
              "type": "uint256"
            },
            {
              "internalType": "string",
              "name": "gameId",
              "type": "string"
            },
            {
              "internalType": "uint256",
              "name": "timestamp",
              "type": "uint256"
            }
          ],
          "internalType": "struct ChessWager.Bet",
          "name": "_bet",
          "type": "tuple"
        },
        {
          "internalType": "string",
          "name": "_betId",
          "type": "string"
        }
      ],
      "name": "placeBet",
      "outputs": [],
      "stateMutability": "payable",
      "type": "function"
    },
    {
      "inputs": [],
      "name": "renounceOwnership",
      "outputs": [],
      "stateMutability": "nonpayable",
      "type": "function"
    },
    {
      "inputs": [],
      "name": "totalWagered",
      "outputs": [
        {
          "internalType": "uint256",
          "name": "",
          "type": "uint256"
        }
      ],
      "stateMutability": "view",
      "type": "function"
    },
    {
      "inputs": [
        {
          "internalType": "address",
          "name": "newOwner",
          "type": "address"
        }
      ],
      "name": "transferOwnership",
      "outputs": [],
      "stateMutability": "nonpayable",
      "type": "function"
    },
    {
      "inputs": [],
      "name": "viewChessWagerBalance",
      "outputs": [
        {
          "internalType": "uint256",
          "name": "",
          "type": "uint256"
        }
      ],
      "stateMutability": "view",
      "type": "function"
    },
    {
      "inputs": [],
      "name": "withdrawChessWagerBalance",
      "outputs": [],
      "stateMutability": "payable",
      "type": "function"
    }
  ],
  "bytecode": "0x60806040523480156200001157600080fd5b5062000032620000266200008160201b60201c565b6200008960201b60201c565b33600960006101000a81548173ffffffffffffffffffffffffffffffffffffffff021916908373ffffffffffffffffffffffffffffffffffffffff16021790555060006008819055506200014d565b600033905090565b60008060009054906101000a900473ffffffffffffffffffffffffffffffffffffffff169050816000806101000a81548173ffffffffffffffffffffffffffffffffffffffff021916908373ffffffffffffffffffffffffffffffffffffffff1602179055508173ffffffffffffffffffffffffffffffffffffffff168173ffffffffffffffffffffffffffffffffffffffff167f8be0079c531659141344cd1fd0a4f28419497f9722a3daafe3b4186f6b6457e060405160405180910390a35050565b612efc806200015d6000396000f3fe60806040526004361061007b5760003560e01c80638a14f12c1161004e5780638a14f12c146100e85780638da5cb5b14610113578063c2b630ca1461013e578063f2fde38b1461015a5761007b565b8063137294b014610080578063216a6641146100ab57806335f11837146100b5578063715018a6146100d1575b600080fd5b34801561008c57600080fd5b50610095610183565b6040516100a29190611bdb565b60405180910390f35b6100b3610195565b005b6100cf60048036038101906100ca9190611c8a565b610212565b005b3480156100dd57600080fd5b506100e6610d60565b005b3480156100f457600080fd5b506100fd610d74565b60405161010a9190611bdb565b60405180910390f35b34801561011f57600080fd5b50610128610d7a565b6040516101359190611d47565b60405180910390f35b61015860048036038101906101539190611d62565b610da3565b005b34801561016657600080fd5b50610181600480360381019061017c9190611e0f565b6118cb565b005b600061018d61194f565b600854905090565b61019d61194f565b600960009054906101000a900473ffffffffffffffffffffffffffffffffffffffff1673ffffffffffffffffffffffffffffffffffffffff166108fc6008549081150290604051600060405180830381858888f19350505050158015610207573d6000803e3d6000fd5b506000600881905550565b600115156001848060e001906102289190611e4b565b604051610236929190611eed565b908152602001604051809103902060009054906101000a900460ff161515141561025f57600080fd5b8260600160208101906102729190611f44565b73ffffffffffffffffffffffffffffffffffffffff163373ffffffffffffffffffffffffffffffffffffffff1614806102e857508260a00160208101906102b99190611f44565b73ffffffffffffffffffffffffffffffffffffffff163373ffffffffffffffffffffffffffffffffffffffff16145b6102f157600080fd5b6000151560058383604051610307929190611eed565b908152602001604051809103902060009054906101000a900460ff1615151461032f57600080fd5b60405160200161033e90611fbd565b604051602081830303815290604052805190602001208380602001906103649190611e4b565b604051602001610375929190611eed565b6040516020818303038152906040528051906020012014806103f057506040516020016103a19061201e565b604051602081830303815290604052805190602001208380602001906103c79190611e4b565b6040516020016103d8929190611eed565b60405160208183030381529060405280519060200120145b6103f957600080fd5b34600a600082825461040b9190612062565b92505081905550600060028383604051610426929190611eed565b908152602001604051809103902060060154141561072f57600060048383604051610452929190611eed565b908152602001604051809103902060006101000a81548160ff02191690831515021790555082606001602081019061048a9190611f44565b73ffffffffffffffffffffffffffffffffffffffff163373ffffffffffffffffffffffffffffffffffffffff16141561058757826000013534146104cd57600080fd5b6040518060400160405280600581526020017f757365723100000000000000000000000000000000000000000000000000000081525060068383604051610515929190611eed565b90815260200160405180910390209080519060200190610536929190611a99565b507f2704af9c38c87047a2c2bc9ac70641e30b504a3c5fee2796f80dbd745fd724658282858060e0019061056a9190611e4b565b60405161057a9493929190612153565b60405180910390a1610668565b60648360c00135846000013561059d91906121a1565b6105a7919061222a565b34146105b257600080fd5b6040518060400160405280600581526020017f7573657232000000000000000000000000000000000000000000000000000000815250600683836040516105fa929190611eed565b9081526020016040518091039020908051906020019061061b929190611a99565b507f2704af9c38c87047a2c2bc9ac70641e30b504a3c5fee2796f80dbd745fd724658282858060e0019061064f9190611e4b565b60405161065f94939291906122a7565b60405180910390a15b346003838360405161067b929190611eed565b9081526020016040518091039020819055506007838060e0019061069f9190611e4b565b6040516106ad929190611eed565b90815260200160405180910390206000018282909180600181540180825580915050600190039060005260206000200160009091929091929091929091925091906106f9929190611b1f565b50826002838360405161070d929190611eed565b9081526020016040518091039020818161072791906128a8565b905050610d5b565b826000013560028383604051610746929190611eed565b9081526020016040518091039020600001541461076257600080fd5b8280602001906107729190611e4b565b604051602001610783929190611eed565b60405160208183030381529060405280519060200120600283836040516107ab929190611eed565b90815260200160405180910390206001016040516020016107cc9190612935565b60405160208183030381529060405280519060200120146107ec57600080fd5b8280604001906107fc9190611e4b565b60405160200161080d929190611eed565b6040516020818303038152906040528051906020012060028383604051610835929190611eed565b90815260200160405180910390206002016040516020016108569190612935565b604051602081830303815290604052805190602001201461087657600080fd5b8260600160208101906108899190611f44565b73ffffffffffffffffffffffffffffffffffffffff16600283836040516108b1929190611eed565b908152602001604051809103902060030160009054906101000a900473ffffffffffffffffffffffffffffffffffffffff1673ffffffffffffffffffffffffffffffffffffffff161461090357600080fd5b8280608001906109139190611e4b565b604051602001610924929190611eed565b604051602081830303815290604052805190602001206002838360405161094c929190611eed565b908152602001604051809103902060040160405160200161096d9190612935565b604051602081830303815290604052805190602001201461098d57600080fd5b8260a00160208101906109a09190611f44565b73ffffffffffffffffffffffffffffffffffffffff16600283836040516109c8929190611eed565b908152602001604051809103902060050160009054906101000a900473ffffffffffffffffffffffffffffffffffffffff1673ffffffffffffffffffffffffffffffffffffffff1614610a1a57600080fd5b8260c0013560028383604051610a31929190611eed565b90815260200160405180910390206006015414610a4d57600080fd5b828060e00190610a5d9190611e4b565b604051602001610a6e929190611eed565b6040516020818303038152906040528051906020012060028383604051610a96929190611eed565b9081526020016040518091039020600701604051602001610ab79190612935565b6040516020818303038152906040528051906020012014610ad757600080fd5b604051602001610ae690612998565b6040516020818303038152906040528051906020012060068383604051610b0e929190611eed565b9081526020016040518091039020604051602001610b2c9190612935565b604051602081830303815290604052805190602001201415610c2957826060016020810190610b5b9190611f44565b73ffffffffffffffffffffffffffffffffffffffff163373ffffffffffffffffffffffffffffffffffffffff1614610b9257600080fd5b82600001353414610ba257600080fd5b3460038383604051610bb5929190611eed565b90815260200160405180910390206000828254610bd29190612062565b925050819055507f2704af9c38c87047a2c2bc9ac70641e30b504a3c5fee2796f80dbd745fd724658282858060e00190610c0c9190611e4b565b604051610c1c9493929190612153565b60405180910390a1610d21565b8260a0016020810190610c3c9190611f44565b73ffffffffffffffffffffffffffffffffffffffff163373ffffffffffffffffffffffffffffffffffffffff1614610c7357600080fd5b60648360c001358460000135610c8991906121a1565b610c93919061222a565b3414610c9e57600080fd5b3460038383604051610cb1929190611eed565b90815260200160405180910390206000828254610cce9190612062565b925050819055507f2704af9c38c87047a2c2bc9ac70641e30b504a3c5fee2796f80dbd745fd724658282858060e00190610d089190611e4b565b604051610d1894939291906122a7565b60405180910390a15b600160048383604051610d35929190611eed565b908152602001604051809103902060006101000a81548160ff0219169083151502179055505b505050565b610d6861194f565b610d7260006119cd565b565b600a5481565b60008060009054906101000a900473ffffffffffffffffffffffffffffffffffffffff16905090565b610dab61194f565b6001151560018585604051610dc1929190611eed565b908152602001604051809103902060009054906101000a900460ff1615151415610e20576040517f08c379a0000000000000000000000000000000000000000000000000000000008152600401610e17906129f9565b60405180910390fd5b6001808585604051610e33929190611eed565b908152602001604051809103902060006101000a81548160ff02191690831515021790555060005b60078585604051610e6d929190611eed565b9081526020016040518091039020600001805490508110156118c4576000600260078787604051610e9f929190611eed565b90815260200160405180910390206000018381548110610ec257610ec1612a19565b5b90600052602060002001604051610ed99190612935565b90815260200160405180910390206040518061012001604052908160008201548152602001600182018054610f0d90612433565b80601f0160208091040260200160405190810160405280929190818152602001828054610f3990612433565b8015610f865780601f10610f5b57610100808354040283529160200191610f86565b820191906000526020600020905b815481529060010190602001808311610f6957829003601f168201915b50505050508152602001600282018054610f9f90612433565b80601f0160208091040260200160405190810160405280929190818152602001828054610fcb90612433565b80156110185780601f10610fed57610100808354040283529160200191611018565b820191906000526020600020905b815481529060010190602001808311610ffb57829003601f168201915b505050505081526020016003820160009054906101000a900473ffffffffffffffffffffffffffffffffffffffff1673ffffffffffffffffffffffffffffffffffffffff1673ffffffffffffffffffffffffffffffffffffffff16815260200160048201805461108790612433565b80601f01602080910402602001604051908101604052809291908181526020018280546110b390612433565b80156111005780601f106110d557610100808354040283529160200191611100565b820191906000526020600020905b8154815290600101906020018083116110e357829003601f168201915b505050505081526020016005820160009054906101000a900473ffffffffffffffffffffffffffffffffffffffff1673ffffffffffffffffffffffffffffffffffffffff1673ffffffffffffffffffffffffffffffffffffffff1681526020016006820154815260200160078201805461117990612433565b80601f01602080910402602001604051908101604052809291908181526020018280546111a590612433565b80156111f25780601f106111c7576101008083540402835291602001916111f2565b820191906000526020600020905b8154815290600101906020018083116111d557829003601f168201915b505050505081526020016008820154815250509050600060036007888860405161121d929190611eed565b908152602001604051809103902060000184815481106112405761123f612a19565b5b906000526020600020016040516112579190612935565b9081526020016040518091039020549050600160056007898960405161127e929190611eed565b908152602001604051809103902060000185815481106112a1576112a0612a19565b5b906000526020600020016040516112b89190612935565b908152602001604051809103902060006101000a81548160ff021916908315150217905550600015156004600789896040516112f5929190611eed565b9081526020016040518091039020600001858154811061131857611317612a19565b5b9060005260206000200160405161132f9190612935565b908152602001604051809103902060009054906101000a900460ff16151514156115bc5760405160200161136290612a94565b6040516020818303038152906040528051906020012060066007898960405161138c929190611eed565b908152602001604051809103902060000185815481106113af576113ae612a19565b5b906000526020600020016040516113c69190612935565b90815260200160405180910390206040516020016113e49190612935565b6040516020818303038152906040528051906020012014156114cf57816060015173ffffffffffffffffffffffffffffffffffffffff166108fc829081150290604051600060405180830381858888f1935050505015801561144a573d6000803e3d6000fd5b507fd678dde1764648a4e84bba067ec49227087849fd6f35a0beb13376e7ce509ea26007888860405161147e929190611eed565b908152602001604051809103902060000184815481106114a1576114a0612a19565b5b906000526020600020018888600160006040516114c2959493929190612b90565b60405180910390a16115b5565b8160a0015173ffffffffffffffffffffffffffffffffffffffff166108fc60648460c00151846114ff91906121a1565b611509919061222a565b9081150290604051600060405180830381858888f19350505050158015611534573d6000803e3d6000fd5b507fd678dde1764648a4e84bba067ec49227087849fd6f35a0beb13376e7ce509ea260078888604051611568929190611eed565b9081526020016040518091039020600001848154811061158b5761158a612a19565b5b906000526020600020018888600060016040516115ac959493929190612b90565b60405180910390a15b50506118b1565b7fd678dde1764648a4e84bba067ec49227087849fd6f35a0beb13376e7ce509ea2600788886040516115ef929190611eed565b9081526020016040518091039020600001848154811061161257611611612a19565b5b9060005260206000200188886001808a8a6040516116369796959493929190612bf8565b60405180910390a160405160200161164d90612cb0565b604051602081830303815290604052805190602001208585604051602001611676929190611eed565b60405160208183030381529060405280519060200120141561176757600060648360c001516116a5919061222a565b60016116b19190612062565b826116bc919061222a565b9050826060015173ffffffffffffffffffffffffffffffffffffffff166108fc829081150290604051600060405180830381858888f19350505050158015611708573d6000803e3d6000fd5b508260a0015173ffffffffffffffffffffffffffffffffffffffff166108fc82846117339190612cc5565b9081150290604051600060405180830381858888f1935050505015801561175e573d6000803e3d6000fd5b505050506118b1565b60006064600260098461177a91906121a1565b611784919061222a565b61178e919061222a565b905080600860008282546117a29190612062565b9250508190555080826117b59190612cc5565b915085856040516020016117ca929190611eed565b6040516020818303038152906040528051906020012083602001516040516020016117f59190612d68565b60405160208183030381529060405280519060200120141561186157826060015173ffffffffffffffffffffffffffffffffffffffff166108fc839081150290604051600060405180830381858888f1935050505015801561185b573d6000803e3d6000fd5b506118ad565b8260a0015173ffffffffffffffffffffffffffffffffffffffff166108fc839081150290604051600060405180830381858888f193505050501580156118ab573d6000803e3d6000fd5b505b5050505b80806118bc90612d7f565b915050610e5b565b5050505050565b6118d361194f565b600073ffffffffffffffffffffffffffffffffffffffff168173ffffffffffffffffffffffffffffffffffffffff161415611943576040517f08c379a000000000000000000000000000000000000000000000000000000000815260040161193a90612e3a565b60405180910390fd5b61194c816119cd565b50565b611957611a91565b73ffffffffffffffffffffffffffffffffffffffff16611975610d7a565b73ffffffffffffffffffffffffffffffffffffffff16146119cb576040517f08c379a00000000000000000000000000000000000000000000000000000000081526004016119c290612ea6565b60405180910390fd5b565b60008060009054906101000a900473ffffffffffffffffffffffffffffffffffffffff169050816000806101000a81548173ffffffffffffffffffffffffffffffffffffffff021916908373ffffffffffffffffffffffffffffffffffffffff1602179055508173ffffffffffffffffffffffffffffffffffffffff168173ffffffffffffffffffffffffffffffffffffffff167f8be0079c531659141344cd1fd0a4f28419497f9722a3daafe3b4186f6b6457e060405160405180910390a35050565b600033905090565b828054611aa590612433565b90600052602060002090601f016020900481019282611ac75760008555611b0e565b82601f10611ae057805160ff1916838001178555611b0e565b82800160010185558215611b0e579182015b82811115611b0d578251825591602001919060010190611af2565b5b509050611b1b9190611ba5565b5090565b828054611b2b90612433565b90600052602060002090601f016020900481019282611b4d5760008555611b94565b82601f10611b6657803560ff1916838001178555611b94565b82800160010185558215611b94579182015b82811115611b93578235825591602001919060010190611b78565b5b509050611ba19190611ba5565b5090565b5b80821115611bbe576000816000905550600101611ba6565b5090565b6000819050919050565b611bd581611bc2565b82525050565b6000602082019050611bf06000830184611bcc565b92915050565b600080fd5b600080fd5b600080fd5b60006101208284031215611c1c57611c1b611c00565b5b81905092915050565b600080fd5b600080fd5b600080fd5b60008083601f840112611c4a57611c49611c25565b5b8235905067ffffffffffffffff811115611c6757611c66611c2a565b5b602083019150836001820283011115611c8357611c82611c2f565b5b9250929050565b600080600060408486031215611ca357611ca2611bf6565b5b600084013567ffffffffffffffff811115611cc157611cc0611bfb565b5b611ccd86828701611c05565b935050602084013567ffffffffffffffff811115611cee57611ced611bfb565b5b611cfa86828701611c34565b92509250509250925092565b600073ffffffffffffffffffffffffffffffffffffffff82169050919050565b6000611d3182611d06565b9050919050565b611d4181611d26565b82525050565b6000602082019050611d5c6000830184611d38565b92915050565b60008060008060408587031215611d7c57611d7b611bf6565b5b600085013567ffffffffffffffff811115611d9a57611d99611bfb565b5b611da687828801611c34565b9450945050602085013567ffffffffffffffff811115611dc957611dc8611bfb565b5b611dd587828801611c34565b925092505092959194509250565b611dec81611d26565b8114611df757600080fd5b50565b600081359050611e0981611de3565b92915050565b600060208284031215611e2557611e24611bf6565b5b6000611e3384828501611dfa565b91505092915050565b600080fd5b600080fd5b600080fd5b60008083356001602003843603038112611e6857611e67611e3c565b5b80840192508235915067ffffffffffffffff821115611e8a57611e89611e41565b5b602083019250600182023603831315611ea657611ea5611e46565b5b509250929050565b600081905092915050565b82818337600083830152505050565b6000611ed48385611eae565b9350611ee1838584611eb9565b82840190509392505050565b6000611efa828486611ec8565b91508190509392505050565b6000611f1182611d06565b9050919050565b611f2181611f06565b8114611f2c57600080fd5b50565b600081359050611f3e81611f18565b92915050565b600060208284031215611f5a57611f59611bf6565b5b6000611f6884828501611f2f565b91505092915050565b7f7768697465000000000000000000000000000000000000000000000000000000600082015250565b6000611fa7600583611eae565b9150611fb282611f71565b600582019050919050565b6000611fc882611f9a565b9150819050919050565b7f626c61636b000000000000000000000000000000000000000000000000000000600082015250565b6000612008600583611eae565b915061201382611fd2565b600582019050919050565b600061202982611ffb565b9150819050919050565b7f4e487b7100000000000000000000000000000000000000000000000000000000600052601160045260246000fd5b600061206d82611bc2565b915061207883611bc2565b9250827fffffffffffffffffffffffffffffffffffffffffffffffffffffffffffffffff038211156120ad576120ac612033565b5b828201905092915050565b600082825260208201905092915050565b7f7573657231206861732070616964000000000000000000000000000000000000600082015250565b60006120ff600e836120b8565b915061210a826120c9565b602082019050919050565b6000601f19601f8301169050919050565b600061213283856120b8565b935061213f838584611eb9565b61214883612115565b840190509392505050565b6000606082019050818103600083015261216c816120f2565b90508181036020830152612181818688612126565b90508181036040830152612196818486612126565b905095945050505050565b60006121ac82611bc2565b91506121b783611bc2565b9250817fffffffffffffffffffffffffffffffffffffffffffffffffffffffffffffffff04831182151516156121f0576121ef612033565b5b828202905092915050565b7f4e487b7100000000000000000000000000000000000000000000000000000000600052601260045260246000fd5b600061223582611bc2565b915061224083611bc2565b9250826122505761224f6121fb565b5b828204905092915050565b7f7573657232206861732070616964000000000000000000000000000000000000600082015250565b6000612291600e836120b8565b915061229c8261225b565b602082019050919050565b600060608201905081810360008301526122c081612284565b905081810360208301526122d5818688612126565b905081810360408301526122ea818486612126565b905095945050505050565b6122fe81611bc2565b811461230957600080fd5b50565b60008135612319816122f5565b80915050919050565b60008160001b9050919050565b60007fffffffffffffffffffffffffffffffffffffffffffffffffffffffffffffffff61235b84612322565b9350801983169250808416831791505092915050565b6000819050919050565b600061239661239161238c84611bc2565b612371565b611bc2565b9050919050565b6000819050919050565b6123b08261237b565b6123c36123bc8261239d565b835461232f565b8255505050565b600082905092915050565b7f4e487b7100000000000000000000000000000000000000000000000000000000600052604160045260246000fd5b7f4e487b7100000000000000000000000000000000000000000000000000000000600052602260045260246000fd5b6000600282049050600182168061244b57607f821691505b6020821081141561245f5761245e612404565b5b50919050565b60008190508160005260206000209050919050565b60006020601f8301049050919050565b600082821b905092915050565b6000600883026124c77fffffffffffffffffffffffffffffffffffffffffffffffffffffffffffffffff8261248a565b6124d1868361248a565b95508019841693508086168417925050509392505050565b6124f28361237b565b6125066124fe8261239d565b848454612497565b825550505050565b600090565b61251b61250e565b6125268184846124e9565b505050565b5b8181101561254a5761253f600082612513565b60018101905061252c565b5050565b601f82111561258f5761256081612465565b6125698461247a565b81016020851015612578578190505b61258c6125848561247a565b83018261252b565b50505b505050565b600082821c905092915050565b60006125b260001984600802612594565b1980831691505092915050565b60006125cb83836125a1565b9150826002028217905092915050565b6125e583836123ca565b67ffffffffffffffff8111156125fe576125fd6123d5565b5b6126088254612433565b61261382828561254e565b6000601f8311600181146126425760008415612630578287013590505b61263a85826125bf565b8655506126a2565b601f19841661265086612465565b60005b8281101561267857848901358255600182019150602085019450602081019050612653565b868310156126955784890135612691601f8916826125a1565b8355505b6001600288020188555050505b50505050505050565b6126b68383836125db565b505050565b600081356126c881611f18565b80915050919050565b600073ffffffffffffffffffffffffffffffffffffffff6126f184612322565b9350801983169250808416831791505092915050565b600061272261271d61271884611d06565b612371565b611d06565b9050919050565b600061273482612707565b9050919050565b600061274682612729565b9050919050565b6000819050919050565b6127608261273b565b61277361276c8261274d565b83546126d1565b8255505050565b60008101600083018061278c8161230c565b905061279881846123a7565b50505060018101602083016127ad8185611e4b565b6127b88183866126ab565b5050505060028101604083016127ce8185611e4b565b6127d98183866126ab565b505050506003810160608301806127ef816126bb565b90506127fb8184612757565b50505060048101608083016128108185611e4b565b61281b8183866126ab565b505050506005810160a0830180612831816126bb565b905061283d8184612757565b5050506006810160c08301806128528161230c565b905061285e81846123a7565b5050506007810160e083016128738185611e4b565b61287e8183866126ab565b50505050600881016101008301806128958161230c565b90506128a181846123a7565b5050505050565b6128b2828261277a565b5050565b600081546128c381612433565b6128cd8186611eae565b945060018216600081146128e857600181146128f95761292c565b60ff1983168652818601935061292c565b61290285612465565b60005b8381101561292457815481890152600182019150602081019050612905565b838801955050505b50505092915050565b600061294182846128b6565b915081905092915050565b7f7573657232000000000000000000000000000000000000000000000000000000600082015250565b6000612982600583611eae565b915061298d8261294c565b600582019050919050565b60006129a382612975565b9150819050919050565b7f67616d6520697320616c72656164792070616964000000000000000000000000600082015250565b60006129e36014836120b8565b91506129ee826129ad565b602082019050919050565b60006020820190508181036000830152612a12816129d6565b9050919050565b7f4e487b7100000000000000000000000000000000000000000000000000000000600052603260045260246000fd5b7f7573657231000000000000000000000000000000000000000000000000000000600082015250565b6000612a7e600583611eae565b9150612a8982612a48565b600582019050919050565b6000612a9f82612a71565b9150819050919050565b60008154612ab681612433565b612ac081866120b8565b94506001821660008114612adb5760018114612aed57612b20565b60ff1983168652602086019350612b20565b612af685612465565b60005b83811015612b1857815481890152600182019150602081019050612af9565b808801955050505b50505092915050565b60008115159050919050565b612b3e81612b29565b82525050565b7f6e6f6e6500000000000000000000000000000000000000000000000000000000600082015250565b6000612b7a6004836120b8565b9150612b8582612b44565b602082019050919050565b600060a0820190508181036000830152612baa8188612aa9565b90508181036020830152612bbf818688612126565b9050612bce6040830185612b35565b612bdb6060830184612b35565b8181036080830152612bec81612b6d565b90509695505050505050565b600060a0820190508181036000830152612c12818a612aa9565b90508181036020830152612c2781888a612126565b9050612c366040830187612b35565b612c436060830186612b35565b8181036080830152612c56818486612126565b905098975050505050505050565b7f6472617700000000000000000000000000000000000000000000000000000000600082015250565b6000612c9a600483611eae565b9150612ca582612c64565b600482019050919050565b6000612cbb82612c8d565b9150819050919050565b6000612cd082611bc2565b9150612cdb83611bc2565b925082821015612cee57612ced612033565b5b828203905092915050565b600081519050919050565b60005b83811015612d22578082015181840152602081019050612d07565b83811115612d31576000848401525b50505050565b6000612d4282612cf9565b612d4c8185611eae565b9350612d5c818560208601612d04565b80840191505092915050565b6000612d748284612d37565b915081905092915050565b6000612d8a82611bc2565b91507fffffffffffffffffffffffffffffffffffffffffffffffffffffffffffffffff821415612dbd57612dbc612033565b5b600182019050919050565b7f4f776e61626c653a206e6577206f776e657220697320746865207a65726f206160008201527f6464726573730000000000000000000000000000000000000000000000000000602082015250565b6000612e246026836120b8565b9150612e2f82612dc8565b604082019050919050565b60006020820190508181036000830152612e5381612e17565b9050919050565b7f4f776e61626c653a2063616c6c6572206973206e6f7420746865206f776e6572600082015250565b6000612e906020836120b8565b9150612e9b82612e5a565b602082019050919050565b60006020820190508181036000830152612ebf81612e83565b905091905056fea26469706673582212203240996a88a7c94a37a4f1fa198faca474432b6c1873c6ff33a65a95617186c864736f6c634300080b0033",
  "linkReferences": {},
  "deployedLinkReferences": {}
}